:020000040020DA
:10000000AC2E00208D022000B38C2000B18C20008B
:10001000B18C2000B18C2000B18C200000000000C9
:10002000000000000000000000000000B18C200073
:10003000B18C200000000000B18C2000798D2000E0
:100040009B8D2000A18D2000A78D2000AD8D20006C
:10005000000000007F8D2000858D2000B18C2000E5
:10006000B18C200000000000000000000000000033
:100070000000000000000000B18C20000000000023
:100080000000000000000000B18C2000B18C2000B6
:10009000B18C2000B18C2000B18C2000B18C2000EC
:1000A000B18C2000B18C2000B18C2000B18C2000DC
:1000B000B18C2000B18C2000B18C2000B18C2000CC
:1000C000B18C2000B18C2000B18C2000B18C2000BC
:1000D000B18C2000000000000000000000000000C3
:1000E0000000000000000000000000000000000010
:1000F00000000000000000000D1A20001D1A200062
:1001000000000000000000000000000000000000EF
:1001100000000000000000000000000000000000DF
:1001200000000000000000000000000000000000CF
:1001300000000000000000000000000000000000BF
:1001400000000000000000000000000000000000AF
:10015000000000000000000000000000000000009F
:10016000000000000000000000000000000000008F
:10017000000000000000000000000000000000007F
:10018000000000000000000000000000000000006F
:10019000000000000000000000000000000000005F
:1001A000000000000000000000000000000000004F
:1001B000000000000000000000000000000000003F
:1001C000000000000000000000000000000000002F
:1001D000000000000000000000000000000000001F
:1001E000000000000000000000000000000000000F
:1001F00000000000000000000000000000000000FF
:1002000000000000000000000000000000000000EE
:1002100000000000000000000000000000000000DE
:1002200000000000000000000000000000000000CE
:1002300000000000000000000000000000000000BE
:1002400000000000000000000000000000000000AE
:10025000000000000000000000000000000000009E
:10026000000000000000000000000000000000008E
:10027000B18C2000011920001919200075122000EE
:10028000B18C2000D90D2000B18C200008B5094B9D
:10029000FF221A600848094A4824E3690849121AEB
:1002A00098470848084AA3690021121A984700F0A5
:1002B000DFFAFEE7B4200D4040000020FE010020E0
:1002C00088A2200000020020AB26002084B010B5D8
:1002D00002AC84E80F000F4C02A920681C2204F035
:1002E000C9FF236800221A805A809A80DA801A8116
:1002F0005A819A81DA81082000F09AFA4CF2C060A3
:1003000000F01AFD082000F09BFABDE8104004B090
:10031000704700BF34020020F0B57F2885B01E4A28
:100320001E4B03D101211160187031E01468611C6B
:100330001C29116018552BD100211160184A03F1B6
:100340001C00114653F8044B834242F8044BF9D188
:10035000CB881449042B02BF134B01221A700B46A1
:100360000F4A02F11C0052F8044B824241F8044B40
:10037000F9D16C460D4D1F68286869685E689A68F7
:10038000DB6803C4A868314620603846FFF79EFF4B
:10039000012005B0F0BD00BF140200204818002065
:1003A00004120020201200203819002030120020F2
:1003B0002DE9F047058892B0064635B1B5F5EA7FDC
:1003C0005DD00023038003200DE2A84B01205B6970
:1003D00098474AF6CD31A64B4FF480521D60A54B8D
:1003E00025201A8078225A8150221A7401221A710B
:1003F00059809881A04B96201A711D805980588190
:100400009E4B7F20187002241C201C7158705D8048
:100410009B4B284699809B4B1A7000F01FFD284685
:10042000994900F0EBFD284629462A4604F000FDD4
:10043000964B186010B930802046D4E14BF60B0380
:100440004FF470610382924808F031FD4AF6AA2306
:1004500090484BF60B1103802A464FF48073C381FA
:1004600045808580C58005814581858104F0E0FC5B
:10047000894B18604FF4EA7333800120B3E1874B56
:100480001B788B4240F0908185480021782208F04B
:10049000C1FB844B1B789B07ECD5022000F0C8F908
:1004A0004CF2C06000F048FC022000F0C9F97E4B1D
:1004B0007B481A887D4B7E4D1A807E4B196808F068
:1004C000CFFA724B1C6805F108030FCB84E80F00CC
:1004D000794B01201B7828335B5B694D6382774C35
:1004E000774B21469F6AB847236804202B7006F09B
:1004F0009BFB20606870032006F096FB214620607D
:10050000A8700620B847D4F8009000211C226D483E
:1005100085F8039008F07EFB584AA8461746604BC2
:1005200003F11C0153F8040B8B4242F8040BF9D180
:10053000644A524B154603F11C0153F8040B8B42DD
:1005400042F8040BF9D197F805A04C4C504608F03E
:10055000B3FB002800F014812379012B40F0B88010
:10056000234604AC224603F1180CA64618685968C5
:100570000833AEE8030063457446F6D19446186824
:10058000504BCEF800000DF1280E644603CC7445A4
:1005900018605960A44603F10803F6D12068494960
:1005A000186002232B710023EB80314B1B68012B59
:1005B0004BD1BAF1F00F37D01FD8BAF1EE0F3ED0C1
:1005C000BAF1EF0F3FD18E466C465EF8100FD1F8AE
:1005D00004C0D1F800808A68CB68DEF8041003C438
:1005E000DEF80800614620604046FFF76FFE36489F
:1005F00008F0BFFB00F02CFD36E0BAF1FD0F33D060
:10060000BAF1FE0F1FD198F8003081F80B900B72F1
:1006100098F801304B7298F802308B72B8F80430B9
:100620001A0A0A734B731FE0284B083103F11002BA
:1006300053F8040B934241F8040BF9D114E01E2047
:1006400008F05BFF10E001230DE06BB90B46144688
:1006500003CC744518605960224603F10803F6D1B3
:10066000206818600223EB80022377E07CA0200042
:10067000100200203C1200205012002078120020AE
:1006800060120020381900201903200034020020D5
:100690001C020020F41100203002002099260020C6
:1006A000C0180020742000204C1B00204E12002097
:1006B000601B002080200020441A00201802002027
:1006C000B49F200020120020404B4C0068120020F4
:1006D000032B44D123460BAC224603F1180CA6464B
:1006E000186859680833AEE8030063457446F6D1CC
:1006F000186813463D4ACEF800000DF1440E1C4622
:1007000003CC744510605160234602F10802F6D113
:100710002068032310602B710023EB80344B1A6890
:10072000DAB9BAF1F10F06D0BAF1F40F12D1012003
:1007300000F086F811E00120186000F079F82D4BE8
:100740002D4A03F1100153F8040B8B4242F8040BBD
:10075000F9D102E0254B0222DA8003232B716C468B
:10076000D5F800C0D5F804E0AA68EB68234D2868E6
:10077000696803C4A868714620606046FFF7A6FD5B
:10078000787908F099FA00287FF474AE184B1B684A
:10079000012B7FF46FAE0446395D0020013400F078
:1007A00035FC1C2CF8D165E688297FF463AE104B2C
:1007B0001B68012B13D1124C2378012B0FD1114B45
:1007C00011491A68114801321A6001F067F9104B9B
:1007D000104918681C2204F04DFD002323700E48B8
:1007E00008F077FB46E612B0BDE8F0872012002043
:1007F0001002002080120020681200203012002019
:10080000381900202C020020ECA02000C018002085
:1008100030020020041200201C02002008B500F065
:1008200019F8024B00221A7008BD00BF39190020C8
:10083000024A13781843107000F014B839190020D8
:10084000034A137823EA0000107000F00BB800BFD1
:1008500039190020024A136843F00F0313607047F0
:1008600000B40D40014B1860704700BF3CB00D4014
:10087000F7B500F0F7FB00F097FC00F035FC00F056
:100880001FFA08F03DFB00F087FCFFF7C7FF0220CE
:1008900008F023FA01F07EFE00F0C6FB00F0A8F994
:1008A000002000F0DBFA012000F0D8FA2E490020E9
:1008B00000F0A4FB01F0B0FF08F067FA042008F094
:1008C0000CFA2A4808F096FA294808F093FA002012
:1008D00001F0C4FF01F034F82648002101F0F6FED3
:1008E00001F0C2FC6846082101F09EF89DF807302F
:1008F0009DF80660204C43EA06266B461F4F03CB4B
:10090000FD6A2060616002204AF6CD31A847314679
:100910000320A8471A210120A84769467B6B0822BB
:100920000920984706F03EF8154A2368136063686B
:10093000536006F09BF91348002101F0C7FE00F058
:1009400055FC0021104801F0C1FE08F0AFFA0F4835
:1009500008F0A2FA00F06EFB082008F0BEF900F0E3
:100960006FFB01F02FFEFAE7D527200025A120001C
:100970003FA12000A40000209B260020B49F20005F
:10098000581B00203C01002050000020F49E200055
:1009900070B505880446772D30D07E2D3FD0002DD0
:1009A0004DD101F0EFFD294B1870294B1D601D46FC
:1009B0002B68284A264E52F823204AB126480021A7
:1009C000C154936880209847336801333360EFE760
:1009D000224A1370772320E01F4AD256002A12DBE6
:1009E0001B4A136801331360194B1C4A1B681278A9
:1009F0009342F1DB1A4B1B68002BEBD0184A002303
:100A00001360134AEFE7114A00201178114A52F897
:100A1000232001F02FFE30B97E23238013E00B4BFF
:100A20001B788B420FD10A4B0B491A688B5C03F081
:100A30007F038B540A4A136801331360D0E7002305
:100A40000380032070BD012070BD00BF8E260020F2
:100A500038020020600000208F2600203A19002074
:100A60003C020020094B1A780023934204DA08491B
:100A700051F82310814207D106490748CA5C62F049
:100A80007F02CA5401F03ABE0133EEE73A19002062
:100A9000600000208F2600205000002008B5094883
:100AA000082108F044F903210422002000F08AFB09
:100AB000002000F0F5FA04480021032200F028FB92
:100AC000012008BD00900D408D0B200008B509489D
:100AD000102108F02CF904210A46022000F072FBD4
:100AE000022000F0DDFA04480221042200F010FB8D
:100AF000012008BD00B00D408D0B200008B509484D
:100B0000202108F014F905210422022000F05AFBEC
:100B1000022000F0C5FA04480221052200F0F8FA8C
:100B2000012008BD00B00D408D0B200008B509481C
:100B3000402108F0FCF806210422022000F042FBCC
:100B4000022000F0ADFA04480221062200F0E0FA8B
:100B5000012008BD00B00D408D0B200008B50948EC
:100B6000802108F0E4F807210422022000F02AFB8B
:100B7000022000F095FA04480221072200F0C8FA8A
:100B8000012008BD00B00D408D0B200038B5054692
:100B900011480C4608F0C8F9E8B10F48102108F0D8
:100BA000B1F91DB9032C16D10C4810E0022D12D159
:100BB000042C01D10A480AE0052C01D1094806E0BD
:100BC000062C01D1084802E0072C04D10748BDE8F3
:100BD0003840FFF747BF38BD40020020FC9E200090
:100BE0001C9F20002C9F20000C9F20003C9F200079
:100BF0000148002108F086B94002002010B5074CDA
:100C0000FF2323604FF4FA6000F096F800213022B1
:100C1000062000F0F3FA0023236010BD00920D407F
:100C2000802870B51ED1104E104D3368002423F07B
:100C3000800333602B68204643F080032B600C4B0D
:100C400007211C60224600F0BDFA3368204623F0DD
:100C5000400333602B68062123F040032B60012200
:100C600000F0B0FA002070BD20940D4000940D40BB
:100C700000920D40F8B500F06DF80F4B0024D3E959
:100C800000673A46B04238BF7A1C15460443C3E9B0
:100C90000045DFF828E0DEE90001821B61EB070375
:100CA00012196B41CEE9002301F0D6FB18B1BDE863
:100CB000F84001F061BBF8BD0002002008020020EE
:100CC0000F4B104A1A6053F8042C42F0050243F807
:100CD000042C53F8042C42F0020243F8042C0A4A74
:100CE000136843F001031360084B00221A600422CA
:100CF00043F80C2C012243F8082C0F22DA627047CB
:100D000014E000E047E8010008200D400C0003401B
:100D1000034BD3E90023100A40EA0360704700BF89
:100D200000020020034BD3E90023D00B40EA4340EC
:100D3000704700BF08020020054B18601C3B1A6872
:100D400042F001021A601A68D207FCD4704700BF53
:100D500028000340074B084A196804331B681268CF
:100D6000120442EA0323054A0B43106843EA006079
:100D7000704700BF40500D4048500D404C500D4052
:100D800010B50446114B1B68DB07FBD508F001F8D2
:100D9000FFF7E0FF231A062BD8BFC41D0C4B220E11
:100DA0001A60C4F3074243F8042CC4F3072243F843
:100DB000082CE2B243F80C2C07F0E7FF054B91201A
:100DC0001C60BDE8104000F06BB900BF50500D40F2
:100DD0004C500D404802002008B5064B00229120DF
:100DE0001A6000F075F9912000F066F9BDE808403E
:100DF00001F090BC48020020164A38B52C2303FBB2
:100E000000234FF6BF72DC680546236C62649BB218
:100E100013F050020DD0A369DB0609D40E4B53F832
:100E200025301BB12068C0B29847F4E72368F2E789
:100E300038BD13F4D06F0BD04FF440732363FF23FE
:100E40006360E36AE262E362236B43F001032363BE
:100E500038BD00BF5C9F20004C0200202DE9F04F00
:100E6000012885B0064600F2BC802C2343435E4A2D
:100E7000D51895F920A005F12007BAF1000F914689
:100E8000C0F2AF8095F92220002AC0F2AA80574A0A
:100E900059F803301168EC680B43136051686B68B4
:100EA00095F921B00B4353609168AB6895F82280A7
:100EB0000B4393600023C4F8C83F2B690BEBCA02B5
:100EC0001A6095F823305FFA88FC01939DF804308E
:100ED000604619462A7DCDF80CC0029300F07CF9DB
:100EE000029BDDF80CC019466046082200F06AF942
:100EF0004FFA88F83E494FEA08389DF9042058F81F
:100F00000100012303FA02F2024348F801204FEAEC
:100F10000A3A5AF8010003FA0BF202434AF8012098
:100F20005022A263A26B95F8240042F4D062A2631F
:100F3000022262634FF440722263AA696262EA6924
:100F4000A2627022E26242B2002A0C4614DB95F9DA
:100F50002510284D41EAC2012960797912031559FB
:100F60004FB2BB402B431351002200F02BF9224A11
:100F7000136843F4004313602C2303FB069393F898
:100F8000265020336FB2002F1CDB93F807A0EDB280
:100F90005FFA8AF82846414601223F0300F01CF917
:100FA0004FFA8AFA3A59012303FA0AF313433B51E1
:100FB00008222846414600F005F90F4A136843F419
:100FC000804313602C2303FB0696F26896F82800F2
:100FD000136B43F00103136305B0BDE8F04F00F05D
:100FE0005FB805B0BDE8F08F5C9F200028200D4061
:100FF00020940D4004410D4030D0004001289CBF9A
:10100000014B43F8201070474C020020012808D8FB
:10101000044B2C2202FB0030C3689A699206FCD470
:10102000196070475C9F2000014B00221A607047D6
:1010300000500D40014B08221A60704700500D40CF
:10104000024BA0221A6050221A60704700500D40D7
:1010500008B507F09EFE024B0B221A60FEE700BFA8
:1010600000500D40084A094B1A60094B80321A6043
:10107000084B80321A60084B80321A60074B4FF4DD
:1010800000121A60704700BF00E100E0600200201B
:1010900054020020580200205C02002008ED00E00D
:1010A000044B41091A6800F01F000123834042F8F5
:1010B0002130704760020020044B41091A6800F09B
:1010C0001F000123834042F8213070475402002062
:1010D000044B41091A6800F01F000123834042F8C5
:1010E000213070475C020020054A064B1A60064B0F
:1010F0001A68064B1340B3F1807FF8D1704700BFE8
:101100000101020100200D4004200D4000000101FA
:10111000024B02EBC10243F8220070476402002038
:10112000F8B507460E46094D002405EB411547FA70
:1011300004F3DB07E1B204D555F824300BB1304697
:1011400098470134082CF2D1F8BD00BF640200209A
:101150002DE9F8430703DFF83C8007F1804505F5EA
:101160005925D5F8186457F808404FEAC00924FA01
:1011700009F4014646EA0400E4B2C0B2F6B204FA49
:1011800009F4FFF7CDFFC5F81C6447F80840BDE837
:10119000F88300BF18970D4002480021802207F015
:1011A00039BD00BF64020020034A044B1A60044B9F
:1011B000803A1A60704700BF80400D40E80200206E
:1011C000E4020020034B01EBC0011B6843F821201F
:1011D000704700BFE8020020034B01EBC0011B6811
:1011E00043F82120704700BFE4020020024A136840
:1011F00043F030031360704700700D400E2870B547
:101200000BD1164B164E1C6844F002051D60356864
:1012100025F03F0343F001033360124E336823F09F
:10122000FF031A431143014331600F4B1B681B0638
:10123000FBD50E4B0E4A1B6812680E2803F0FC0308
:1012400043EA022308BF064A9BB204BF1560034A63
:101250009BB208BF146018B270BD00BF34000144D7
:10126000F486084008700D4000700D400C700D4071
:1012700010700D4010B58F20064CFFF729FF8F200E
:10128000FFF71AFF206818B101F038FA0023236035
:1012900010BD00BFEC020020084B93F90020002A8B
:1012A00009DB074AED2111601160E32111601A7812
:1012B00062F07F021A700120704700BF3B190020C6
:1012C00038880840094B1B689B07FBD4084BED226C
:1012D0001A601A60074A12680AB1EF221A60064AB9
:1012E0000120137803F07F03137070474C86084089
:1012F000388808402C8608403B19002038B5A0F1FA
:101300000B04E3B20F2B054613D80B4B1B6813F0ED
:101310003F0302D0FFF7D6FF012304EB8404074A02
:101320000B3414600BB1FFF7B7FF054BE8B21D702B
:1013300000E0FF2040B238BD488608403C860840A7
:10134000FC01002010B50B4B1B68990603D1FFF779
:10135000A3FF012300E00023074A1268D207FBD550
:10136000064A1468C4F300140BB1FFF7ABFF204624
:1013700010BD00BF48860840648608404C8608407F
:10138000044B186800F02200A0F120035842584195
:10139000704700BF4C860840024B186800F04000C0
:1013A000704700BF4C86084038B50C4600296CD009
:1013B0000D286CD8DFE800F0070D181A216B3142B8
:1013C000476B5E606267334B1B68003318BF0123B5
:1013D00056E0314B05221B6803F07F030B3B93FB68
:1013E000F2F30B33DBB24BE02C4B00E02C4B1A68D2
:1013F000043B1B6843EA022342E02A4B00200860BA
:101400001A68243302F001020A601B6813F02003FB
:1014100037D042F002020A6038BD234B1A6800231D
:10142000D2B2224901EBC3000079904202D851F8B0
:10143000333025E001330E2BF3D11FE01C4B1B682A
:101440005BB2493B1CE01B4B1B68990603D1FFF7BD
:1014500023FF012300E00023174A1268D207FBD5BF
:10146000164A1568493DEDB20BB1FFF72BFF6DB27F
:10147000256006E00B2303E01A2301E06FF0170359
:101480002360002038BD0723FAE7022038BD012081
:1014900038BD00BF2C8608403C860840CC850840FB
:1014A000D48508400086084040860840EC9F200014
:1014B0005886084048860840648608406086084090
:1014C00038B505460C46134B1B689B07FBD4124BE3
:1014D00093F90030002B01DBFFF7DEFE0F4BEE220D
:1014E0001A60691E1A60A21C43F8102C21440220C5
:1014F00000F03EFA013C0A4924012143022000F099
:1015000049FA022000F050FA022000F065FA0020AB
:1015100038BD00BF4C8608403B1900203888084081
:1015200002C001C0F8B51F4B93F90030002B0DDB52
:10153000FFF710FC0446FFF7AFFEFFF70BFC6FF060
:1015400009031B1BC342F8D4012600E00026FFF765
:10155000F9FE18B3144C236899061FD4134DE923E0
:101560002B60042723689A0707D4013F17F0FF0771
:1015700003D00620FFF7E0FBF4E723689B0704D4C1
:10158000EE232B6001242B6004E0206810F00200A1
:10159000FBD1044626B1FFF795FE01E00220F8BD1D
:1015A0002046F8BD3B1900204C860840388808408A
:1015B000044B1A6810B142F0010201E022F001026E
:1015C0001A6070470086084038B50C46072855D881
:1015D000DFE800F0040F1B1F26543B4F012903D105
:1015E000FFF75AFE002038BD002949D1FFF76AFEF7
:1015F000F8E7A1F10B030F2B42D8C8B2FFF77EFE2C
:10160000431C0CBF0320002038BD8CB2E2B21D4B3E
:1016100002E08CB21C4BE2B2240A1A605C60E1E783
:1016200031F003052CD101F00100FFF7C1FF174B8A
:1016300014F002001A681BBF284642F0200222F074
:1016400020021A6008BF1A6038BD01F118031F2B71
:1016500016D80D230E49DA0051F83300844204DC19
:101660008B181A790B4B1A60BCE713F1FF33F1D2D8
:10167000B8E7CCB2084B49341C60B3E7012038BD51
:10168000022038BDC8850840D0850840248608401F
:10169000EC9F2000408608405886084009280DD15C
:1016A000082A0DD161B1074B013953F8042D01F817
:1016B000012F054A9342F8D100207047012070475E
:1016C00002207047C8850840A885084009280DD128
:1016D000082A0DD161B1074B083111F8012D43F8EB
:1016E000042F054A9342F8D100207047012070472B
:1016F00002207047A4850840C485084070B52B4E71
:10170000336813F0400308D0294D2B68DCB21B0668
:1017100005D5284BED221A601A60002070BD042CFC
:10172000F7D9023C8C42F4DCE4B2032C1BD0011943
:101730000139032000F024F9631E1F491B01032017
:10174000194300F027F9032000F02EF9032000F0E0
:1017500043F9032000F04CF90028FAD129682D68DC
:101760002806D6D506E02B6803702B6843702B68DB
:101770008370F3E7493949B289B2042005F04CFA85
:10178000032005F07F0105F047FA33685A060BD5B0
:10179000064B1B681B0603D5084800F0AFFF03E0AB
:1017A000044BED221A601A60204670BD4C8608403A
:1017B000288808403888084002C0010C84000020B6
:1017C000F8B52B4E357815F001054ED1294B012483
:1017D0001C605C609C60A3F59323A3F51473F8224E
:1017E0001A600922C3F89021152270331A6003F59C
:1017F0009B230B2203F59E731A60A3F59B23A3F58D
:10180000F07340221A601A687F2742F020021A60A3
:10181000FF2243F81C5CDF62DA61174B1878FFF790
:101820006DFD164A8D20136843F004031360FFF723
:1018300037FC134B8E201F60FFF732FC022000F0B4
:10184000BFF81049022000F09BF8032000F0B8F820
:1018500003200C4900F08CF80B48294600F036FFB5
:101860003378204623433370F8BD0020F8BD00BF15
:101870003B190020A8200D40FC0100208C86084068
:1018800094860840288808408400002038B50388E2
:101890000446E3B140F2B932934203D000230380FF
:1018A000032038BD822915D105F054F905F0F0F870
:1018B0008021FFF723FF002805DD80B205F0E2F864
:1018C0000C4B1B6998470C4B1A78520604D440F213
:1018D000B9332380012038BD00221A70074B1D68E0
:1018E000FFF7F0FCFFF76CFFAB06F0D0FFF7D4FC7E
:1018F000EDE700BF98A020003B1900204886084073
:1019000008B5034800F0FAFE024B00221A6008BD39
:101910008400002034880840064B07481A68042ACF
:101920001FBF06490A7842F040020A7000221A607E
:1019300000F0E4BE2C880840840000203B19002001
:1019400010B5094C00212046402207F063F9074BEF
:1019500001221A602E205C60FFF7A2FBBDE8104058
:101960002F20FFF79DBB00BF0000002004F00F40B8
:1019700003289EBF014B0001195070470000002052
:1019800003289EBF024B03EB00104160704700BF6D
:101990000000002003289EBF024B03EB0010816073
:1019A000704700BF0000002003289FBF03490123A8
:1019B0000A6883409CBF13430B60704728F00F40B8
:1019C00003289FBF034901230A6883409CBF134338
:1019D0000B60704720F00F4003289FBF034901238D
:1019E0000A6883409CBF13430B60704714F00F409C
:1019F00003289FBF044B03EB0010806800F0070032
:101A000088BF0020704700BF00000020024B4FF04D
:101A1000FF321A60704700BF04F50F40014B0122EE
:101A20001A6070474CF00F4030B5184B1A78431EBF
:101A30003AB9174A1278122A03D1164A12784B2A59
:101A400003D001F52011273117E04A0802F12814CC
:101A5000B4F1281F04D014F8015D03F8015FF7E723
:101A600001F5201127310023934205DA11F80159BD
:101A70008418E5540133F7E730BD074A914204D09A
:101A800011F8012903F8012FF7E730BD2B002800DA
:101A90002A00280029002800270028000EB43FB59E
:101AA000094B07AA52F8041B0190049304A801AB48
:101AB0000392059300F024F8019B00221A7006B0EF
:101AC0005DF804EB03B07047838E200070B50546C7
:101AD0000C46102C07D92B686868084910229847D3
:101AE00050B9103CF5E734B12B6868682246BDE870
:101AF000704002491847204670BD00BFDBA120009E
:101B00002DE9F04F80468FB0069107920026069B84
:101B10001B78002B00F05F83069B1C4613F8012BFB
:101B20001AB9069B9C4203D10FE0252AF5D1F8E7AC
:101B3000069BD8F80400E51A0699D8F800302A4622
:101B40009847002840F02A832E442378002B00F089
:101B500042836378611C002B00F03D8300240A4619
:101B600011F8013B2B2B11D006D8202B11D0232BA1
:101B700012D144F00804F2E72D2B04D0302B0BD106
:101B800044F01004EBE744F00104E8E744F00604F5
:101B9000E5E744F00204E2E7A3F1310108290DD89A
:101BA000134600251A4613F8011BA1F1300009283D
:101BB00011D80A2202FB0515303DF3E72A2B09D183
:101BC000079B01321D68191D002D0791B8BF44F015
:101BD000010400E0002513782E2B1CD15178531CF2
:101BE000A1F1300009280ED8194600270A780B46C3
:101BF000A2F13000092801F101010FD80A2303FBEB
:101C00000727303FF2E72A2906D1931C079A111DB6
:101C10000791176802E013464FF0FF371A786C2AD5
:101C200009D15A786C2A02D144F080040AE00133C9
:101C300044F060040BE0682A09D15A78682A03D17D
:101C400044F02004023302E0013344F040041A78E7
:101C5000642A3CD01FD8462A48D00DD8252A5AD00D
:101C600003D8002A00F0B78257E0412A4AD0452A1B
:101C700053D144F4424450E0582A31D004D8472A82
:101C80004BD144F4A13448E0612A38D0632A44D1CE
:101C900044F4A06441E06E2A3AD007D8662A22D0E4
:101CA00027D3672A28D0692A11D036E0732A2CD08E
:101CB00006D86F2A11D0702A2FD144F440742CE03A
:101CC000752A07D0782A28D144F4C85425E044F472
:101CD000245422E044F410641FE044F488541CE0CF
:101CE00044F4B24419E044F4007416E044F484442B
:101CF00013E044F4024410E044F481340DE044F471
:101D0000C1340AE044F4E13407E044F4806404E0C0
:101D100044F4E06401E044F4C0640133069304F445
:101D2000E063B3F5806F00F0AA8116D8B3F5807F29
:101D30002BD0B3F5407F7FF4EAAE079BA04914F4A3
:101D4000804F03F104029F4818BF08460DF133018C
:101D500007920F461A680023C5E1B3F5C06F08D09B
:101D6000B3F5E06F00F03182B3F5A06F7FF4CFAE32
:101D700000E2D8F80030D8F80400934901229847CF
:101D8000002840F00B820136C1E6002FACBF24F0E2
:101D90001004012714F40053039304F0E00337D038
:101DA000402B17D008D8DBB1202B2AD1079B1A1D56
:101DB000079293F9002017E0602B11D0802B20D1DF
:101DC000079B073323F0070303F108020792D3E9C7
:101DD00000230AE0079B1A1D0792B3F9002003E0D5
:101DE000079B1A1D07921A68D317002A73F1000186
:101DF00009DA524263EB4303CDE900234FF00109B6
:101E000033E000220023CDE900234FF000092CE04D
:101E1000402B16D007D8CBB1202B20D1079B1A1D01
:101E200007921A78EEE7602B10D0802B17D1079B12
:101E3000073323F0070303F108020792D3E90023D5
:101E4000E1E7079B1A1D07921A88DBE7079B002131
:101E50001A1D07921B681846CDE90001D5E700223C
:101E60000023CDE900234FF0000904F4C053B3F57B
:101E7000805F0CD0B3F5C05F33D0B3F5006F4FD1A6
:101E8000DDE900230DF1360ACDE9042304E0DDE9A4
:101E900000230DF1360A15E0DDE9042313433AD09F
:101EA000DDE904010A22002306F0D0FADDE904018D
:101EB00030320AF8012D00230A2206F0C7FACDE9D4
:101EC0000401E9E752EA030125D002F007013031AD
:101ED0000AF8011DD10841EA4371D8080A460346B1
:101EE000F0E7384B14F4804F0DF1360A344908BF3F
:101EF0001946DDE9002352EA03000CD002F00F007E
:101F0000085C4FEA131E0AF8010D100940EA03703D
:101F100002467346EFE70DF1360BCAEB0B0B03E0FD
:101F20000DF1360A4FF0000B41F6080241F20803AA
:101F30005F4502EA04028CBFCBEB070700279A42F9
:101F400002D1002F08BF012741F608018A4207EBA2
:101F50000B030DD1DDE9000150EA010208D01B4955
:101F600014F4804F1A4A4FF0020C18BF0A4602E0E0
:101F70004FF0000C62460399A1B1B9F1000F0AD1EC
:101F800004F0060102290AD00629124904BF4FF0C5
:101F9000010C0A4606E04FF0010C0F4A02E00F4A1E
:101FA0004FF0010C63449D428CBFED1A002514F0E4
:101FB000010922D1E30613D52F444D461DE000BF91
:101FC000A4A12000B5A12000D9A12000C9A1200012
:101FD000C6A12000D0A12000CCA12000CEA12000CD
:101FE00040462946CDF80CC00092FFF76FFD009ADD
:101FF000DDF80CC0002840F0D180BCF1000F0DD0FE
:102000001146D8F800306246D8F80400CDF800C078
:102010009847DDF800C0002840F0C0803C465E4490
:10202000102CD8F800300DD9D8F804006C491022D3
:10203000CDF800C09847002840F0B080103CDDF893
:1020400000C0EDE75CB1D8F8040065492246CDF840
:1020500000C09847DDF800C0002840F09F80D8F805
:102060000030D8F8040051465A4666449847002884
:1020700040F094803E44B9F1000F79D073E0079BA3
:10208000D3F800A01A1D0792BAF1000F09D05346E9
:10209000994699F800200133002AF9D1CAEB0909C1
:1020A00003E0DFF840A14FF00609002F02DBB9453D
:1020B00028BFB9464D458CBFC9EB0505002514F076
:1020C000010405D140462946FFF700FD002865D1EF
:1020D000D8F80030D8F8040051464A4698470028FE
:1020E0005CD14E443EE052EA030E0ED002F00F0ED9
:1020F00010F80EE04FEA131C01F801ED4FEA121E32
:102100004EEA037E72466346EDE70B467F1A01BF37
:102110003022012701F1FF3301F8012C0337782227
:10212000BD4203F8012C4FF0300203F8022C88BFA7
:10213000ED1B4FF0230298BF002514F00104A3F11A
:10214000030903F8032C04D140462946FFF7BEFCDF
:1021500020BBD8F80030D8F8040049463A469847E2
:10216000E0B93E4424B140462946FFF7AFFCA8B988
:102170002E44CCE4079B012D03F104021B688CBFA5
:1021800005F1FF35002514F0010407928DF8203089
:1021900008D140462946FFF799FC10B14FF0FF30B7
:1021A0001AE02E44D8F80030D8F8040008A901221B
:1021B00098470028F2D16F1C2CB140462946FFF702
:1021C00085FC0028EAD13E44A1E4079B1A1D1B6848
:1021D00007921E609BE430460FB0BDE8F08F00BF51
:1021E00094A12000D2A12000F8B503880646154628
:1021F0002BB14A2B15D0002303800320F8BD1748CC
:1022000006F0A3FE04462CB1201DA16806F04FFE87
:102210002468F8E7124B01221A704A233380012008
:10222000F8BD8829FBD10D4806F08FFE0446002C2E
:10223000F3D0231D9D420ED10848214606F08FFEA3
:10224000084B62691F681A60A2691D460AB1E069FD
:1022500090472F60E1E72468E9E700BFF002002023
:102260003C1900200003002010B5064B002406484E
:102270001C7006F067FE2146BDE81040034800F0E0
:1022800025BA00BF3C190020F00200209400002075
:1022900070B504460A4DE3610A4B2E681B786661EF
:1022A000A26133B1084B201D2B6006F000FE2E60AA
:1022B00000E0A1602146BDE87040044806F063BE1E
:1022C000000300203C19002094000020F0020020B0
:1022D00070B5094B05461B783BB1084C084B266886
:1022E0000430236006F0ECFD26602946BDE870400E
:1022F000044806F048BE00BF3C190020000300203F
:1023000094000020F002002010B5084B04461B7812
:102310001BB1043000F0A8F801E0C360036121465E
:10232000BDE81040024806F01ABE00BF3C1900206C
:10233000F002002010B50E4C236813B90D4A13604B
:1023400010BDFEF7E5FC216891E80C001A44131A51
:102350008A6842B192E812002144091A8B4228BFD0
:102360000B469268F5E71844024B186010BD00BF99
:10237000F4020020F8020020014800F0BFB900BFBD
:10238000A4000020F8B5038805462BB1592B09D0CD
:10239000002303800320F8BD1E4A136059232B80BD
:1023A0000120F8BD872920D08229F7D1194F0026B6
:1023B0003C68002CF2D0204606F0B6FD90B1E068F3
:1023C0008821224600F056F950B9E060A3680EB1AA
:1023D000B36000E03B600023A360FFF7ABFFE5E7DD
:1023E000FFF7CAFF2646A468E3E70A490B680BB962
:1023F0000B60D3E7D868904201D19B68F7E70B6088
:1024000099680029CAD0C86890420ABF89680B46FB
:102410009960F5E7F402002010B50446FFF7ACFF21
:10242000E3680B4A4BB113683BB1A34203D1094A9D
:102430001268DA6007E09B68F6E7064B1B68E3600A
:1024400013681460A360BDE81040FFF773BF00BFBE
:10245000F402002000030020024B1868003018BF6F
:1024600001207047F402002010B50B4A044613689F
:10247000984206D18368136008E09A68A24203D0AC
:102480001346002BF9D103E0A2689A60FFF752FFD0
:102490000023A360E36010BDF402002038B5836818
:1024A00004460D469BB10A4804600220A07304F163
:1024B0000C0098470238012801D9832D05D1204608
:1024C0002146BDE8384000F005B80123A37338BDAC
:1024D000000300202DE9F8431C4A0446156889468C
:1024E0002B4690461A4E3768A34204D00BB11B68A6
:1024F000FAE7BDE8F88334B3A37BABB10023A37341
:1025000045B1AC4204D028468721224606F0F2FCB1
:102510002D68F5E7A3683BB14C4505D0346004F164
:102520000C0083212A469847D8F800309C4203D1FA
:102530002268064B05E0134623B11A68A242FAD17D
:1025400022681A603760BDE8F88300BF08030020E6
:102550000003002010B5094B00221A70084B1C68BC
:102560005CB1E37B3BB101230022A373E2732046FD
:102570008221FFF793FF2468F2E710BD4119002084
:1025800008030020024B1878421C1A70704700BFE5
:1025900042190020064B8A221A70064A0023137043
:1025A000054A1370054A1360054A1360704700BF5F
:1025B000421900203E190020401900200803002085
:1025C000000300202DE9F041214E33780BB1FFF7D5
:1025D000C1FF204D2C78002C34D0DFF88CE00C2289
:1025E0009EF800301C495A4388181C4F895CDFF85C
:1025F0007C804268DFF878C08068013303F01F03F5
:10260000013C3970C8F80020CCF800008EF800308A
:102610002C7088B9124C134B1B68236023688BB154
:1026200033780BB1FFF796FF20683978D8F800208F
:1026300006F060FC2368EFE7812904BF0123837360
:1026400006F058FC337828781844BDE8F08100BFC4
:1026500041190020401900200C0300203F190020E0
:1026600004030020080300203E190020FC02002083
:102670008C040020F0B50C4E3478202C11D00B4B7C
:102680000B4D1B780B4F234403F01F032B700C25BD
:102690006B430134FD18A860F9546A60347000205F
:1026A000F0BD0120F0BD00BF401900203E19002000
:1026B0003D1900200C03002038B5034C256806F0B6
:1026C00019FC256038BD00BF0003002010B50A4684
:1026D00009490C68234683420DD00BB11B68FAE709
:1026E00048B1046008600121817383818121BDE8C4
:1026F0001040FFF7E1BF10BD0803002038B1837B15
:10270000013B012B9FBF024A0123C3731370704723
:102710004119002010B5084C206858B100232360EF
:10272000816843689847236823B1BDE81040186862
:10273000FEF726BB10BD00BF9004002038B5058809
:102740000446672D09D0792D2ED0002D32D1FFF708
:1027500019FF1B4B18701B4B1D601B4806F050FCEB
:10276000431C01D167231DE00A28164B07D01A68C5
:102770007E2AF2DC511C1960144B9854EDE719685D
:1027800000254A1C1A60114A0D4B555428461978E9
:10279000FFF770FF0E4B852118682A46FFF76AFF86
:1027A00020B97923238009E0852907D1054B002230
:1027B0001A60D2E700230380032038BD012038BD12
:1027C000982600209C04002094040020C4190020B6
:1027D000000300200D2810B5014615D00B4C2378BE
:1027E0002BB90B4806F0F8FB48B9012306E00A288C
:1027F00005D1074806F0F0FB08B100232370054817
:10280000FFF77CFF012010BD002010BDC319002080
:1028100094040020B400002008B505480549802232
:1028200006F0D3FBBDE8084003480021FFF74EBF88
:102830009404002043190020B4000020054A1368C6
:1028400043F004031360044B1B68906943EA0020C3
:1028500080B2704700700D4014700D40174A136825
:1028600023F00C031360164B01221A601A68012A28
:10287000FCD1144B08221A60E322C3F8142203F59A
:1028800005731946104B1B68DB07FBD5102000238E
:102890000E4A0138126802F0010243EA02034FEACD
:1028A00043039BB2F4D1002BF0D0094A180A03F07D
:1028B000FE0310601360EF230B60704700700D4043
:1028C000A8200D4024860840648608409C86084065
:1028D00014700D4037B5124B124D1C782B796A7964
:1028E000C4EB032313449BB2ADF80630BDF80630A9
:1028F00005F108011844202280B206F091FBBDF8D2
:10290000062004F12801294492B206F089FB10B197
:1029100040BA80B201E04FF6FF7003B030BD00BF97
:10292000441A0020601B002028492DE9F041884608
:102930000D78274E2835AB195C782648E40007341B
:1029400002239C423DDBE9187218715C204F01297B
:1029500032D002D3632902D013E001332FE0037099
:1029600018461C4C02F05CFFD8B998F80030227869
:10297000283313443B445B78134402332370BDE88F
:10298000F08101F0C001802905D0C02905D040297F
:1029900012D1037005E0037006E03A7E0370FF2A4F
:1029A00002D10120BDE8F08104200221EA1801F0E3
:1029B0005FFE0220BDE8F081527802321344DBB2A0
:1029C000BFE703700020BDE8F08100BF441A00207B
:1029D000601B00204A1A0020F0B5C578124A0D4449
:1029E000EDB2D57083780F0A3B44DBB29370447824
:1029F000BB4254700678167005D2601CC0B250708D
:102A000008B901361670C9B28D420CDA0133DBB257
:102A1000054993703BB94B780133DBB24B7013B966
:102A20000B7801330B70F0BD541B002010B5084C1F
:102A3000014620681430FFF7CFFF064A236811785B
:102A40001975517859759178D2789975DA7510BDE4
:102A500084200020541B002008B501F069F901F022
:102A6000EFFE02F0BBF900231149002221F81320E8
:102A70000133DBB2082BF7D10E49302303FB0211DF
:102A80000132D2B200230A2A81F82530F4D10A4A51
:102A90004FF480611180094A002102EB4312013397
:102AA000DBB20A2B1182F6D1054A137008BD00BFB4
:102AB000702200208820002096120020842200200E
:102AC0004B1A00202DE9F041134F3D7815B3DFF884
:102AD000508005F12703B8F80040A34205DB00232E
:102AE0003B70A8F80030BDE8F0810C4EA4F128023C
:102AF00005F12801641BA4B206F128003144521BE1
:102B000006F024F8A8F80040283C23123371002373
:102B100074713B70BDE8F081441A0020601B0020F6
:102B20004C1B00202DE9F041034626480288013263
:102B300092B2B2F5FA4F28BF4FF4805200240A2C0B
:102B40000AD0214D05EB44152E8A55BAADB2AE42DE
:102B500004F10104F3D1EAE7DFF874E00280002217
:102B60000A2A18D0184E55017419B4F81080571C51
:102B7000FFB2B8F1000F0CD18EF8002002886182FC
:102B800052BA228263B920461946102206F042F852
:102B900011E03A46E4E78EF800200020BDE8F0811D
:102BA000274603F1100E3A4618685968083303C2E5
:102BB00073451746F7D1054B35441B7920462B75D5
:102BC000BDE8F0819612002084220020CC23002052
:102BD0004B1A002030B50A490023082B0DD0094CB0
:102BE0005A1C34F81350D2B2854204D100220B7023
:102BF00024F8132030BD1346EFE70B7030BD00BF43
:102C00004B1A0020702200202DE9F74FA44E042813
:102C10003468B246A34F00F06182A349A34DA44A91
:102C200003280D601560894615D194F8253003F00E
:102C30000F03032B08D1A38B002B40F0A9869D4BDB
:102C400008221A7000F096BD022B40F0A1860023E6
:102C500005F8073CC8E3022878D1974A002313807F
:102C6000964A3B80D3780133DBB2D37063B9937853
:102C70000133DBB293703BB953780133DBB253704D
:102C800013B913780133137094F8253003F0FD0263
:102C9000052A0DD194F826300133DBB2782B84F865
:102CA000263040F07586002384F8253000F070BE91
:102CB000002B00F06D86A28B7E48002A3DD094F850
:102CC0002620511E84F82610002A40F0618694F8D0
:102CD0002720082A04D0591E01290AD8052A08D11C
:102CE000002384F825308023037002F053FA00F0AB
:102CF0004FBD042A9CBF0321914003F00F0394BFF2
:102D0000C9B230210132013B84F8261084F8272013
:102D1000072B00F23D86DFE813F0630308000A008A
:102D2000F4043B06F4043B06F404002259E30423B4
:102D3000037002F02FFA00F05BBD03F00F03032BCA
:102D400040F026860823037000F014BD052811D139
:102D50005B4B1B681B8A002B00F01A860C3D15602C
:102D6000554A0023138033603B80524B08220D608C
:102D70001A70B1E115F83C3C3C3D03F0F003602BC8
:102D800040F006862B796A791B02398898188842A8
:102D900000F3FE85283213443B802B7AFF2B00F092
:102DA000F785484BAA1D484C484E1A6000222270F5
:102DB0003270AA799846B2B901233370FFF7B4FD97
:102DC000012800F0E58503D3022800F0DD850AE044
:102DD000237803F128022A44C8F8002052780833E7
:102DE00003EBC20323703A4800F03EFE002840F097
:102DF000B580374800F0DEFE002840F0AF802A7E24
:102E0000334BFF2AA3F1180366D048F2FE00198B5A
:102E1000814261D0198981425ED079B9598969B9F5
:102E2000998959B9D98949B91B8A3BB9698A294B0A
:102E300021B9998A11B9DB8A002B4DD0298B254BFA
:102E400079B9598B69B9998B59B9D98B49B9198C09
:102E500039B9598C29B9998C19B9DB8CB3F5807FB4
:102E60003AD03B88B3F5A06F04D9022000214FF47B
:102E7000A06206E0EB79174C012B06D800210A4628
:102E8000032001F0F5FB00F07FBD02F017FD0028E4
:102E900040F07E85E379013BE37100F075BD00BF32
:102EA000842000204C1B0020802000209C1B002040
:102EB000501B00207420002080220020461A002091
:102EC0007C20002078200020441A0020451A002091
:102ED000781B0020601B002048F2FE0329899942DC
:102EE00040F05685298B9A4B81B9598B71B9998BD2
:102EF00061B9D98B51B9198C41B9598C31B9998CB7
:102F000021B9DB8CB3F5807F00F04285FF2A00F009
:102F10003F85904800F088FD0246002840F0388543
:102F200001200221ADE721D93A2B6ED026D93B2BC7
:102F300000F02E853C2B64D133788749980735D52E
:102F400058065ED443F040030B70FFF7EDFC0128F8
:102F500000F01E852DD3022800F01685D8F8002039
:102F6000DFF820B213782B2BDDD12EE0062B00F0FA
:102F70000B81112B66D0002B43D103E02C2B00F0EA
:102F800007853EE03378D9073BD4734A43F0010309
:102F90001370FFF7C9FC012800F0FA84DBD2237814
:102FA00003F128022A44CBF8002008E043F0020392
:102FB000CAE7237803F128022A44C8F8002052788F
:102FC000083303EBC2032370C8E7337803F004002F
:102FD00000F0FF01A8B9604A43F00403137022789F
:102FE00002F128032B44D87810B104202A3248E794
:102FF000CBF800305B78083202EBC302574B1A70F3
:10300000ACE704200121521B3BE706F025F84FF600
:10301000FF73984240F0BC8423782833E85C01F0C9
:1030200013FF23782833EA18E85C517801F0FEFAA0
:10303000012804BF00233B803B88002B00F0A884BC
:1030400000F0A2BCFFF73EFD3B88454E303B3B8085
:10305000EB8DC9F8006063B9B5F82A80B8F1000FAC
:1030600000F096843F4B404D2B60394BB3F828B0AD
:103070000BE005F0F7FF4FF6FF73984240F08884AD
:10308000EAE7238A3BB920342C602C68374B9C42FA
:10309000F7D300F07DBC9845F5D1638A0BB19B4511
:1030A000F1D123682BB963681BB9A3680BB9E36836
:1030B00033B12F482146102205F0A0FC0028E2D1B0
:1030C0002C4A022111702C4A002316602B4ACAF8A0
:1030D0000030C9F80060138002F05CF8274B1A88B2
:1030E000002A00F0558402F13003194C9BB23B805A
:1030F000283B191263711C4B08321B6852BA2171AC
:10310000197DA2850022E2851A8AE17122855A8AF8
:1031100011216285A17104F118050FCB85E80F001C
:1031200004F10800294600F0A5FD154B04F13C020E
:103130001A6005F097FFC04380B208B1E08502E055
:103140004FF6FF73E38502F0CFFC00F017BC00BF21
:10315000601B0020781B0020451A0020441A002024
:10316000901B0020842200207C200020C42300200B
:10317000681B002074200020501B002080220020AB
:103180008020002078200020FFF79CFC05F067FFDE
:103190004FF6FF73984240F0FB83B5F82AB0BBF1BD
:1031A000000F00F0F583BF4B1B8D002B00F0F08368
:1031B000BD4E344696F82580B8F1000F0FD0328A04
:1031C0005A450CD1728A9A4209D1B8483146102228
:1031D000019305F013FC019B002800F01B81B44A09
:1031E00030369642E6D195F8352002F03F02022AA9
:1031F00013D1B049B04E8846A1F800B00022082A89
:103200000AD0AE4931F8121001328B45D2B2F6D154
:1032100000223270944657E0327095F83520A14B69
:10322000510700F1B583142283F835203C223A80FF
:10323000502283F8342093F8332093F8314093F8E8
:103240002F0083F82F2093F8322093F82E109A4EF7
:1032500083F82E2093F82D2083F82D4093F82C40EE
:103260000130347093F83060C0B283F8321083F8C4
:10327000312083F82C6083F8304083F8330060B944
:103280000131C9B283F8321039B90132D2B283F8B0
:10329000312012B9621C83F830202B8D854A834C73
:1032A00013806A8D6B852A8504F1100594E80F0060
:1032B00085E80F002046294600F0DCFC49E3BEF11A
:1032C000070F10D00132D2B20A2A19D0302101FBE7
:1032D000024101F1200090F805E0BEF1000FEED1AF
:1032E00032700C4611E0BCF1000F04D080799CF8DC
:1032F00026108842E6D94FF0300C0CFB024CE1E777
:1033000064463270002C00F0438303226382674BD3
:1033100084F8262084F82420042284F823200FCB6C
:1033200084E80F00664B01201A784FF000092276DE
:103330005A7884F8250062769A78DB78A276E3766C
:1033400095F82F30A083E37595F82E30CAF8004029
:10335000A37595F82D3084F82290637595F82C307C
:1033600084F82790A4F810B02375FFF75FFB95F859
:10337000343003F0F002502A32D9524A1B09053B7F
:10338000980096464B461178834226DAEA1892F85E
:103390003C1011B3012901D101331CE0022915D1E0
:1033A00092F83DC0BCF1040F10D18EF800103370BC
:1033B00092F83E1092F83F3043EA0123402BA8F8E0
:1033C000003028BF4023E383238409E0EA1892F801
:1033D0003D2012B11344DBB2D6E78EF800103370F3
:1033E0001022304B83F835202E4B93F8352042F0D5
:1033F000020283F83520022283F83C20042283F85D
:103400003D20002283F83E20402283F83F203A806E
:10341000602262E295F835302B4A03F0040134460D
:10342000CAF80060107001F0FF0B21B1202386F86C
:103430002500137000E21B4A08F00F0892F83420B0
:10344000B8F1020F4FEA12124FEA82011A4A1170C4
:103450003A88A2F12802A2EB010292B23A8003D18B
:1034600003F03F01122905E0B8F1010F03D103F089
:103470003F0102292AD00AB99A0727D0A98DB28A1A
:10348000914204D1074AD18DF28A91421ED0980709
:1034900040F11C82B8F1010FA2D0B8F1020F40F048
:1034A0001582A1E7601B002088200020681B0020F7
:1034B00068220020941200204B1A00207022002065
:1034C000461A00204C1A002074200020D90652D53C
:1034D000B18B00294FD006F11800FFF77DFAB44BED
:1034E00095F830101878B34A884244D192F83110D8
:1034F00093F801C08C453ED192F832E0997871453D
:1035000039D192F83320DB78934234D1F37696F8B0
:103510002730307686F819C0B1761BBB96F8243078
:1035200096F8261096F82200591AA1EBD001C9B2DC
:103530005FFA81FE1EF0800F96F82330084418BF12
:103540004942A3EB930318BF5FFA81FE03EB0E021F
:10355000C0B2D3B286F8233003EBD00386F8220042
:1035600086F82430944B01221A7096F8243086F89D
:1035700026300023B38396F82510DFF83C8201F053
:103580000F03013B072B00F20382DFE813F0080072
:103590002500950058017A0194019F014A0198F88D
:1035A0000020854BD2070FD5032286F825203888C6
:1035B00040221A700022B283002800F0D8804222F4
:1035C0001A70FFF733FAD2E095F8353003F03F0375
:1035D000022B40F0DD8103E798F80030DB0760D56F
:1035E00095F8353003F03F03122B5AD1714B93F805
:1035F000343003F0F002502A38D9704A1B0996463D
:10360000053B11786E489B009B452BDA05EB0B02BE
:1036100092F83C1031B3012902D10BF1010B1EE0ED
:10362000022916D192F83DC0BCF1040F11D192F8D5
:103630003F308EF8001092F83E10624A43EA0123B0
:10364000402B138028BF402380F800B0F3833384DD
:103650000CE005EB0B0292F83D201AB193445FFA9F
:103660008BFBD1E78EF8001080F800B0032386F8BA
:10367000253095F82C300120337595F82D30737571
:1036800095F82E30B37595F82F30F375FFF7CEF916
:10369000494A422313704C4A0023B3833B80138072
:1036A00068E0202388F8003001F074FDDAF800307B
:1036B000002283F82520B0E595F83530D80725D5C8
:1036C000CA0623D4B38B002B40F0628138880130C6
:1036D00080B2FFF7ABF998F8003043F0100288F899
:1036E00000203A881AB1344A43F01203137001F0F3
:1036F00051FD0123B383082386F82530002386F883
:10370000273011222B4B83F83520E2E098060DD5A7
:1037100095F83A2095F83B3043EA0223D9F8002087
:103720001A44C9F800203A88D31A3B80388848B137
:10373000CA0607D498F8003043F0020388F8003036
:10374000FFF774F995F8362095F83730318C03EB94
:1037500002239BB21B4A8B42138000D803B911800D
:103760001388F38398F800309B0700F01181164B03
:1037700000221A8001F00EFD0F4B1A78124B02F056
:10378000200000F0FF0128B100221A8084F82520D3
:103790001422B7E702F0100000F0FF05B0B1198065
:1037A0000123A383042384F8253084F82710A8E795
:1037B000541B0020601B0020742000204C1A0020A5
:1037C0004B1A00209412002080220020198861B139
:1037D000D60748BFA583A28B32B9E28B914288BF3E
:1037E0001A801B88A38300E01A80002384F8273006
:1037F0006D4B1B68C9F800306C4B1B882BB1A38B39
:103800001BB13C333B80182207E0694B1B789D07B6
:1038100040F1BE803C233B801022664B83F835206C
:1038200059E098F80030DC0740F1B280002386F8B8
:1038300025305F4B10221A7001F0ACFCA8E03888EC
:1038400008B1FFF7F3F895F8353013F001030FD006
:1038500098F80030D80745BF072386F8253006239F
:10386000002346BF86F82630B38386F8253016E05D
:1038700098F80020D1071BD5052286F82520B383B0
:1038800086E0388808B1FFF7D1F895F83530DA07C7
:103890000ED5072386F82530002386F82630012030
:1038A000FFF7C4F8102388F8003001F073FC0DE036
:1038B0003B885BB96CE098F80030DB0768D50723DC
:1038C00086F82530002386F8263061E0102385F83D
:1038D00035303C233B80374B502283F83420237D06
:1038E000344D85F83030637D05F1180685F83130A8
:1038F000A37D85F83230E37D85F83330237E85F86B
:103900002C30637E85F82D30A37E85F82E30E37E43
:1039100085F82F30238A2B85638A6B8594E80F0006
:1039200086E80F0005F10800314600F0A3F994F88D
:10393000253003F0100303F0FF022BB1002385F8BC
:10394000373085F8363004E0402385F8362085F896
:103950003730184C0623A371174B1B79E3713B8852
:10396000283B1A1263710023227184F83B3084F8DB
:103970003A30238705F073FBC04320870D4B60224C
:103980001A7000225A705A80094B00221A7007E000
:103990000A4A002313700A4A3B801370044A1370CA
:1039A00003B0BDE8F08F00BF501B00208022002034
:1039B00074200020601B0020CC230020441A00202B
:1039C000451A00202DE9F3410446154D00910E469D
:1039D00090461F460195234612480321202205F0F8
:1039E0004EFB01282B4616D12A6804F110011070F5
:1039F00020462A68023250F8044B884242F8044BB1
:103A0000F9D11868089B86744361099B80F813807C
:103A10000777836100E0002002B0BDE8F08100BFBD
:103A2000A4040020C824002070B506460B4D0C4BA2
:103A30002B602C680B4B9C420BD2237833B1A27CB9
:103A4000A01C3146D20804F0D9FF20B120342C60EC
:103A5000EFE7002070BD012070BD00BFA40400206E
:103A6000C82400202825002013B5084C80220346D6
:103A70000092019406480321202205F000FB08B9BA
:103A8000206800E0002002B010BD00BFA8040020A4
:103A9000E423002010B50C4A0C4B136013680C494A
:103AA0008B420DD2197849B1411C02D0997C8142D8
:103AB00004D148F2FE015C888C4202D02033ECE74E
:103AC0000023184610BD00BFA8040020E4230020F6
:103AD0004424002037B504460F4D80230093019500
:103AE00023460E480521122205F0C9FA01282B466B
:103AF0000ED12A6804F11001107020462A680232A3
:103B000050F8044B884242F8044BF9D1186800E0A1
:103B1000002003B030BD00BFA004002068240020B6
:103B2000F7B50546204C802300930E4617460194B6
:103B30001E48032120222B4605F0A1FA012830D18E
:103B40002A46236805F1100118702368023352F8E1
:103B5000040B8A4243F8040BF9D12068C77416B9E4
:103B60000123037505E0002303753146183006F084
:103B700066F823680E480121997402234370FF22DE
:103B80000023027043808380C38003818372C172EB
:103B900002736B7B4373EB89C381FFF79BFF206844
:103BA00000E0002003B0F0BDA8040020E4230020C2
:103BB0009812002013B5084C80220346009201940D
:103BC00006480521122205F05AFA08B9206800E0DB
:103BD000002002B010BD00BFA00400206824002017
:103BE00038B50546C8B10D48022200244270FF23B3
:103BF0000122C27244808480C48004818472037371
:103C00000370EB7B43732B8AC381FFF7D3FF044A16
:103C1000106008B105F057FA2C7038BD98120020DA
:103C2000A004002010B50F4B0F4C236020680F4BF1
:103C300098420ED203784BB1037D3BB9183003F0A4
:103C400013FB18B1084B1868FFF7CAFF236820332D
:103C5000EBE700F0E1FB00F067F9BDE81040044835
:103C600005F02EB9E4230020A804002044240020FD
:103C7000282500202DE9F84348F2FE030A8805466E
:103C80009A42884621D00B78FF2B1ED01B4B002474
:103C9000A1461F461A4A1A603E681A4A964218D22E
:103CA00033787BB1B37C012B0CD148F2FE037288D0
:103CB0009A4207D04046B11C05F012FA484524BF8D
:103CC0003446814620363E60E6E70120FFF7E2FEFB
:103CD00004464CB92C806C80AC80EC802C816C81CB
:103CE000AC81EC81BDE8F883A31C123453F8042B9B
:103CF000A34245F8042BF9D1BDE8F883A8040020BD
:103D0000E42300204424002010B5FEF797FD04466C
:103D1000FEF794FD054B24029A68A4B22044B0FB40
:103D2000F2F302FB130000EB520010BDCC23002085
:103D300073B52F4C00F07CF800F0A0F90021602250
:103D40002C4804F067FF00212046F82204F062FFAF
:103D5000294B20221A70294B18221A704FF4A063A5
:103D60002360274B40262671A360FFF7CDFF42F268
:103D70001073236148F2FE03314640F2FF2600250E
:103D8000E06025751F4C2A46238065802B46A58060
:103D9000E580204600950195FFF714FE20461A495C
:103DA00005F095F9294601222046FFF7B9FE4FF4A8
:103DB00080732046E38126806580A580E58025818B
:103DC0006581A581FFF786FE4FF4007320462680AB
:103DD0006580A580E58025816581A581E381FFF768
:103DE00079FE0A480C2102B0BDE8704005F05FB8CA
:103DF000CC230020C8240020C5240020C424002097
:103E0000C027090098120020581B002028250020F8
:103E100010B5044640B101F0B9FA044B2146BDE8A3
:103E20001040186802F094BD10BD00BFC40000200F
:103E3000024B0349186802F0CFBC00BFC400002049
:103E4000113E20002DE9F8439846154B05461868A9
:103E5000914602F0EFFC0446F0B1074605F110036D
:103E60003E4628686968083503C69D423746F7D143
:103E700004F11000002184F8219084F8228005F0DC
:103E8000DEFE04F11800002105F0D9FE002384F8BD
:103E90002030204601F07AFA2046BDE8F88300BFC2
:103EA000C4000020024B0146186805F088BE00BF20
:103EB000C400002070B50C4D0646286802F0A0FC36
:103EC000044666B9002070BD20463146102204F039
:103ED00095FD38B12146286805F041FE0446002CC6
:103EE000F2D1EFE7204670BDC4000020024B01462E
:103EF000186805F04BBE00BFC400002070B5054631
:103F000010200C4602F0A2FE0649064605F0F2FD1E
:103F100030B9304629462246BDE8704001F0FEB96E
:103F200070BD00BF4AA2200070B53F4D286802F066
:103F300067FC0446002876D094F82230042B6DD814
:103F4000DFE803F01D036C33410004F11006304636
:103F500003F08AF9002861D0204600F0FDF950B145
:103F6000032384F822303046052105F068FE002343
:103F700084F8203052E0022384F822304EE094F896
:103F80002030022B2BD804F11806304603F06CF9D0
:103F9000002843D0254B188800283FD194F82030C2
:103FA0000146013384F820302CE004F1100003F0C6
:103FB0005BF998B30423002184F8223084F82010A0
:103FC00004F1180028E094F82030022B0BD9204689
:103FD00000F0C2F918B1037F0BB900F09BF920463D
:103FE000FFF716FF1AE004F11806304603F03CF91B
:103FF000A0B10E4B188888B9214694F820300133BF
:1040000084F82030224600F037FE094B304619690B
:104010004FF47A73B1FBF3F105F011FE28682146E5
:1040200005F09DFD85E770BDC40000204C1B0020FD
:10403000CC2300202DE9F04105460D480F4690465F
:1040400004F083FF044688B1012D04D8094804F028
:10405000B2FF034601E0084B1B68284666683946F4
:104060004246B047204604F0ADFFEBE7BDE8F081E3
:10407000B8080020800600207C06002008B50A4809
:1040800005F0E4FD094804F05DFF0949094802F024
:10409000A3FB094805F0DAFD084804F053FFBDE82A
:1040A0000840074804F04EBFF4000020D40600206A
:1040B00039912000E4000020D80000208006002074
:1040C000B808002008B5034638B15968034805F020
:1040D00076FDBDE8084005F020B808BDE4000020EA
:1040E000014804F032BF00BFD40600202DE9F041A2
:1040F0008046FFF7F5FF0026044637469CB194F84A
:104100002450B5420AD3404604F10801EA0804F0FD
:1041100075FC18B9802D08D02E462746204605F09C
:1041200007F80446EAE73C4667B1084804F00DFF8B
:10413000844207D00548214604F011FF0348214678
:1041400004F030FF2046BDE8F08100BFD406002017
:1041500038B5044600283DD04368002B3AD01E48AD
:10416000214604F0FCFE6368586804F0EEFE054644
:1041700030B14368A34207D0284604F023FFF6E796
:1041800004F1080001F044F863682946586804F017
:10419000E6FE6368586804F0D8FE20B963680F48EB
:1041A000596802F0D5FB21460D4805F073FD2946FC
:1041B0000C4805F06FFD0C4A20461368013B136064
:1041C000FFF780FF04F108010246BDE838400320F4
:1041D000FFF730BF38BD00BFD4060020E400002048
:1041E000F4000020000100207C06002010B50446E9
:1041F00078B1406868B104F0A8FE20B14068FFF7CC
:10420000A7FF6068F7E72146BDE81040014802F0CB
:104210009FBB10BDE40000202DE9F0470746104683
:104220008946904604F07BFF824610B90020BDE825
:10423000F0873846FFF75AFF044660B1FFF742FFA8
:10424000014628B14046102204F0D8FB002854D083
:104250002046FFF77DFF2A4E33680A2B04D12948F8
:1042600004F075FEFFF774FF2748514605F08EFCF9
:10427000054658B92448514602F0DCFA05460028A4
:10428000D4D000236860036004F05CFE1F4805F092
:10429000EDFC04460028C9D01A48214604F082FEED
:1042A0001B4805F0E3FC824620B92146174805F07B
:1042B000F1FCBBE744606868514604F064FE336873
:1042C0006560013333603B4604F1080507F11006D1
:1042D0002A4618685968083303C2B3421546F7D115
:1042E00000210C2284F8249004F1180004F092FCC0
:1042F000022039464246FFF79DFE2046BDE8F08782
:104300007C060020D4060020E4000020F4000020F9
:104310000001002038B505460D4804F016FE04469D
:10432000A0B1AC420ED12146094804F018FE214646
:10433000084805F0AFFC211D01200A46BDE83840C1
:10434000FFF778BE204604F03DFEE8E738BD00BF29
:1043500080060020D800002038B50546084804F043
:10436000F4FD044648B1201D2946102204F046FB06
:1043700018B1204604F026FEF3E7204638BD00BF02
:1043800080060020F8B505460F46FFF7E5FF044616
:1043900040B9134805F06AFC0446F0B111482146C3
:1043A00004F000FE2B46261D05F1100E324618685B
:1043B0005968083303C273451646F7D137B104F183
:1043C0001400394605F03BFC002300E0012323776D
:1043D000002029462A46FFF72DFE2046F8BD00BFE3
:1043E000D80000208006002038B50A4804F0ADFD52
:1043F0000446002564B1251D2846FFF75BFD10B17A
:1044000090F8223023B9204604F0DCFD0446F1E7A1
:10441000284638BD8006002010B50A4804F095FDF6
:10442000044670B1237F43B904F1140002F01CFF6D
:1044300018B12046FFF76EFFEFE7204604F0C2FDFB
:10444000EEE710BD800600202DE9F043334C344DDB
:1044500085B004F108030FCB8DE80F002B786E4672
:10446000E779002B3DD001F00BFBDFF8BC908046D4
:1044700029783A2300B3814284F8283013D0B9F860
:104480000020521A024492B2A9F80020283A1312CE
:1044900062712C312C30C8EB020220442144043AD2
:1044A000237104F053FBB9F8003085F80080C8EBA5
:1044B0000308A9F8008014E0B9F80020A371521A8B
:1044C00092B2A2F1280318122C31A9F80020207111
:1044D000214404F12C002C3A637104F037FB85F879
:1044E0000080104804F031FD804690B1D8F804C037
:1044F000BCF1000F09D00C4B2A781B8838322C3BBA
:104500003046394622449BB2E047404604F05AFD0B
:10451000EAE7054B188005B0BDE8F083601B00207A
:10452000441A0020BC0800204C1B0020F8B5384B72
:10453000384C1B7904F11806E371237E04F1080559
:10454000FF2B08D195E80F0086E80F00284631467A
:10455000FFF790FB1BE02F46B6462F4A3B4603CBA6
:104560007345106051601F4602F10802F6D196E8CB
:104570000F0085E80F00284B284D03F110062A464E
:1045800018685968083303C2B3421546F7D1244D61
:104590002B787BB301F074FA2B7806463A22B0B13F
:1045A00083421C4F84F8282023D01E490A88D21A3F
:1045B000024492B20A80283A111239717A7103F1D9
:1045C0002C012C30921B38443944043A0FE0154931
:1045D000A2710A88D21A92B20A80A2F128010812A6
:1045E00020716171104803F12C0121442C3A04F030
:1045F000ADFA2E702B7881222833E518E25400237F
:104600006B706B8004F028FDC0436880F8BD00BF6C
:10461000CC230020601B0020A8120020781B002063
:10462000441A00204C1B00208C1B002038B5044687
:104630000B480D4604F089FC78B10379A34209D1F7
:104640004379AB4204D183683BB19847002038BD21
:10465000FF2BF8D004F0B6FCEEE7012038BD00BF18
:10466000C00800200146014804F08DBCC0080020AD
:104670002DE9F74F484E8146337888469246474C9D
:104680003BB12833E35C3A2B0AD1454B00221A8018
:104690007FE0A3793A2B03D194F92830002BF4DA88
:1046A00001F0EEF93F4D404A0746AC469346307064
:1046B00005F1100E2B4603CB7345106051601D466B
:1046C00002F10802F6D1364D04EB47002B8830305A
:1046D00030339BB2B3F5A06F88BF4FF4A0632B803B
:1046E0002A882E4BD21B1946303ACDF804C00093CD
:1046F00004F02CFA9DE808106022227000226270FB
:1047000062803A2217B183F8282000E09A71274A84
:10471000224B1279E271228972B95A8962B99A8957
:1047200052B9DA8942B91A8A32B95A8A22B99A8AAE
:1047300012B9DB8A002BA8D01D4B0FCB8CE80F00E1
:104740009BF80030FF2B05D1B9F1040F9DD1B8F1D2
:10475000020F9AD114491648FFF78CFA3778504661
:1047600007F12803E21804F8039082F8018004F0AE
:104770007CFC2B882C37283BE0511A12637133786C
:10478000227128331C440023638004F065FCC0437D
:10479000608003B0BDE8F08F441A0020601B002049
:1047A0004C1B0020781B0020A8120020CC230020E6
:1047B000681B00202DE9F0411E460F461B490546A7
:1047C0000C4660230B7000234B704B803A238B7197
:1047D000174B90461B7900F1100ECB71331D1A1246
:1047E0000A714B7101F1180213462868696808358F
:1047F00003C375451A46F7D10E482C3600F1100157
:10480000FFF738FA0C4B1B782833E518E7540023E0
:104810006B8085F8018004F01FFCC043074B688063
:104820001E80BDE8F04100F035BB00BF601B0020DA
:10483000CC230020681B0020441A00204C1B0020C1
:1048400008B50448FFF70EFFBDE808400248FFF72F
:1048500009BF00BF0C010020180100202DE9F74F0F
:10486000664C674AE1791378FF2903F12C0C0CEBB5
:1048700004091CF804700192DFF8A48140F0B580AF
:10488000234493F82930002B40F0AF8099F804308E
:10489000FF2B00F0AA8007F0400303F0FF061BB1D6
:1048A000237EFF2B00F0A1805649574D1423002290
:1048B000B8F800B00B702A600CEB030EDE4511DA7D
:1048C00004EB0E0A9AF8010010B92A600B708CE014
:1048D00014F80EE003EBC003DBB2BEF1020F08BF19
:1048E0005246E9E709F104000B702A60FFF7BCF8B3
:1048F000464B1860002878D1019B1878204430304E
:10490000FFF7D8FA424C2060FFF7CCFA25688346BF
:10491000A146002D69D03C4B1C6834B1A01C5946FF
:10492000082204F06BF8C0B200E0204695F822306F
:1049300027F07F0A5FFA8AFAEBB9002C55D054F8B9
:10494000022FCBF800206268CBF804207EB185F8F6
:104950002030304B0122D9684FF47A7385F8222039
:1049600005F11000B1FBF3F105F069F939E002231C
:1049700085F8223035E0BA0606D428B1012B34D1AF
:10498000022385F8223030E0ACB3224652F8023FD1
:10499000CBF800305368CBF804306EB1012385F8B2
:1049A00022301C4B05F11000D9684FF47A73B1FB2B
:1049B000F3F105F044F904E01CB110B1022385F8CD
:1049C0002230D9F8003093F8213053B1BAF1000FFA
:1049D00007D11148FFF7C0FC104A106008B1FFF77B
:1049E00099FCD9F8003083F821A00023A8F8003002
:1049F00003B0BDE8F08F002EE3D0CFE7601B0020AE
:104A0000441A0020631A0020CC080020D00800209F
:104A1000C8080020CC230020681B0020C408002008
:104A20004C1B00202DE9F84F874CDFF84482E379D6
:104A3000FF2B40F00381854E3378E21892F8302046
:104A4000FF2A00F0FB80234493F82930002B40F02C
:104A5000F5807F4F7F4D3B6014232B7030782A7890
:104A60002C30B8F8003002449A4254DAA118487841
:104A7000754B002800F0E280A25C012A41D11A891E
:104A800039607AB95A896AB99A895AB9DA894AB9B8
:104A90001A8A3AB95A8A2AB99B8A1BB9E38A002B27
:104AA00000F0CC806C48FFF705FADFF8C8A1024699
:104AB000CAF8000030B93968022302316648FFF7AE
:104AC000C1F91EE0FFF7EEF983463B68594603F152
:104AD00002094846082203F091FF50B1D9F800308E
:104AE000CBF80030D9F80430CBF80430DAF80030D5
:104AF00004E0DAF8003093F8222012B9022283F899
:104B0000222033782A782C33134423445B7802EB39
:104B1000C3022A70A2E720440430FEF7A5FF4F4BE2
:104B2000494D18609946002800F088802B8973B998
:104B30006B8963B9AB8953B9EB8943B92B8A33B914
:104B40006B8A23B9AB8A13B9EB8A002B76D0424D1E
:104B50002846FEF789FF2F4600286FD140F2FF2339
:104B6000228BA5F1080E9A4205F1100C19D16B8A1F
:104B7000BBB9AB8AABB9EB8A9BB92B8B8BB96B8B6F
:104B8000B3F5807F0DD12B7FFF2B0AD195E80F0065
:104B90008CE80F003378734430330FCB85E80F0077
:104BA00011E02F4D2846FEF75FFFD9F80030834211
:104BB00044D197E80F0085E80F0033782344303361
:104BC0000FCB87E80F0060222270282262713A2200
:104BD000A271FF22E2718822002384F82820D9F8EC
:104BE0000020337063706380237184F829301D4E78
:104BF000E02384F82C30931C12323546186859682B
:104C0000083303C593422E46F7D1174A022384F88E
:104C1000403084F8413013681448C4F84230536877
:104C2000002143600622083003F0F4FF002363856F
:104C300004F012FAC0435023608500E00023A8F876
:104C40000030BDE8F88F00BF601B0020441A002030
:104C5000CC080020631A0020681B0020D008002028
:104C6000781B0020901B0020581B0020A21B002056
:104C70004C1B0020C80800202DE9F041524C534F36
:104C800000233B70637063803A238046A3716020E9
:104C9000FF232070E37199B96183A183E1832184AB
:104CA00084F82210022001212376607684F82310F4
:104CB00084F82430537B84F82530D389E3840CE0D6
:104CC0000B4604F1180601F1100E354618685968B4
:104CD000083303C573452E46F7D1872384F828305F
:104CE000002384F82930E3621346394E02F1100E96
:104CF000354618685968083303C573452E46F7D101
:104D0000002626711046304DFEF7AEFE002842D137
:104D1000B8F1000F0CD04346083508F110062A46BA
:104D200018685968083303C2B3421546F7D105E045
:104D300005F1080005F11801FEF79CFF2289224BBE
:104D4000244D82B95A8972B99A8962B9DA8952B9FD
:104D50001A8A42B95A8A32B99A8A22B9DB8A13B9B5
:104D60002B80BDE8F081282363713B78012240331A
:104D7000E254194AE0180223437013680A3040F8DD
:104D8000083C5368002140F8043C062203F042FF2F
:104D900050232B800CE018236B710E4B40222E8188
:104DA0006E81AE81EE812E826E82AE82EE821A809C
:104DB0003B7828331C440023638004F04DF9C04342
:104DC0006080BDE8F08100BF601B0020441A002015
:104DD000901B00204C1B0020581B002008B50448E5
:104DE000FFF740FCBDE808400248FFF73BBC00BFAE
:104DF000240100203001002008B5054804F072F8B5
:104E000020B1BDE80840024804F063B808BD00BF07
:104E100018090020024B1B6803B118471846704759
:104E200028090020014B1860704700BF28090020A6
:104E300010B51446FDF776FE18B1024BC4611B682D
:104E4000836110BD0003002007B5074B8DF80700F4
:104E5000186828B1054B0DF107021978FDF72CFCF5
:104E600003B05DF804FB00BF682200209A260020F2
:104E700008B5002204480221FDF71EFC034A002366
:104E80001380034A137008BD3C0100204C1B002016
:104E9000441A0020F8B5414E3388002B7DD0B3F57D
:104EA000A06F70D83E4B1A8B72B95A8B62B99A8B2D
:104EB00052B9DA8B42B91A8C32B95A8C22B99A8C0F
:104EC00012B9DA8C002A5ED01B7EFF2B5ED03548EB
:104ED000FEF7AAFDC8B93348FFF708F9044620B920
:104EE000FFF782FA054688B94DE0FFF7EBF8054673
:104EF00060B9E36923B11B6A93F88C0004F0FDFAF2
:104F00002046BDE8F840FFF723B9264D284600F0BB
:104F100073FD0746B8BB2846FEF7CCFF0446F8B938
:104F20002846214622462346FEF78CFF054650B30D
:104F30001D48FEF799FD014608B121461A482A4648
:104F4000FFF79AFE194B05F1180019694FF47A73AF
:104F5000B1FBF3F104F073FE012385F82030F8BDB6
:104F600090F822307BB1022B08D1032380F8223045
:104F70000521103004F063FE84F820702046FEF70F
:104F800091FFFFF747FF00233380F8BD0020FFF7B4
:104F900041FF074A002333801370F8BD4C1B0020EB
:104FA000601B0020781B0020681B0020CC23002001
:104FB000441A00202DE9F04103880646144643B107
:104FC00040F23A32934227D0002303800320BDE809
:104FD000F0815F4A002122F833100133DBB2082B45
:104FE000F7D15C490B705C4B1B681364FDF7CAFA80
:104FF0005A4B1870FDF7C6FA594B402118705948A2
:1050000003F055FFFDF728FD00F0D4F940F23A33E4
:1050100033800120BDE8F081022917D1524B1A8854
:105020001C46002AF2D0514B9A79062A05D193F8F2
:1050300035309B0701D5FFF7DFFE0120FDF7E4FDCA
:105040002388002BE2D0FFF725FFDFE716D859B9F8
:10505000002CDBD0464B03201C60FDF7D5FDFFF78D
:1050600019FFFFF7C9FED1E70129CFD1002CCDD020
:10507000404B05201C60FDF7C7FDE4E7872931D1CF
:105080003D4D00233D4F2B702B78072B11D857F83F
:10509000043CA34208D137F8080CFDF79BFD002320
:1050A00027F8083C47F8043C2B78083701332B706D
:1050B000EAE7334B9A6A3033A24202BF002243F838
:1050C000082C03F80B2C2F4A9342F3D12E4B9A69EC
:1050D0002033A24204BF002223F8102C2B4A934213
:1050E000F5D193E7882991D11E4B9C4203D0284BE0
:1050F0009C428BD123E0204603F0F4FE0028F6D03A
:105100001D4D00232B702B78072BF0D81C4F4FF030
:10511000300808FB037393F825306BB1114803F096
:10512000D8FE154B02201A7808FB0273104A136050
:10513000FDF76AFDFFF7AEFE2B780133E2E720466C
:1051400003F0D0FE00283FF461AFFEF76BFD7AE775
:10515000D4080020661A00200003002099260020B1
:105160009A260020180900204C1B0020601B0020FC
:10517000842000207C200020641A0020DC0800200D
:10518000882000200822002084220020C423002040
:105190002825002070B5184B186810B100F12804BC
:1051A00002E0164B1C681834154B1B785B0619D5AA
:1051B000144A002314491370082B10D031F8086CDE
:1051C000058AAE4207D151F8045C25B11370002363
:1051D0002560636004E001330831DBB2ECE7137053
:1051E000FFF70AFE206830B1084B62681978BDE805
:1051F0007040FDF761BA70BD842000207C20002043
:1052000074200020651A0020DC0800209926002068
:10521000F8B5074620B91448BDE8F84002F014B8C4
:10522000002425467B195B787E5D03EB0626B6B22B
:105230004EB9002C09DB01D0013411E00B4802F01B
:1052400003F801240CE0002C04DC2DB13A2003F01B
:10525000B9FD01E04FF0FF340548314601F0F4FF9D
:105260000235102DDED1F8BD21A2200030A2200091
:1052700033A2200010B50A4C79B10A4B2280186085
:1052800040F2E4439A42A8BF1A46074803F0E8FBFD
:105290000420FDF7B9FCFFF7FDFD0023238010BDBE
:1052A000802200207C200020901B0020014B1878D9
:1052B000704700BF671A00207FB5FEF711FF30B1BD
:1052C00083690BB1013B836103F032FFF7E7FEF71F
:1052D00007FF0446F4B1A669C6B904F108030FCB71
:1052E0008DE80F002046FEF733FFFEF7F9FE0A4B6C
:1052F00004461A68D368B2F89A20998B9142E9D093
:1053000098696946324600F08BFE03E0204603F0C0
:105310000FFFDEE704B070BD38250020F0B548F27D
:10532000FE03044685B0184DADF800300F4600234B
:1053300068462146ADF80230ADF80430ADF80630CD
:10534000ADF80830ADF80A30ADF80C30ADF80E30DD
:10535000164603F0BCFE95F88D30012B12D128467D
:10536000694603F0C8FF044660B1437C43F0010383
:105370004374AB685B682BB1394632469847FBF7FC
:10538000C7FCE06005B0F0BD3C25002008B5014633
:10539000074890F88D30012B09D103F0ACFF30B1F4
:1053A0004FF6FF730381437C43F00103437408BD50
:1053B0003C2500201FB5134B00241C6000F072F840
:1053C00001F010F900F0FAFF40F2FF236846ADF853
:1053D00000304FF4D053ADF80E30ADF80240ADF8C8
:1053E0000440ADF80640ADF80840ADF80A40ADF80D
:1053F0000C40FEF76FFB044B20461B68984704B037
:1054000010BD00BF382500209001002070B50D466A
:10541000044658B18169A94208D0054E306801F0B0
:10542000B7FA3068294601F0A9FAA56170BD00BF3E
:105430004C01002038B50D4604460021102203F02F
:10544000E9FB2A7D294607322046D21003F008FBEB
:105450002046BDE83840014903F039BE581B002002
:1054600008B5FEF727FDFEF71DFD034B0146186842
:10547000BDE8084004F08ABB4C01002008B5074B8A
:105480000146186804F09BFB014628B1044B1868DC
:10549000BDE8084004F07ABB08BD00BF4C01002005
:1054A000C4000020024B0349186801F095B900BF01
:1054B0004C010020AF942000024B0146186804F014
:1054C00065BB00BF4C01002008B5044B01461868BD
:1054D00004F075FBBDE8084003F01FBE4C0100203E
:1054E00038B50B4C054694F88D1071B94FF4927293
:1054F000204603F08FFB0123204684F88C5084F86B
:105500008D3001F089F8204638BD002038BD00BF3D
:105510003C25002070B5064610460D4603F0FFFD01
:10552000014608B9002413E00A4B186801F082F91B
:1055300004460028F6D0FFF7A1FF66606B8A23813E
:105540006B7E237420B1838C13B94FF40073838472
:10555000204670BD4C010020F8B5194F064638684A
:1055600001F04EF904460025BCB16368B3420ED188
:105570004FF6FF7322899A4209D03DB1336A28461B
:105580009B6821469B689847054600E025462146D2
:10559000386804F0E4FA0446E6E75DB1304629468F
:1055A000FFF734FF336AB0699B6821461B6998474F
:1055B000B08302E04FF6FF73B3832846F8BD00BF07
:1055C0004C01002010B5044603F04DFF034B21466B
:1055D000BDE81040186801F0BBB900BF4C010020C5
:1055E00070B5094D0646286801F00AF9044650B125
:1055F00063689E4202D12046FFF7E4FF28682146F7
:1056000004F0ADFAF2E770BD4C010020044B93F8B2
:105610008D0020B1D868837D002B08BF0020704723
:105620003C250020064A92F88D3033B192F88C3038
:1056300083420CBF1046002070471846704700BFD9
:105640003C250020034B1A8B82420CBF18460020D9
:10565000704700BF900100202DE9F8438046087E86
:105660000C4603F06EFF0646002800F082802146BB
:105670004246056AFFF74EFF074618B985F88D00C8
:10568000BDE8F883637E0374208AFFF7DBFF814661
:1056900030B93846FFF796FF85F88D90BDE8F8835E
:1056A00094F851305B0604D5002004F13C0103F06E
:1056B0009DFD0123B375A37D04F110013375237D96
:1056C000F374E37DB374C5F80890637DEE6085F8EC
:1056D0008F30F02385F88E30238CA5F89830638CBA
:1056E000A5F89A30A37E85F89030E27E134485F8C1
:1056F000912085F89430237F324685F89230637F7D
:1057000085F89330E38BA5F89C30234653F8040BBF
:105710008B4242F8040BF9D104F13C0306F1240258
:10572000543453F8041BA34242F8041BF9D1394600
:105730003046FFF76BFEAB6828465B699847AB685D
:1057400038461B69002198470B4BB0831A6830829A
:1057500002B91D60284604F0B6F92846414603F018
:10576000A7FD95F88F3023B12846BDE8F84304F033
:10577000B8B9BDE8F88300BF382500202DE9F04115
:10578000064610B300F1100400F18808637D3BB9B0
:105790003C344445FAD13046BDE8F04104F093B9B9
:1057A0004FF6FF730A4FA383386801F029F80546C6
:1057B0000028EDD06B689C4202D1284603F053FECE
:1057C0003868294604F0CBF9F1E7BDE8F08100BF65
:1057D0004C01002038B50D4D286801F011F8044641
:1057E00090B162685AB1136A4BB1637CD90706D590
:1057F00023F001036374106A214603F0C6FE286893
:10580000214604F0ACF9EAE738BD00BF4C010020A6
:10581000024B0146186801F0B1B800BF4C010020EE
:10582000F8B5244F244D3B78044628335A19527852
:10583000002A36D103445A195B5D632B31D153786A
:10584000042B2ED1D078FFF7EDFE064648B33A7808
:10585000283222442A44917801F0200303F0FF000B
:105860003BB105F11800FEF741FCB8B1FEF770FC42
:1058700014E0F568AB7DA3B193885BBA9CB2AB8BA7
:10588000A34294BF002301230C0601D583B900E095
:105890006BB101F0400303F0FF0023B1304604F088
:1058A00012F90120F8BD41F040019170F8BD184691
:1058B000F8BD00BF441A0020601B00202DE9F84FFE
:1058C000494D4A4E95F806A000243778B04634700A
:1058D000BAF1000F19D195F82940002C7ED195F826
:1058E0002A30632B7AD195F82B30042B76D195F89A
:1058F0002D00FFF797FE002873D090F88D309BB3F2
:10590000C168887D98BBBDE8F88F40F20C53DFF882
:10591000E4B0BBF80090994560DC05F12806A9F1D8
:10592000280205F13000314603F010F96A7963234B
:10593000AC6285F82A30042385F82B3002F1080385
:10594000DBB293426B7138BF2B7909F1080938BF7C
:105950000133EC6285F828A0AC71ABF8009038BF39
:105960002B71083788F800700020BDE8F88F337875
:105970002A335A195B5D632B30D18B8B05F11800EC
:105980005BBA938092F90230002B15DAFEF7AEFB7A
:105990000028E7D133780F202A332B449A7842F03D
:1059A00020029A7001F052F9FFF786FDC0B110494C
:1059B000002200F035FB13E0FEF798FB30B9327897
:1059C0002A32AB189A7802F07F0205E033782A3346
:1059D0002B449A7862F07F029A70C3E73770C3E76E
:1059E0000120BDE8F88F00BF601B0020441A002092
:1059F000781B00204C1B0020F8B51E4D1E4AAF79C5
:105A0000002392F800E00146137016462C4667BB4F
:105A100095F8290010B182F800E026E095F82A30C8
:105A2000632B25D1EB8D1BBB144A13681546F3B1CC
:105A300093F88D20DAB1D868837DC3B103F050FCB0
:105A400018B143689B69984204D03378802223447C
:105A500083F82C202A68337892F88C102A33234458
:105A6000D970D268928B52BA9A800020F8BD01207A
:105A7000F8BD00BF601B0020441A0020382500201C
:105A8000F8B5174C174EA07900233778337010B152
:105A900037701846F8BD94F82A30632B1DD194F85E
:105AA0002C3094F82D0023F07F0383F0800384F8DA
:105AB0002C30FFF7B7FDC3689D8B33782D022A3356
:105AC0001C44E078FFF7AEFDC368ADB29B8B377026
:105AD00045EA1325A5800820F8BD3770F8BD00BF42
