:020000040000FA
:040000000252B832BE
:01000B0032C2
:0100130032BA
:01001B0032B2
:0100230032AA
:03002B0002204769
:01003300329A
:01003B003292
:01004300328A
:03004B000221830C
:01005300327A
:01005B003272
:01006300326A
:20006B000207720202DCC082C083E5812404F5817C007D00C374C89CE464808DF063F080E5
:20008B0095F0500B7490C39CFA74019DFB80048C028D03E58124FBF886078F82C007C005C2
:2000AB00C004C003C00278ED79837A04120814D002D003D004D005D007E58124FDF8E4F661
:2000CB0008F6E58124FDF8C3E69A08E664808BF063F08095F0501DE58124FDF8A98119E69B
:2000EB00F70809E6F7E58124FDF8740126F6E40836F680CE8F82C005C004C003C002780300
:20010B0079847A04120814D002D003D004D005E58124FDF8E4F608F674C8C39AFEE49BFF71
:20012B00E58124FDF8C3E69E08E664808FF063F08095F0501DE58124FDF8A98119E6F70831
:20014B0009E6F7E58124FDF8740126F6E40836F680CE0CBC00010DC3EC9490ED64809481A9
:20016B00500302007FE58124FAF58122E5812408F5817E0C7F78E58124F9FD7C07EC2DF9E6
:20018B008E828F83E0FBA3AE82AF83A7031CEC30E7EB74072DF987077E0074062DF98704C6
:2001AB008C03E44207EB42068D047B007A40C007C006C0057408C0E0E4C0E0C004C003C046
:2001CB00029003AE75F000782379597A00120814E58124FBF581907DFDE493FAA3E493FBCC
:2001EB00A3E493FCC004C003C00274CDC0E074ABC0E0C002C003C004900002D002D001D0A7
:20020B000012081415811581D002D003D004D005D006D007907DFDE493FAA3E493FBA3E467
:20022B0093FCC005C004C003C002C007C006C002C003C004900003D002D001D0001208140C
:20024B0015811581D002D003D004D005907DFDE493FCA3E493FEA3E493FFC007C006C00519
:20026B00C0047419C0E0E4C0E0C004C006C007900001D002D001D00012081415811581D07F
:20028B0004D005D006D007907E03E493FCA3E493FEA3E493FF7B007A40C007C006C004741E
:2002AB0008C0E0E4C0E0C005C003C002C004C006C007900009D002D001D000120814E581CC
:2002CB0024FBF581D004D006D007E58124F8F581227878791F7A0012081478A179D67A02CF
:2002EB00120814783179847A04120814789379837A04120814758207780379847A041208B2
:20030B00149000011200717821798A7A03120814782279A27A04120814908CE075F0047825
:20032B000179087A001208147815798F7A04120814900002120071907C9D75F080785B7958
:20034B00947A04120814907CB875F080785B79947A0412081490624AE0FFBF8D028042BF33
:20036B009502802CBFA5028005BFB5448011907CC975F080785B79947A0412081480319074
:20038B007CD075F080785B79947A041208148020907CD775F080785B79947A041208148021
:2003AB000F907CDE75F080785B79947A04120814907CE575F080785B79947A0412081490D6
:2003CB006277E0FF0F8F82788E79947A04120814907CED75F080785B79947A041208147899
:2003EB005179837A0412081490000078D879DD7A03120814E4C0E0C0E0C0E0900FD675F07A
:20040B000078FB79837A0312081415811581158178BD79B17A03120814783279957A0412A3
:20042B000814120177E4C0E0C0E0C0E090104775F00078FB79837A031208141581158115A0
:20044B0081907D12E493FDA3E493FEA3E493FFC007C006C0057401C0E0E4C0E0C005C006D6
:20046B00C007900081D002D001D00012081415811581D005D006D007907D02E493FDA3E440
:20048B0093FEA3E493FFC007C006C0057401C0E0E4C0E0C005C006C007900081D002D001B6
:2004AB00D00012081415811581D005D006D0077408C0E0E4C0E074AEC0E07403C0E0E4C068
:2004CB00E090064175F000782379597A00120814E58124FBF581782A799D7A04120814E49D
:2004EB00C0E0C0E0C0E0900FBF75F00078FB79837A03120814158115811581E4C0E0C0E04E
:20050B00C0E090107B75F00078FB79837A0312081415811581158178DC79957A04120814C6
:20052B00907CF675F080787079B27A02120814785779837A04120814900004120071785DA9
:20054B0079837A04120814900E20E0FF605778C879AC7A03120814E5828583F045F0604050
:20056B00780479AD7A03120814AE82AF83C007C006785D791F7A00120814AC82AD83D006EB
:20058B00D007EEC39CFEEF9DFF1EBEFF011FC374FF9E747F9F500978DD79A97A03120814C7
:2005AB00900E20E4F078B7798C7A03120814AE82AF83EE7089907DF1E493FDA3E493FEA349
:2005CB00E493FFC007C006C005C005C006C007D002D001D000120814858208858309D00560
:2005EB00D006D007E50845097003020549787D79C07A03120814907DE8E493FDA3E493FEEB
:20060B00A3E493FFC007C006C005785C79C47A03120814AA82AB83ACF0D005D006D007C070
:20062B0007C006C0057480C0E0E4C0E0C005C006C0078A828B838CF0D002D001D000120890
:20064B001485820885830915811581D005D006D007E508450970030205498508828509838F
:20066B00784E79C47A03120814907E31E493FDA3E493FEA3E493FFC007C006C005C005C006
:20068B0006C007D002D001D000120814D005D006D00702054920812090000A75F04078AAED
:2006AB0079967A04120814AE82AF83EE4FB40100E433FE7003FF80027F01EF3395E0FE8F73
:2006CB00828E83020826AE82AF83BE8105BF00028006BE8210BF000D740255ABFF7E008FC1
:1506EB00828E838003900000020826AE82AF83BE8005BF0002BE
:200700008008BE8167BF0064801D438F02AF8C74FE5FF58CAFF374FD5FF5F3AFFD74FD5FB4
:20072000F5FD9000018048E58124FCF8E60846602DE5AB20E131E4C0E0C0E090000A75F04A
:200740004078EB79957A0412081415811581AF8974FD5FF589C2C543AB02D2BD8009AFABA1
:2007600074FD5FF5ABC2BD9000018003900000020826C020C0E0C0F0C082C083C007C00674
:20078000C005C004C003C002C001C000C0D075D000C2AFE58930E14190000A75F04078AA63
:2007A00079967A04120814E5828583F045F060297410C0E0E4C0E090000A75F04078EB799E
:2007C000957A0412081415811581907D0C75F080785779907A04120814AF8974FD5FF589A4
:2007E000C2C5D2AFD0D0D000D001D002D003D004D005D006D007D083D082D0F0D0E0D020B0
:2008000032AFF0AE83E5829002B6F0EEA3F0EFA3F0020826C09FC8C0E0E9C0E0EA540F5314
:200820009FF0429FC822D09F22C082C083E5812405F58124F4F88607088606088603E5811B
:2008400024F2F8E62FFA08E63EFC8B05A8811818EA24FFF6EC34FF08F608A6058F028E0474
:200860008B05A8811818E6C0E008E6C0E008E6C0E08A828C838DF0124FE115811581158151
:2008800050668A828C838DF0125A6CFBE58124FCF808A60318760074012AFBE43CFE8D072E
:2008A0008B828E838FF0125A6CFB7F00E58124FCF8EB26FBEF0836FF8B06E58124FAF8EE98
:2008C00026F6EF0836F6E58124FAF8C3E69E08E69F500BE58124FAF806B600020806740270
:2008E0002AFAE43CFC020862A8811818C002C004C00586820886830886F0124FE115811524
:20090000811581600280348A828C838DF0125A6CFA7D008A077E00E58124FAF8EE26F6EF3F
:200920000836F6E58124FAF8C3E69E08E69F500BE58124FAF806B600020806E58124FAF814
:200940008682088683E58124F9F581020826AD82AE83AFF0E58124FCF8E6C0E008E6C0E0C4
:20096000C005C006C007900000782979087A00120814AE82AF83E58124FBF5818E828F834C
:20098000780B791D7A00120814AE82AF830208267428C0E0E4C0E0744CC0E07406C0E0E4E6
:2009A000C0E0900000782979087A00120814AE82AF83E58124FBF581EE4FB40100E433FDDA
:2009C00060067CFF7DFF80118E828F83780B791D7A00120814AC82AD838C828D830208269A
:2009E00005810581AF827D4C7E068D828E83A3A3A3A3E0FD7E007B4C7C068B828C83A3A3BB
:200A0000A3A3A3E07B002EFEEB3DFD901052E0FC7B00EEC39CFEED9BFDA88118A60608A68D
:200A2000057E00A88118EF26FFEE0836FE7C4C7D0674082CFCE43DFD7B007420C0E0E4C054
:200A4000E0C004C005C0038F828E83782979087A00120814AC82AD83E58124FBF5818C0792
:200A60008D06901052E02428244CFCE43406FD7B00A88118E6C0E008E6C0E0C004C005C025
:200A8000038F828E83782979087A00120814AC82AD83E58124FBF5818C078D06EF4EB401F6
:200AA00000E433FD60067CFF7DFF80118F828E83780B791D7A00120814AC82AD838C828D58
:200AC000831581158102082675823A78E079097A00120814AE82AF8302082675821178E092
:200AE00079097A00120814AE82AF83020826780079807A02120814788079D67A021208142E
:200B000078A979C67A0212081490074BE4F07404A3F090074AE4F090074AE075F01BA4244C
:200B200050FE740735F0FF74102EF582E43FF583E4F0E4A3F090074AE02401F090074AE022
:200B4000FFBF0A0040D1020826901052E0FF7003020C0F8F057E0074282DFBE43EFC9007A0
:200B600042E0F9A3E0FAC3E99BEA9C500F901052E4F0900742F0E4A3F0020C0FE924D8F9B0
:200B8000EA34FFFAE9C39DF9EA9EFAEF2474FFE43406FE7D00C001C002C007C006C00590F6
:200BA000067475F000785179537A00120814E58124FBF581901052E0FF7E00900742E0FC1A
:200BC000A3E0FD900742ECC39FF0ED9EA3F07E4C7F0674042EFEE43FFF900742E0FCA3E013
:200BE000FDEC24D8ED34FFFC8E828F83ECF07E4C7F0674052EFEE43FFF900742E0FCA3E0A8
:200C0000FDEC24D8FC8E828F83F0901052E4F0020826C082C083C0F0E5812406F581900719
:200C20004BE02401F0A3E03400F090074BE0FBA3E0FCC3947D400990074BE4F07410A3F0A7
:200C400090074AE4F090074AE075F01BA42450FB740735F0FC74102BF582E43CF583E0FB56
:200C6000A3E0FC90074BE0FAA3E0FF8A828F83C004C003780B791D7A00120814AE82AF83EF
:200C8000D003D004EBB50606ECB50702809090074AE02401F090074AE0FCBC0A0040A6A860
:200CA000811818E4F608F608760090074AE4F090074AE0FF75F01BA42450FD740735F0FE85
:200CC00074102DF582E43EF583E0FBA3E0FC4B700EA8811818A60508A606087600801090D9
:200CE000074AEF04F090074AE0FFBF0A0040C0A8811818E608467008900000F5F0020E01AC
:200D0000A8811818E58124FBF9741026F7E4083609F70809E6F790074BE0FBA3E0FC8B077D
:200D20007A008C037C00EB4202EC4207E58124FBF886820886830886F0EA125336A3EF128D
:200D40005336A8811818741226FDE40836FE0886078D828E838FF0E58124F3F8E6125336BE
:200D6000A308E6125336E58124F8F8E60846702DA881181886050886060886077410C0E0CB
:200D8000E4C0E0E4C0E08D828E838FF078B779587A00120814158115811581803BE58124FD
:200DA000F8F88605088606088607A881181886020886030886047410C0E0E4C0E0C005C05E
:200DC00006C0078A828B838CF0782379597A00120814E58124FBF581A8811818741426FD9C
:200DE000E40836FE0886079003CCE0FC8D828E838FF0125336A881181886820886830886C9
:200E0000F0C8E58124F7F581C8020826E5812404F5819010537402F0901052E0FF2428248D
:200E20004CFDE43406FE8D828E83A3E0FEE40354F8CEC403CE6ECE54F8CE6EFD74082EFEAD
:200E4000E43DFD901053E0FCFA7B00C3EA9EEB64808DF063F08095F04003020FA474282F7E
:200E60002C244CF582E43406F583E0FE600ABE0102800DBE636A8024901053EC04F0809819
:200E800074282F2C244CFDE43406FE8D828E83A3E0FE24029010532CF0020E188A828B83BA
:200EA000784079DE7A03120814E5828583F045F06006758201020FA7901052E02428FE9022
:200EC0001053E0FD2E244CFBE43406FE8B828E83A3E0FE24029010532DF0758200020FA799
:200EE00074282F2C244CF582E43406F583E0FE5306C0BE0003020F82BE4002800CBE800267
:200F00008025BEC00280088079758201020FA77D4C7E0674182DF582E43EF583E0FEBEFFC9
:200F200006758201020FA78F03E4FCFDFEE58124FDF874282BF6E43C08F6E43D08F6E43EF3
:200F400008F6901053E0FAE4FFFEFDE58124FDF8EA26FAEF0836FBEE0836FCED0836FDC027
:200F600002C003C004C0057402C0E0758204781979CC7A02120814E58124FBF5817582029E
:200F8000802574282FFF901053E0FD2F244CFCE43406FF8C828F83A3E0FF24029010532D72
:200FA000F0020E18758200E58124FCF581020826AF82BF0403021AC990073C7488F07406E1
:200FC000A3F0E4A3F090073F7488F07406A3F0E4A3F0BF056E90074DE0FDA3E0FEA3E0FFCB
:200FE00074102DFDE43EFE8D828E838FF0125A6CFDA3125A6CFE4D7003021CF3900747E4A3
:20100000F0E4A3F0E4A3F090073C747CF07406A3F0E4A3F090073F747CF07406A3F0E4A371
:20102000F0900744E4F0E4A3F0900742E4F0E4A3F09007467408F0786479977A0312081496
:20104000021AC990064CE0FF5307F0BF60028003021CF37E4C7F068E828F83A3A3A3A3E00E
:20106000FE7F007C4C7D068C828D83A3A3A3A3A3E07C002FFFEC3EFE900742E0FCA3E0FD74
:20108000C3EC9FED9E5003021CF37E4C7F068E828F83A3A3A3A3E0FE7F007C4C7D068C8260
:2010A0008D83A3A3A3A3A3E0FD7C002FFFEC3EFE90074274282FF0E43EA3F07E4C7F067436
:2010C000082EF582E43FF583E0FFBFFF03021CF37E4C7F0674062EFEE43FFF7D00900649A4
:2010E000EEF0EFA3F0EDA3F0901052E4F0901051F08E828F838DF0125A6C705390105174CA
:2011000001F0780C790E7A00120814AF82BF0002800EBF0103021CF3BF0203021CEC802F5A
:20112000901052E0FF2428244CFDE43406FE8D038E04900649EBF0ECA3F0E4A3F08D828E9A
:2011400083A3E0C40354F8FE24089010522FF07E4C7F0674182EFEE43FFF7D008E828F8373
:201160008DF07882798A7A02120814AD82AE83AFF0ED4E600302160F7E4C7F0674182EFE80
:20118000E43FFF7D008E828F838DF07855798D7A02120814AD82AE83AFF0ED4E60030216DF
:2011A0000F7E4C7F0674182EF582E43FF583E0FFBFFF030214167E4C7F0674182EF582E4D5
:2011C0003FF583E0FFBFFE157E4C7F0674192EF582E43FF583E0FFBF80030214167E4C7FF5
:2011E0000674082EF582E43FF583E0FFBFFE157E4C7F0674092EF582E43FF583E0FFBF8052
:20120000030214167E4C7F0674082EF582E43FF583E0FEA3E0FF4E60030212B57E4C7F066B
:20122000740A2EF582E43FF583E0FEA3E0FF4E60030212B57E4C7F06740C2EF582E43FF58A
:2012400083E0FEA3E0FF4E706C7E4C7F06740E2EF582E43FF583E0FEA3E0FF4E70577E4C31
:201260007F0674102EF582E43FF583E0FEA3E0FF4E70427E4C7F0674122EF582E43FF583B0
:20128000E0FEA3E0FF4E702D7E4C7F0674142EF582E43FF583E0FEA3E0FF4E70187E4C7F6D
:2012A0000674162EF582E43FF583E0FEA3E0FF4E70030214167E4C7F0674182EF582E43F6E
:2012C000F583E0FEA3E0FF4E60030213757E4C7F06741A2EF582E43FF583E0FEA3E0FF4E30
:2012E00060030213757E4C7F06741C2EF582E43FF583E0FEA3E0FF4E707B7E4C7F06741E68
:201300002EF582E43FF583E0FEA3E0FF4E70667E4C7F0674202EF582E43FF583E0FEA3E085
:20132000FF4E70517E4C7F0674222EF582E43FF583E0FEA3E0FF4E703C7E4C7F0674242E0B
:20134000F582E43FF583E0FEA3E0FF4E70277E4C7F0674262EFEE43FFF8E828F83E0701578
:201360007E4C7F0674272EF582E43FF583E0FFBF0103021416900742E0FEA3E0FFC3E49EF7
:2013800074059F5024E4C0E07405C0E0E4C0E0C0E0E4C0E0758202781979CC7A0212081403
:2013A000E58124FBF581021CEC7E4C7F0674072EF582E43FF583E0FF24FE4021E4C0E0C078
:2013C000E0C0E0C0E0E4C0E0758203781979CC7A02120814E58124FBF581021CEC78847975
:2013E000E27A03120814E5828583F045F06003021CF37E4C7F0674072EFEE43FFF7C4C7DFB
:201400000674072CF582E43DF583E0FD1D8E828F83EDF0021CEC7E4C7F0674082EF582E4B8
:201420003FF583E0FFBFFE028003021CF37E4C7F0674092EF582E43FF583E0FFBF80028017
:2014400003021CF37E4C7F0674082EF582E43FF583E0FEA3E0FF4E60030214F57E4C7F0602
:20146000740A2EF582E43FF583E0FEA3E0FF4E60030214F57E4C7F06740C2EF582E43FF506
:2014800083E0FEA3E0FF4E706C7E4C7F06740E2EF582E43FF583E0FEA3E0FF4E70577E4CEF
:2014A0007F0674102EF582E43FF583E0FEA3E0FF4E70427E4C7F0674122EF582E43FF5836E
:2014C000E0FEA3E0FF4E702D7E4C7F0674142EF582E43FF583E0FEA3E0FF4E70187E4C7F2B
:2014E0000674162EF582E43FF583E0FEA3E0FF4E7003021CF37E4C7F0674182EF582E43F47
:20150000F583E0FEA3E0FF4E60030215B57E4C7F06741A2EF582E43FF583E0FEA3E0FF4EAB
:2015200060030215B57E4C7F06741C2EF582E43FF583E0FEA3E0FF4E707B7E4C7F06741EE3
:201540002EF582E43FF583E0FEA3E0FF4E70667E4C7F0674202EF582E43FF583E0FEA3E043
:20156000FF4E70517E4C7F0674222EF582E43FF583E0FEA3E0FF4E703C7E4C7F0674242EC9
:20158000F582E43FF583E0FEA3E0FF4E70277E4C7F0674262EFEE43FFF8E828F83E0701536
:2015A0007E4C7F0674272EF582E43FF583E0FFBF0103021CF37E4C7F0674182EF582E43FAB
:2015C000F583E0FFBFFF03021CF37E4C7F0674182EFEE43FFF7D008E828F838DF078937919
:2015E000867A02120814E5826003021CF3E4C0E0C0E0C0E0C0E07402C0E075820178197964
:20160000CC7A02120814E58124FBF581021CEC900649E0FDA3E0FEA3E0FF8D828E838FF0F1
:20162000125A6CFF6026BF1103021846BF2B0302171EBF2C03021CF3BF3A030217E3BF3B05
:2016400003021CF3BF3C0280650217AA901051E0FF30E0030217AA90105174014FF0780C02
:20166000790E7A00120814AF82BF0002800EBF0103021CF3BF0203021CEC8093901052E034
:20168000FF2428244CFDE43406FE8D038E04900649EBF0ECA3F0E4A3F08D828E83A3E0C43D
:2016A0000354F8FE24089010522FF002160F901051E0FF30E110EF30E6030217AA901051CC
:2016C00074404FF0800790105174024FF0780C790E7A00120814AF82BF0002800FBF0103F3
:2016E000021CF3BF0203021CEC02160F901052E0FF2428244CFDE43406FE8D038E04900686
:2017000049EBF0ECA3F0E4A3F08D828E83A3E0C40354F8FE24089010522FF002160F9010F7
:2017200051E0FF30E2030217AA90105174044FF0901052E0FF2428244CFDE43406FE7403DC
:201740002DFDE43EFE8D828E83E060308F057E00742A2DFDE43EFE3395E0FCFBC005C0068B
:20176000C004C003E4C0E0758204781979CC7A02120814E58124FBF581021CEC74282F24EF
:201780004CFDE43406FE8D038E04900649EBF0ECA3F0E4A3F08D828E83A3E0C40354F8FE5E
:2017A00024089010522FF002160F900649E0FDA3E0FEA3E0EDC3944CFDEE9406FE3395E04A
:2017C000FFFCC005C006C007C0047401C0E0758204781979CC7A02120814E58124FBF5816D
:2017E000021CEC78C8790A7A00120814AE82AF83BEFF05BFFF028003021CF3901052E02406
:2018000028244CFEE43406FF8E048F058C828D83A3E0FD8E828F83E0FEC0058E8278777914
:20182000C77A02120814AF821581BF0108900742E4F0E4A3F0900742E0FEA3E0FF4E70038A
:20184000021CF3021CEC7849790B7A00120814900742E0FEA3E0FFEE24D0FEEF34FFFF90B6
:201860000742EEF0EFA3F090073C747CF07406A3F0E4A3F07E747F0674062EF582E43FF5DA
:2018800083E0FEA3E0FF4E601878DB790A7A00120814AE82AF83BEFF05BFFF028003021C9C
:2018A000F37E747F068E828F83A3A3E0FEA3E0FF4E7003021CF390074D7450F07407A3F07E
:2018C000E4A3F090074DE0FDA3E0FEA3E0FF745EC0E07408C0E0E4C0E08D828E838FF0120A
:2018E0004FE11581158115814003021CF374102DFAE43EFB8F048A828B838CF0125A6CFBDE
:20190000A3125A6CFC4B7003021A7E79747A0689828A83A3A3E0F9A3E0FAE9B50306EAB591
:2019200004028003021A7E74122DFDE43EFE8D828E838FF0125A6CFEA3125A6CFF4E601502
:20194000900674E0FCA3E0FDECB50606EDB507028003021A7E90074DE0FDA3E0FEA3E0FFE8
:201960008D028E038F048A828B838CF0125A6CFAA3125A6CFB4A6003021A3C74022DFAE450
:201980003EFB8F048A828B838CF0125A6CFAA3125A6CFB4A6003021A3C74042DFAE43EFBDC
:2019A0008F048A828B838CF0125A6CFAA3125A6CFB4A6003021A3C74062DFAE43EFB8F0460
:2019C0008A828B838CF0125A6CFAA3125A6CFB4A706A74082DFAE43EFB8F048A828B838C0C
:2019E000F0125A6CFAA3125A6CFB4A704F740A2DFAE43EFB8F048A828B838CF0125A6CFAE9
:201A0000A3125A6CFB4A7034740C2DFAE43EFB8F048A828B838CF0125A6CFAA3125A6CFB2D
:201A20004A7019740E2DFDE43EFE8D828E838FF0125A6CFDA3125A6CFE4D605190074DE058
:201A4000FDA3E0FEA3E0FF7B4C7C0674082BFBE43CFC7A007410C0E0E4C0E0C005C006C012
:201A6000078B828C838AF078AD79557A00120814AE82AF83E58124FBF581EE4F600F90078E
:201A80004DE0241BF0A3E03400F00218C3900747E4F0E4A3F0E4A3F09007467402F09007EC
:201AA0003C747CF07406A3F0E4A3F090073F747CF07406A3F0E4A3F0900744E4F0E4A3F026
:201AC000786479977A03120814900744E0FEA3E0FF4E7003021CF390074274302EF0E43FA4
:201AE000A3F07C4C7D068C828D83A3A3A3A3EE2408E43FF07E4C7F0674052EFEE43FFF908B
:201B00000742E0FCA3E0EC24D88E828F83F07E4C7F0674072EFEE43FFF90074DE0FBA3E0C9
:201B2000FCA3E0FD74142BFBE43CFC8B828C838DF0125A6C8E828F83F07E4C7F0674062EE5
:201B4000F582E43FF5837411F07E747F0674042EFEE43FFF900744E0FCA3E0FD74082CFCE6
:201B6000E43DFD8C037A008D047D00EC4202ED42038E828F83EAF0EBA3F07E747F06740663
:201B80002EF582E43FF583E4F0E4A3F07E747F0690074DE0FBA3E0FCA3E0FD74102BFBE4F7
:201BA0003CFC8B828C838DF0125A6CFBA3125A6CFC8E828F83EBF0ECA3F07E747F067402A1
:201BC0002EFEE43FFF90074DE0FBA3E0FCA3E0FD74122BFBE43CFC8B828C838DF0125A6CC0
:201BE000FBA3125A6CFC8E828F83EBF0ECA3F090074DE0FDA3E0FEA3E0FF7B4C7C0674185E
:201C00002BFBE43CFC7A007410C0E0E4C0E0C005C006C0078B828C838AF0782379597A0091
:201C2000120814E58124FBF5817E4C7F0674182EFEE43FFF7D007B4C7C0674082BFBE43CCA
:201C4000FC7A00C006C007C0058B828C838AF078D7798E7A021208141581158115819007CD
:201C60003C7488F07406A3F0E4A3F07E747F0674062EFEE43FFFC007C00678DB790A7A009C
:201C8000120814AC82AD83D006D007ECF4FCEDF4FD8E828F83ECF0EDA3F07E747F067406E2
:201CA0002EF582E43FF583E0FEA3E0FF4E70147E747F0674062EF582E43FF58374FFF074AA
:201CC000FFA3F0783179EA7A0312081490064C7460F07E4C7F068E828F83A3E4F07E4C7FE4
:201CE000068E828F83A3A3E4F0E4A3F0900746E4F08015900742E4F0E4A3F0901052E4F0FB
:201D0000901051F0900746F0020826AE82AF838E057C008F067F00EE4204EF42058C828D5B
:201D200083020826AC82AD83AEF0FF8C028D038A0178008B027B00EA4200EB42018902885F
:201D400003790078008E048F058C077E008D047D00EC4206ED4207E4FDFCEE4200EF4201A1
:201D6000ED4203EC4202888289838BF0EA020826C082C083C0F0E5812405F58190073FE066
:201D8000FAA3E0FBA3E0FCEA4B7003021E148A058B068C07E58124FCF8A60508A60608A632
:201DA000077E887F06E58124FCF8E6C39EFE08E69FFF74B4C39EFEE49FFFE58124F4F8C300
:201DC000E69E08E664808FF063F08095F05010E58124F4F8A98119E6F70809E6F780308AB8
:201DE000058B068C07E58124FCF8A60508A60608A6077E887F06E58124FCF8E6C39EFE08D2
:201E0000E69FFFA8811874B4C39EF6E49F08F6A881188029E58124F4F8C3E694B408E6645A
:201E2000809480500CE58124F4F8860708860680047FB47E00A88118A60708A606A8811803
:201E4000C3E496E464800886F063F08095F04003021EE6A88118900744E6F008E6A3F0E506
:201E60008124F9F8C002C003C00486820886830886F0124FE11581158115816069EA4B707A
:201E8000367D887F06FEA88118E6C0E008E6C0E0E58124F7F8E6C0E008E6C0E008E6C0E014
:201EA0008D828F838EF0782379597A00120814E58124FBF581802FA88118E6C0E008E6C04F
:201EC000E0E58124F7F8E6C0E008E6C0E008E6C0E08A828B838CF0782379597A001208145C
:201EE000E58124FBF581E58124F8F581020826784F79A27A04120814020826AE82AF83C2DD
:201F0000AF8E048F051EBEFF011FEC4D60030080F0D2AF020826AE82AF83C007C006785D70
:201F2000791F7A00120814AC82AD83D006D007C007C006C005C004785D791F7A001208142B
:201F4000AA82AB83D004D005D006D007EAC39CFAEB9DFBC3EA9EEB9F40D5020826850F82DB
:201F6000851083020826AC11AD127E007F008C828D838EF0EF02082675C6C0AFC674BF5FE3
:201F8000F5C6E59E20E6FB43C630E5C6B59EFB900000E595F0E4A3F0E4A3F0E4A3F0AC962F
:201FA0007D007E008E078D068C057C00900000E0F8A3E0F9A3E0FAA3E0FB900000EC28F07E
:201FC000ED39A3F0EE3AA3F0EF3BA3F0AC977D008D078C067D007C00900000E0F8A3E0F90D
:201FE000A3E0FAA3E0FB900000EC28F0ED39A3F0EE3AA3F0EF3BA3F0900000E0FCA3E0FD35
:20200000A3E0FEA3E0FF900000ECF074012DA3F0E43EA3F0E43FA3F0900000E0A3E0A3E03B
:20202000FEA3E08E97900000E0A3E0FDA3E0A3E08D96900000E0FCA3E0FDA3E0FEA3E0FFF2
:202040008C95D2AD020826C0E0C082C083C007C006C005C004C003C002C001C000C0D0756A
:20206000D000C2AF900000E595F0E4A3F0E4A3F0E4A3F0AC967D007E008E078D068C057C4E
:2020800000900000E0F8A3E0F9A3E0FAA3E0FB900000EC28F0ED39A3F0EE3AA3F0EF3BA38C
:2020A000F0AC977D008D078C067D007C00900000E0F8A3E0F9A3E0FAA3E0FB900000EC28CE
:2020C000F0ED39A3F0EE3AA3F0EF3BA3F0900000E0FCA3E0FDA3E0FEA3E0FF900000ECF084
:2020E00074012DA3F0E43EA3F0E43FA3F0900000E0A3E0A3E0FEA3E08E97900000E0A3E031
:20210000FDA3E0A3E08D96900000E0FCA3E0FDA3E0FEA3E0FF8C957401250FF50FE43510B3
:20212000F510E50F547F6002800B74012511F511E43512F512900E207401F0C2C7D2AFD006
:20214000D0D000D001D002D003D004D005D006D007D083D082D0E03275E40975AF0075E6AB
:2021600044C2DED2B9020826AE82AF83ADE674FB5DF5E68EDC8FDD43E60475AF0043E64094
:20218000020826C020C0E0C0F0C082C083C007C006C005C004C003C002C001C000C0D07539
:2021A000D000C2B9AFAF74FD5FF5AFAFE674BF5FF5E678F479847A04120814D2B9D0D0D0F0
:2021C00000D001D002D003D004D005D006D007D083D082D0F0D0E0D02032C082C083C0F0C7
:2021E000E5812404F5817B007C00A88118E4F608F67D007E00C003C004E58124FBF8ED24BB
:20220000DAF6EE340308F6E58124FBF8741126F582E40836F583E0FF7A00E58124FBF88636
:2022200082088683E0D004D00370030222CBEF4A600BBF0105BA000280030222CBC003C008
:2022400004E58124FDF8E624DAFB08E63403FC8B828C83A3E0FCBCFE028006D004D00380F7
:2022600023E58124FDF8E624DAFB08E63403FC8B828C83A3A3E0FCBC8006D004D003804BCA
:20228000D004D003A88118E624DAFA08E63403FF0ABA00010F7E00E58124FAF8860508866D
:2022A000040886037410C0E0E4C0E0C002C007C0068D828C838BF0782379597A00120814E4
:2022C000E58124FBF5819000018028A88118741C26F6E40836F6741C2DFDE43EFE0BBB0025
:2022E000010CC3EB9403EC6480948050030221F5900000E58124F9F581020826C082C083FF
:20230000C0F0E5812404F58124FAF8E58124F5F9E726FA09E70836FB0886048A828B838C13
:20232000F0125A6CFAE4E58124FDF8080808A6021818187600087600087600E58124F5F887
:20234000740126FDE40836FEE58124FAF8ED26FDEE0836FE0886078D828E838FF0125A6C03
:20236000FD7F008F048D06E4FFFDE58124FDF8ED46F6EF0846F6EE0846F6EC0846F6E58138
:2023800024F5F8740226FAE40836FBE58124FAF8EA26FAEB0836FB0886078A828B838FF0A1
:2023A000125A6CFA7F007E008E058F068A077A00E58124FDF8EA46F6EF0846F6EE0846F611
:2023C000ED0846F6E58124F5F8740326FBE40836FCE58124FAF8EB26FBEC0836FC0886075C
:2023E0008B828C838FF0125A6CFBE4FFFEFDE58124FDF8E6420308E6420708E6420608E68C
:2024000042058B828F838EF0EDC8E58124F9F581C8020826C082C083C0F00581058105816B
:20242000E58124F6F88603088604E58124F6F874012BF6E43C08F6E58124FBF8EB26FBEC68
:202440000836FC088602E58124F2F808080886078B828C838AF0EF125336E58124F6F8867B
:2024600006088607E58124F6F874012EF6E43F08F6E58124FBF8EE26FEEF0836FF08860541
:20248000E58124F2F8080886048E828F838DF0EC125336E58124F6F88606088607E58124E5
:2024A000F6F874012EF6E43F08F6E58124FBF8EE26FEEF0836FF088605E58124F2F8088624
:2024C000048E828F838DF0EC125336E58124F6F88606088607E58124FBF8A9811919EE264C
:2024E000F7EF083609F70809E6F7E58124F2F886027B007C007F00A88118188682088683E6
:202500000886F0EA125336E58124FAF581020826C082C083C0F0A8811818E58124F9F9E79D
:2025200026FA09E70836FB0886048A828B838CF0125A6CFC7A00E58124F9F8740126FBE4E7
:202540000836FFA8811818EB26FBEF0836FF0886068B828F838EF0125A6CFB7F004202EFF7
:2025600042048A828C83158115811581020826C082C083C0F0E58124F9F88603088604E558
:202580008124F9F874012BF6E43C08F6A8811818EB26FBEC0836FC088602E58124F7F80855
:2025A00086078B828C838AF0EF125336E58124F9F88606088607A8811818EE26FEEF08363A
:2025C000FF088605E58124F7F886037C008E828F838DF0EB125336158115811581020826D4
:2025E0007DCE7E017F0074B3C0E07402C0E0E4C0E08D828E838FF0124FE11581158115818E
:202600004003022688747B2DFAE43EFB8F048A828B838CF0125A6CFABA01637B4C7C0674BE
:20262000182BF582E43CF583E0FCBCFF1D8D828E838FF0C007C006C005784A79997A021241
:202640000814D005D006D00780347B4C7C0674082BFBE43CFC7A00C007C006C005C003C0D2
:2026600004C0028D828E838FF078A479327A00120814158115811581D005D006D00774E5E9
:202680002DFDE43EFE0225E6900742E4F0E4A3F0020826C082C083C0F0E5812410F58190BA
:2026A0001052E0242C244CFBE43406FC8B058C067F008D028E038F040DBD00010E8D828E39
:2026C000838FF0E41253368A828B838CF0E4125336E58124EEF8E60846705FE58124F1F87E
:2026E00076FF087602E58124F1FF2402F8760008760074042FF8760008760074062FF876AF
:202700000008760074082FF87600087600740A2FF87600087600740C2FF8760008760074FC
:202720000E2FF8760008761AE58124F1FFE58124EEF8A6070876000876407402C0E0E4C0C9
:20274000E0E4C0E0C0E0749BC0E0E4C0E0E58124E8F886820886830886F0782379D07A02E1
:20276000120814E58124FA24EDF581020826E5812483F5812496FFFC7D007E40C0077457EB
:20278000C0E0E4C0E0E4C0E08C828D838EF078B779587A00120814158115811581D007E5CF
:2027A000812489F8741A2FF6E5812489F886007608E5812488F8741B2FF6E5812488F886E3
:2027C00000760CE5812487F8741C2FF6E5812487F88600760A74222FFDA805760008760146
:2027E000E5812481F874202FF6E5812481F88600760008760718E581247EF874102FF69048
:2028000010D1E0FAA3E0FBE581247EF88600A60208A60318E5812480F8741D2FF6E5812446
:2028200080F8860076FFE581247FF8741E2FF6E581247FF8860076FF0876FF187A4C7B0695
:2028400074082AFAE43BFBE5812483F8A60208A603087600E5812482F8E58124F1F6E58107
:202860002482F886027B007C40C007C0057410C0E0E4C0E0E581247FF8E6C0E008E6C0E0B2
:2028800008E6C0E08A828B838CF0782379597A00120814E58124FBF581D005D007E58124CE
:2028A00082F886047B007A408C828B838AF0C007C00578B0799B7A03120814AA82AB83ACD0
:2028C000F0D005D007EA4B600302298AC00575820FC007C00578C079C67A03120814AA826A
:2028E000AB83ACF0D005D007E5812482F8A60208A60308A604E5812481F886058D037C00B9
:202900007D40C0077401C0E0E4C0E0E581247FF8E6C0E008E6C0E008E6C0E08B828C838D4E
:20292000F078E579987A03120814AB82AC83ADF0E58124FBF581D007E5812482F8A603080E
:20294000A60408A605EB4CD005603CE5812483F8741026FAE40836FB088604C007C005741A
:2029600058C0E07402C0E0E4C0E0C0E08A828B838CF0787379807A04120814E58124FCF584
:2029800081D005D007800302329BC005900742E0FBA3E0901052E0242CFCEBC39CFBE581F3
:2029A0002494F8A603EC244CFCE43406FAE5812491F8A60408A60208760074182FFDE58145
:2029C0002491F886820886830886F0125A6CFCA805A60474172FFDE5812491F8740126FA29
:2029E000E40836FB0886048A828B838CF0125A6CFAA805A60274122FFDC007C0057402C0F7
:202A0000E0E4C0E0E581248DF886820886830886F0781079257A00120814AB82AC831581EC
:202A20001581D005D007A805A60308A60474142FF9E5812491F8740426FAE40836FB088646
:202A4000048A828B838CF0125A6CFD74805DF774152FF98A828B838CF0125A6C5438C4232D
:202A6000541FF774162FFD8A828B838CF0125A6CFA74075AA805F674192FFDE5812491F88A
:202A8000740526FAE40836FB0886048A828B838CF0125A6CFAA805A602E5812491F87408A2
:202AA00026FBE40836FC088605E5812482F8A60308A60408A6058F027C007D40C007C005DC
:202AC0007410C0E0E4C0E0E581247EF8E6C0E008E6C0E008E6C0E08A828C838DF078237900
:202AE000597A00120814E58124FBF581D005D007E58124ECF87618087600E5812482F8743C
:202B00003A2FF6E5812485F874502FF6D005E5812495F8E581248AF9E6F7097700E5812486
:202B2000EDF8E581248AF9C3E69708E664800987F063F08095F04003023269C005E581248A
:202B400091F8E58124ECF9E726FA09E70836FD0886068A828D838EF0125A6CFED005EE7014
:202B60000CE58124EFF876010876008039C005E58124ECF8740126FCE40836FDE581249126
:202B8000F8EC26FCED0836FD0886038C828D838BF0125A6CFC7D00E58124EEF874022CF684
:202BA000E43D08F6D005E58124EFF8E58124EDF9E726FB09E70836FCE581248AF8C3E69BBE
:202BC00008E664808CF063F08095F0500302329BBE02028015BE0303022D8DBE0403022F60
:202BE00059BE0803023133023254E58124EFF8C3E6940608E664809480500302329BC00544
:202C000074502FF9E58124ECF8740226FBE40836FCE5812491F8EB26FBEC0836FC088605CD
:202C20008B828C838DF0125A6CF774512FF9E58124ECF8740326FCE40836FDE5812491F806
:202C4000EC26FCED0836FD0886038C828D838BF0125A6C25E0FCF7E58124ECF8740426FB3D
:202C6000E40836FDE5812491F8EB26FBED0836FD0886068B828D838EF0125A6C235401FA75
:202C80004CF774522FF98B828D838EF0125A6CC4540FFC74035CF774532FF98B828D838E09
:202CA000F0125A6CFB740F5BF774542FF9E58124ECF8740526FDE40836FEE5812491F8ED62
:202CC00026FDEE0836FE0886048D828E838CF0125A6CF7E5812485F886008606D005EE705E
:202CE00003023254BE074874552FF9E58124EDF8740626FCE40836FEC007C005C001C0040F
:202D0000C006E581248DF886820886830886F0781079257A00120814AC82AE8315811581EE
:202D2000D001D005D007A70409A70619023254BE025874552FF9E58124EDF8740626FCE41C
:202D40000836FEE5812492F8EC26FCEE0836FE0886038C828E838BF0125A6CF774562FF9FF
:202D6000E58124EDF8740726FCE40836FEE5812492F8EC26FCEE0836FE0886038C828E832B
:202D80008BF0125A6CFCF702325402329BE58124EFF8C3E6940908E6648094805003023272
:202DA0009BC005E581248DF874242FF674382FF9E58124ECF8740226FBE40836FCE5812466
:202DC00091F8EB26FBEC0836FC0886028B828C838AF0125A6CF774392FF8C000E58124EB3A
:202DE000F8740326FBE40836FCE5812490F8EB26FBEC0836FC088602D0008B828C838AF0EB
:202E0000125A6CF674342FF8C000E58124EBF8740426FBE40836FCD000C007C001C000C059
:202E200003C004C000E581248BF886820886830886F0D00078FC79227A00120814AA82AB09
:202E400083ACF0FD15811581D000D001A60208A60308A60408A60518181887068E037A00EB
:202E600074072BFCE43AFDC006C003C0027408C0E0E4C0E08C828D83125D44AC82AD831566
:202E8000811581D002D003D006D00774082CFCE43DFDE58124EEF8C3E69C08E664808DF003
:202EA00063F08095F0D0055003022F56EE247F5003022F56C00574072BFBE43AFCC007C099
:202EC000057408C0E0E4C0E08B828C83125D44C8E5812487C8A68208A68315811581D00583
:202EE000D007E58124ECF8740826FAE40836FDE5812491F8EA26FAED0836FD088606E58193
:202F0000248EF8A60208A60508A606E581248DF886048C037C007E40C007C005E5812489F7
:202F2000F8E6C0E008E6C0E0E581248AF8E6C0E008E6C0E008E6C0E08B828C838EF07823A2
:202F400079597A00120814E58124FBF581D005D007D00502325402329BE58124EFF8B610ED
:202F60000608B60002800302329BE58124EDF8740326FCE40836FEE5812492F8EC26FCEE01
:202F80000836FE0886038C828E838BF0125A6CFCE5812489F88600A604E58124EDF87404D4
:202FA00026FCE40836FEE5812492F8EC26FCEE0836FE0886038C828E838BF0125A6CFCE59F
:202FC000812488F88600A604E58124EDF8740526FCE40836FEE5812492F8EC26FCEE083624
:202FE000FE0886038C828E838BF0125A6CFCE5812487F88600A604E58124EDF8740626FC90
:20300000E40836FEC007C005C004C006E581248EF886820886830886F0781079257A001221
:203020000814AC82AE8315811581D005D007E5812481F88600A60408A60618E58124EDF8CF
:20304000740826FCE40836FEC007C005C004C006E581248EF886820886830886F0781079F4
:20306000257A00120814AC82AE8315811581D005D007A805A60408A606E58124EDF8740A54
:2030800026FCE40836FEC007C005C004C006E581248EF886820886830886F0781079257A91
:2030A00000120814AC82AE8315811581D005D007E581247EF88600A60408A60618E5812425
:2030C000EDF8740D26FCE40836FEE5812492F8EC26FCEE0836FE0886038C828E838BF012BF
:2030E0005A6CFCE5812480F88600A604E58124EDF8740E26FCE40836FEC007C005C004C099
:2031000006E581248EF886820886830886F0781079257A00120814AC82AE8315811581D0D9
:2031200005D007E581247FF88600A60408A60618023254E58124EFF8B6200608B6000280A1
:203140000302329BC005744E2FF9E58124ECF8740226FCE40836FEE5812491F8EC26FCEEB9
:203160000836FE0886038C828E838BF0125A6CF7744F2FF9E58124ECF8740326FCE4083605
:20318000FEE5812491F8EC26FCEE0836FE0886038C828E838BF0125A6CF7744A2FF9E581A0
:2031A00024ECF8740826FCE40836FEC007C005C001C004C006E581248CF886820886830843
:2031C00086F078FC79227A00120814AA82AB83ACF0FE15811581D001D005D007A70209A7CC
:2031E0000309A70409A706191919E58124ECF8741026FCE40836FEE5812491F8EC26FCEED4
:203200000836FE088603E581248EF8A60408A60608A603E5812482F886027D007E40C00734
:20322000C0057410C0E0E4C0E0E581248AF8E6C0E008E6C0E008E6C0E08A828D838EF07861
:203240002379597A00120814E58124FBF581D005D007D005E58124EDF8E58124EFF9E72667
:20326000F609E70836F6022B0E7E007D40E5812482F886047B007A40C007C006C0058C829B
:203280008B838AF078CE79CF7A01120814158115811581900742E4F0E4A3F0E581247DF58D
:2032A00081020826C082C083C0F0E5812422F58124DCF8740A26FAE40836FB0886048A82B5
:2032C0008B838CF0E58124EEF8125A6CF6A3125A6C08F6A3125A6C08F6901052E0242C24EE
:2032E0004CFBE43406FCE58124E9F8A60308A604087600E58124DCF8747A26FDE40836FE9A
:203300000886078D828E838FF0125A6CFDE58124E9F886820886830886F0ED125336E581B4
:2033200024E9F8740126FDE40836FE088607E58124EEF8741226FAE40836FB0886048A826A
:203340008B838CF0125A6C8D828E838FF0125336E58124EEF8741A26FDE40836FE088607FB
:203360008D828E838FF0125A6CFDA3125A6CFEC005C0067402C0E0E4C0E0E58124E5F8864E
:20338000820886830886F0786F79257A00120814E58124FCF58124E9F8740426FDE4083631
:2033A000FE0886078D828E838FF0E4125336E58124EEF8741326FAE40836FB0886048A828A
:2033C0008B838CF0125A6C60178D828E838FF0125A6CFC4304808D828E838FF0EC125336B4
:2033E0008D828E838FF0E58124DFF8125A6CF6E58124DCF8747D26FAE40836FB0886048A57
:20340000828B838CF0125A6CC40354F8FAE58124DFF8EA46F68D828E838FF0E58124DFF834
:20342000E6125336E58124EEF8741426FAE40836FB0886048A828B838CF0125A6CFA740761
:203440005AC8E58124DFC8468D828E838FF0125336E58124E9F8E58124E0F9740526F7E451
:20346000083609F70809E6F7E58124DCF8747C26FAE40836FB0886048A828B838CF0125A01
:203480006CFFE58124E0F886820886830886F0EF125336E58124D6F8E60846702A8A828B81
:2034A000838CF0125A6CFF2480500EEF04FE8A828B838CF0125336800EEF04547FFF8A82B3
:2034C0008B838CF0125336E58124E9F8740626FDE40836FE0886078D828E838FF0E4125322
:2034E00036E58124E9F8740726FDE40836FE0886078D828E838FF0E4125336E58124EEF84A
:203500008605088606088607E58124E9F8740826FAE40836FB0886047410C0E0E4C0E0C0D9
:2035200005C006C0078A828B838CF0782379597A00120814E58124FBF58124ECF8761808B5
:203540007600E58124DCF886820886830886F0125A6C70030238D7E58124DCF8740726FBAA
:20356000E40836FC0886058B828C838DF0125A6CFBA3125A6CFCA3125A6CFD740F2BFBE4B2
:203580003CFC8B828C838DF0125A6CFBA3125A6CFCA3125A6CFDC005C004C003C003C004C5
:2035A000C005E58124D6F886820886830886F0D002D001D000120814D003D004D005E581D4
:2035C00024ECF88604088605E58124ECF806B600020806E58124E9F8EC26FCED0836FD08E3
:2035E00086038C828D838BF07402125336E58124ECF88604088605E58124ECF806B60002E1
:203600000806E58124E9F8EC26FCED0836FD0886038C828D838BF07406125336E58124EC46
:20362000F88604088605E58124ECF806B600020806E58124E9F8EC26FCED0836FD08860309
:20364000E58124DCF886820886830886F0125A6CFA8C828D838BF0125336E58124ECF8867B
:2036600004088605E58124ECF806B600020806E58124E9F8E58124E0F9EC26F7ED0836096E
:20368000F70809E6F7E58124DCF8740126FAE40836FE0886078A828E838FF0125A6CC31353
:2036A000FDE58124E0F886820886830886F0ED125336E58124E9F8E58124ECF9E726FB09A1
:2036C000E70836FC0886058A828E838FF0125A6C5401035480FA8B828C838DF0125336E583
:2036E0008124ECF88606088607E58124ECF806B600020806E58124E9F8EE26FEEF0836FF3D
:203700000886058E828F838DF0E58124E0F8125A6CF6E58124DCF8740226FAE40836FB082E
:2037200086048A828B838CF0125A6CFAE58124DFF8EAC454F0F6E58124DCF8740326FAE475
:203740000836FB0886048A828B838CF0125A6CFAE58124DFF8EA46C8E58124E0C846FC8EDB
:20376000828F838DF0125336E58124DCF886820886830886F0125A6CFFBF0702800302384C
:2037800009E58124ECF88605088606E58124ECF806B600020806E58124E9F8ED26FDEE08E8
:2037A00036FE0886048D828E838CF07402125336E58124DCF8740526FCE40836FD088606EA
:2037C0008C828D838EF0125A6CFCA3125A6CFDC004C005E58124EAF8E6C0E008E6C0E0E513
:2037E0008124E5F886820886830886F0786F79257A00120814E58124FCF58124ECF8740209
:2038000026F6E40836F60238D7BF020280030238D4E58124ECF88606088607E58124ECF812
:2038200006B600020806E58124E9F8EE26FEEF0836FF0886058E828F838DF07402125336D0
:20384000E58124ECF88606088607E58124ECF806B600020806E58124E9F8E58124E0F9EEE3
:2038600026F7EF083609F70809E6F7E58124DCF8740526FAE40836FB0886048A828B838CC4
:20388000F0125A6CFFE58124E0F886820886830886F0EF125336E58124ECF886060886074F
:2038A000E58124ECF806B600020806E58124E9F8EE26FEEF0836FF0886050ABA00010B8A38
:2038C000828B838CF0125A6CFA8E828F838DF01253368003023F64E58124ECF88606088620
:2038E00007E58124ECF806B600020806E58124E9F8EE26FEEF0836FF0886058E828F838D9C
:20390000F07404125336E58124ECF88606088607E58124ECF806B600020806E58124E9F870
:20392000EE26FEEF0836FF0886058E828F838DF0740E125336E58124ECF88606088607E586
:203940008124ECF806B600020806E58124E9F8EE26FEEF0836FF0886058E828F838DF0E453
:20396000125336E58124ECF88606088607E58124ECF806B600020806E58124E9F8EE26FE66
:20398000EF0836FF088605E58124DCF8747E26FAE40836FB0886048A828B838CF0125A6CDB
:2039A000FA8E828F838DF0125336E58124ECF88606088607E58124ECF806B600020806E525
:2039C0008124E9F8EE26FEEF0836FF088605E58124DCF8747F26FAE40836FB0886048A8264
:2039E0008B838CF0125A6CFA8E828F838DF0125336E58124ECF88606088607E58124ECF834
:203A000006B600020806E58124E9F8EE26FEEF0836FF088605E58124DCF8748026FAE40840
:203A200036FB0886048A828B838CF0125A6C8E828F838DF0125336E58124DCF8748526FDA1
:203A4000E40836FE0886078D828E838FF0125A6CFDA3125A6CFEC005C006E58124EAF8E6E7
:203A6000C0E008E6C0E0E58124E5F886820886830886F0786F79257A00120814E58124FC67
:203A8000F58124ECF8740226F6E40836F6E58124DCF8748726FDE40836FE0886078D828E30
:203AA000838FF0125A6CFDA3125A6CFEC005C006E58124EAF8E6C0E008E6C0E0E58124E53C
:203AC000F886820886830886F0786F79257A00120814E58124FCF58124ECF8740226F6E4B0
:203AE0000836F6E58124DCF8740726FDE40836FE0886078D828E838FF0125A6CFDA3125A5E
:203B00006CFEA3125A6CFF74122DFDE43EFE8D828E838FF0125A6CFDA3125A6CFEC005C07F
:203B200006E58124EAF8E6C0E008E6C0E0E58124E5F886820886830886F0786F79257A0002
:203B4000120814E58124FCF58124ECF8740226F6E40836F6E58124ECF88606088607E58194
:203B600024ECF806B600020806E58124E9F8EE26FEEF0836FF0886058E828F838DF0E412A0
:203B80005336E58124ECF88606088607E58124ECF806B600020806E58124E9F8EE26FEEF67
:203BA0000836FF088605E58124DCF8748126FAE40836FB0886048A828B838CF0125A6C8E17
:203BC000828F838DF0125336E58124DCF8748926FDE40836FE0886078D828E838FF0125AFB
:203BE0006CFDA3125A6CFEC005C006E58124EAF8E6C0E008E6C0E0E58124E5F886820886DB
:203C0000830886F0786F79257A00120814E58124FCF58124ECF8740226F6E40836F6E58162
:203C200024EEF8E58124E6F9741F26F7E4083609F70809E6F7E58124E6F8741426FFE40850
:203C400036FE0886058F828E838DF0125A6C7003023E9AE58124ECF88603088604E58124C6
:203C6000ECF806B600020806E58124E9F8EB26FBEC0836FC0886028B828C838AF074081243
:203C80005336E58124ECF88603088604E58124ECF806B600020806E58124E9F8EB26FBEC75
:203CA0000836FC0886028B828C838AF0741E125336E58124ECF88603088604E58124ECF880
:203CC00006B600020806E58124E9F8E58124E3F9EB26F7EC083609F70809E6F78F828E8305
:203CE0008DF0125A6CFCE58124E3F886820886830886F0EC125336E58124ECF8860308866B
:203D000004E58124ECF806B600020806E58124E9F8EB26FFEC0836FE088605E58124E6F8C7
:203D2000741526FAE40836FB0886048A828B838CF0125A6C8F828E838DF0125336E58124F9
:203D4000E6F8E58124E3F9741026F7E4083609F70809E6F7E58124E3F88682088683088662
:203D6000F0125A6CFAA3125A6CFBA3125A6CFCA3125A6CFFC002C003C004C007E58124E898
:203D8000F8E6C0E008E6C0E0E58124E3F886820886830886F0781479247A00120814E581E4
:203DA00024FAF58124ECF8740426F6E40836F6E58124E3F886820886830886F0125A6CFCEB
:203DC000A3125A6CFDA3125A6CFEA3125A6CFFC004C005C006C007E58124E8F8E6C0E0086A
:203DE000E6C0E0E58124E3F886820886830886F0781479247A00120814E58124FAF5812452
:203E0000ECF8740426F6E40836F6E58124E9F8E58124ECF9E726FD09E70836FE08860774F9
:203E200004C0E0E4C0E0E4C0E08D828E838FF078B779587A00120814158115811581E58167
:203E400024ECF8740426F6E40836F6E58124E6F88605088606088607E58124E9F8E581249D
:203E6000ECF9E726FA09E70836FB0886047410C0E0E4C0E0C005C006C0078A828B838CF00B
:203E8000782379597A00120814E58124FBF58124ECF8741026F6E40836F6E58124D6F8E614
:203EA00008466003023F2EE58124F1F876FF087602E58124F1FF2402F87600087600740476
:203EC0002FF8760008760074062FF8760008760074082FF87600087600740A2FF876000878
:203EE0007600740C2FF87600087600740E2FF8760008761AE58124F1FF7E007D40E58124BB
:203F0000ECF8E6C0E008E6C0E07401C0E0E4C0E0749BC0E0E4C0E08F828E838DF07823792A
:203F2000D07A02120814E58124FAF5818036E58124ECF8E6C0E008E6C0E07401C0E0E4C01C
:203F4000E0749BC0E0E4C0E0E58124D0F886820886830886F0782379D07A02120814E58171
:203F600024FAF581E58124DBF581020826E581244DF581A881187600E58124E1F8E4F60859
:203F8000F60876007A4C7B0674082AFAE43BFB7F00E58124E4F9FC7D007E40C0017410C08A
:203FA000E0E4C0E0C002C003C0078C828D838EF0782379597A00120814E58124FBF581D0D5
:203FC00001901052E0242CFF244CFDE43406FEE58124FAF8A60508A606087600900742E024
:203FE000FAA3E0EAC39FFFE58124DAF8A607E58124FAF886820886830886F0125A6CF5828E
:20400000C001780F79B67A01120814AF82AE83ADF0D001E58124F7F8A60708A60608A60523
:20402000E58124F7F8E608467003024B44C001E58124F6F8748126FAE40836FB0886078A45
:20404000828B838FF0E58124B3F8125A6CF6E58124F9F8740126FAE40836FB0886078A8280
:204060008B838FF0A88118125A6CF6E58124DAF87604087600E58124F9F8740326FAE40852
:2040800036FB0886078A828B838FF0125A6CFAE58124FCF8A602087600E58124F6F8740A55
:2040A00026FAE40836FB0886078A828B838FF0E58124F3F8125A6CF6A3125A6C08F6A31224
:2040C0005A6C08F6A88118E6D00130E65CC001E58124F9F8740426FAE40836FB088607E547
:2040E0008124F3F88604088605088606C0017410C0E0E4C0E0C002C003C0078C828D838E1E
:20410000F078AD79557A00120814AE82AF83E58124FBF581D001D001EE4F6003024B44E5FF
:204120008124DBF876140876008707BFFF047F0280027F01E58124DFF8A607087600E5813A
:2041400024DFF8E4B6010508B6000104FD700302435C89047B007A40C005C001C004C00321
:20416000C002E58124EFF886820886830886F0788C79A27A01120814AA82AB83ACF0158121
:2041800015811581D001D005E58124E1F8A60208A60308A604E58124E1F8E60846700302D3
:2041A00042C2C005E58124E0F8740626FAE40836FB0886048A828B838CF0E58124B4F812AD
:2041C0005A6CF6A3125A6C08F6E58124F6F8748726FDE40836FE0886078D828E838FF0E5DB
:2041E0008124B6F8125A6CF6A3125A6C08F6C005C004C003C002C001E58124B1F8E6C0E09D
:2042000008E6C0E0E58124ADF88682088683125DBAC8E58124ADC8A68208A6831581158153
:20422000D001D002D003D004D005E58124F3F8741A26FDE40836FE0886078D828E838FF0E5
:20424000125A6CFDA3125A6CFEC005C004C003C002C001E58124B1F8E6C0E008E6C0E08D6D
:20426000828E83125DBAAE82AF8315811581D001D002D003D004D005E58124B4F8C3E69E58
:2042800008E69FD005503B8A828B838CF074FF125336A374FF125336E58124E1F8740B26D4
:2042A000FCE40836FE0886078C828E838FF0125A6CFB4303018C828E838FF0EB125336026F
:2042C0004B44E58124E1F8E60846700302435CE58124F4F8741726FCE40836FE0886078C40
:2042E000828E838FF0125A6CFCA3125A6CFEA3125A6CFFE58124E1F8C004C006C007868229
:204300000886830886F0124FE1158115811581704BE58124E1F8740626FCE40836FE0886A2
:20432000078C828E838FF074FF125336A374FF125336E58124E1F8740B26FCE40836FE08ED
:2043400086078C828E838FF0125A6CFB4303018C828E838FF0EB125336024B44E58124DBFE
:20436000F8C001E58124DCF9E6F70809E6F7D001E58124C7FCE58124B5F8A604E58124DAF7
:20438000F8C001E58124B6F9E6F7097700D001E58124DDF8C001E58124B6F9C3E69708E676
:2043A00064800987F063F08095F0D0014003024580C005E58124F9F8C001E58124DBF9E720
:2043C00026FA09E70836FD088607D0018A828D838FF0125A6CFFD005EF700CE58124BBF83D
:2043E00076010876008039C005E58124DCF8740126FAE40836FDE58124F9F8EA26FAED08BE
:2044000036FB0886058A828B838DF0125A6CFA7D00E58124BAF874022AF6E43D08F6D0052C
:20442000BF05028009BF060302453C024567C005E58124DCF8740326FAE40836FBE58124D3
:20444000F9F8EA26FAEB0836FB0886058A828B838DF0A8811818125A6CF68C027B007D4026
:20446000C005C004C0017410C0E0E4C0E0E4C0E08A828B838DF078B779587A001208141572
:204480008115811581D001D004D005A881181886037D0074072BFBE43DFDC005C004C0018D
:2044A0007408C0E0E4C0E08B828D83125D44C8E58124B3C8A68208A68315811581D001D099
:2044C00004D005E58124F9F8C001E58124DBF9E726FA09E70836FB088605D00174042AFA39
:2044E000E43BFBE58124BCF8A60208A60308A605E58124B4F886057E007F40C005C004C011
:2045000001E58124B5F8E6C0E008E6C0E0E58124B7F8E6C0E008E6C0E008E6C0E08D828ED7
:20452000838FF0782379597A00120814E58124FBF581D001D004D005D005802BE58124DD08
:20454000F8740526FEE40836FFE58124FAF8EE26FEEF0836FF0886038E828F838BF0E58157
:2045600024B4F8125A6CF6E58124DDF8C001E58124BAF9E726F609E70836F6D00102437C87
:204580008C077E007B408F828E838BF0C005C004C001786D79DD7A01120814AB82AE83AF77
:2045A000F0D001D004D005E58124D7F8A60308A60608A607E58124B4F8E660030247E1E598
:2045C0008124D7F8E6084670030247DEC001E58124D6F8C001E58124BBF9741626F7E408EE
:2045E0003609F70809E6F7D001E58124D6F8741E26FAE40836FE0886078A828E838FF01259
:204600005A6CD00160030247DEE58124D7F8741F26FBE40836FE0886078B828E838FF01208
:204620005A6CFBA88118E6B5030280030247DEE58124D7F886820886830886F0C00178DE27
:2046400079DC7A01120814AB82AE83AFF0D001EB4E70030247DE89078F057C007B40E581FA
:2046600024D7F886820886830886F0C005C004C003C00178DE79DC7A01120814AA82AE83F2
:20468000AFF0D001D003D004D005C0017410C0E0E4C0E0C005C004C0038A828E838FF07865
:2046A000AD79557A00120814AE82AF83E58124FBF581D001EE4F60030247DEE58124BDF8A3
:2046C000740826FBE40836FE0886078B828E838FF07401125336E58124BDF8868208868383
:2046E0000886F0743C125336A3E4125336A3E4125336A3E4125336E58124F4F8741726FD67
:20470000E40836FC0886038D828C838BF0125A6CFFA3125A6CFEA3125A6CFAEF4E700302DA
:2047200047A78F828E838AF0C005C004C003C00178E579857A01120814AA82AE83AFF0D012
:2047400001D003D004D005EA4E605C8D828C838BF0125A6CFBA3125A6CFEA3125A6CFF8BFE
:20476000828E838FF0C00178E579857A01120814AB82AE83AFF0E58124B6F8E6C0E008E6B9
:20478000C0E07402C0E0E4C0E0749BC0E0E4C0E08B828E838FF0782379D07A02120814E59C
:2047A0008124FAF581D001A881E630E731E58124FDF8860789067B007A40C007C006C0039C
:2047C000C002E58124F3F886820886830886F07804794F7A00120814E58124FCF581024BD6
:2047E0004489077E007B408F828E838BF0C005C004C00178B0799B7A03120814AB82AE8380
:20480000AFF0D001D004D005EB4E60030248D2C00575820FC005C004C00178C079C67A03BE
:20482000120814AB82AE83AFF0D001D004D005E58124BFF8A60308A60608A60789027D0078
:204840007F40C004C0017401C0E0E4C0E0E58124BBF8E6C0E008E6C0E008E6C0E08A828D03
:20486000838FF078E579987A03120814AD82AE83AFF0E58124FBF581D001D004E58124BF35
:20488000F8A60508A60608A607ED4ED0056040E58124C0F8741026FBE40836FE088607C000
:2048A00005C004C0017458C0E07402C0E0E4C0E0C0E08B828E838FF0787379807A041208AF
:2048C00014E58124FCF581D001D004D0058003024B44C005E58124E0F8868208868308866C
:2048E000F0C005C004C00178C379D97A01120814D001D004D00589077E007B40A8811818AC
:20490000C001E58124BEF9E6F70977008C027C007D40C007C006C003E58124BBF8E6C0E05E
:2049200008E6C0E0C002C004C005E58124EAF886820886830886F0781079BB7A0312081434
:20494000AD82AE83AFF0E58124F8F581D001E58124D6F8A60508A60608A607D005E58124C4
:20496000D7F8E608467003024B44C001E58124D6F8C001E58124BEF9741626F7E408360943
:20498000F70809E6F7D001E58124F6F8748926FAE40836FB0886078A828B838FF0125A6CA9
:2049A000FAA3125A6CFBE58124C2F8A60208A603087600087600E58124B3F886037C007E36
:2049C000007F00C005C001C003C004C006C007E58124BCF886820886830886F008E6125A8F
:2049E00088AB82AC83AEF0FFE58124FCF581D001D005E58124BFF886820886830886F0EBD1
:204A0000125336A3EC125336A3EE125336A3EF125336E58124D6F8741D26FCE40836FE0845
:204A20008607E58124DEF886038C828E838FF0EB125336E58124D6F8741E26FCE40836FEB0
:204A40000886078C828E838FF0E4125336D001ED7003024B3CE58124F4F8741726FDE408DA
:204A600036FE0886078D828E838FF0125A6CFAA3125A6CFBA3125A6CFCEA4B7003024B0515
:204A80008A828B838CF0C007C006C005C00178E579857A01120814AA82AB83ACF0D001D0D2
:204AA00005D006D007EA4B605C8D828E838FF0125A6CFDA3125A6CFEA3125A6CFF8D828E4F
:204AC000838FF0C00178E579857A01120814AD82AE83AFF0E58124B6F8E6C0E008E6C0E0C4
:204AE0007402C0E0E4C0E0749BC0E0E4C0E08D828E838FF0782379D07A02120814E5812432
:204B0000FAF581D001A881E630E731E58124FDF8860789067D007C40C007C006C005C00413
:204B2000E58124F3F886820886830886F07804794F7A00120814E58124FCF581900742E4C4
:204B4000F0E4A3F0E58124B3F581020826C082C083C0F0E5812410F58124F1FCFA7B007FC1
:204B6000408A828B838FF0C00478DA79217A00120814E5828583F0D00445F07002802E7FFD
:204B8000007E40E58124EAF8E6C0E0C004C007C006E58124EAF886820886830886F078B6E3
:204BA000794B7A00120814E58124FCF581E58124EDF581020826C082C083C0F0E5812406AB
:204BC000F58178F279B57A03120814AC82BC0103024EF0E58124F8F8E608467003024EF08D
:204BE000E58124F8F8740326FAE40836FB0886048A828B838CF0E58124FBF8125A6CF6A371
:204C0000125A6C08F6A3125A6C08F6E58124FBF8E608467003024EF0E58124FBF8741C26AE
:204C2000FDE40836FE0886078D828E838FF0125A6CFDA3125A6CFEA3125A6CFFED4E7003AD
:204C4000024EF0E58124F2F8E608467003024EF0901052E0242C244CFBE43406FCA88118D1
:204C600018A60308A60408760090108EE0FC2480500890108EEC04F08008EC0490108E5435
:204C80007FF0747A2DFAE43EFB8F048A828B838CF0125A6CFAA88118188682088683088678
:204CA000F0EA125336A8811818740126FAE40836FB0886048A828B838CF0E41253368A82C1
:204CC0008B838CF0125A6CFF4307408A828B838CF0EF125336A8811818740226FDE40836B5
:204CE000FE0886078D828E838FF0E4125336A8811818740326FDE40836FE08860790108E2D
:204D0000E08D828E838FF0125336E58124FBF88605088606088607A8811818740426FAE473
:204D20000836FB0886047410C0E0E4C0E0C005C006C0078A828B838CF0782379597A00121F
:204D40000814E58124FBF581A8811818741426FDE40836FE0886078D828E838FF074051259
:204D60005336A8811818741526FDE40836FE0886078D828E838FF07412125336A8811818D7
:204D8000741626FDE40836FE0886078D828E838FF0E4125336A8811818741726FDE408366A
:204DA000FE0886078D828E838FF07480125336E58124F2F88605088606088607A8811818B1
:204DC000741826FAE40836FB0886047410C0E0E4C0E0C005C006C0078A828B838CF078234D
:204DE00079597A00120814E58124FBF581A8811818742826FDE40836FE0886078D828E8351
:204E00008FF07406125336A8811818742926FDE40836FE0886078D828E838FF074041253B4
:204E200036A8811818742A26FDE40836FE0886078D828E838FF0E4125336A8811818742B57
:204E400026FDE40836FE0886078D828E838FF0E4125336A8811818742C26FDE40836FE0818
:204E600086078D828E838FF0E4125336A8811818742D26FDE40836FE0886078D828E838F06
:204E8000F0E58124F1F8E6125336E58124F8F886820886830886F078E579857A0112081419
:204EA000AD82AE83AFF0ED4E6046E58124F8F886820886830886F078E579857A01120814FD
:204EC000AD82AE83AFF0742EC0E0E4C0E07402C0E0E4C0E0749BC0E0E4C0E08D828E838F91
:204EE000F0782379D07A02120814E58124FAF581E58124F7F581020826900742E4F0E4A3DF
:204F0000F0020826AD82AE83AFF0901052E0242C244CFBE43406FC7A00747A2DFDE43EFE19
:204F20008D828E838FF0125A6C8B828C838AF012533674012BFDE43CFE8A078D828E838FCE
:204F4000F0E412533674022BFDE43CFE8A078D828E838FF0E58124FAF8E612533674032B57
:204F6000FBE43CFC8B828C838AF0E41253367404C0E0E4C0E07403C0E0E4C0E0749BC0E01F
:204F8000E4C0E0E58124F5F886820886830886F0782379D07A02120814E58124FAF58102F5
:204FA000082690108F75F00078E279C77A0212081490109775F00078E279C77A021208140B
:204FC00090109F75F00078E279C77A021208149010A775F00078E279C77A021208140208EF
:204FE00026E58124FCC3C8C0E0C082E608467006E5824583601218E58296F58208E58396BB
:20500000428208E5F0964582D082C8D0E0C822E5812406F5817E007F007C007D00C006C05C
:2050200007EC241EFAED340FFBE58124F9F8A60208A60308760075820FC007C006C005C0AC
:205040000478C079C67A03120814C8E58124F8C8A68208A68308A6F0E58124F5F8E6C0E024
:2050600008E6C0E008E6C0E0E58124F5F886820886830886F0786F798C7A04120814AA8242
:20508000AB83158115811581D004D005D006D007D007D006EA4B603A75820AC005C004784C
:2050A0006779C67A03120814AF82AE83D004D005EC241EFAED340FFB74082AF582E43BF510
:2050C00083E0FB7A00EFB50323EEB5021F900001801D74092CFCE43DFD0EBE00010FC3EEEC
:2050E0009410EF64809480500302501D900000E58124FAF581020826E5812408F5817E0023
:205100007F00A88118E4F608F67A007B00C006C007EA241EFEEB340FFFE58124F7F8A606F9
:2051200008A60708760075820FC003C00278C079C67A03120814AC82AE83AFF0E58124F512
:20514000F8E6C0E008E6C0E008E6C0E08C828E838FF0786F798C7A04120814AE82AF831508
:205160008115811581D002D003EE4FD007D00660070EBE002D0F802A74092AFAE43BFBA877
:20518000811806B600020806A881188606088607A88118C3E6941008E6648094805003027F
:2051A000510D1EBEFF011F8E048F05C005C0047409C0E0E4C0E08E828F831254D5C8E581BB
:2051C00024F5C8A68208A68315811581D004D005C3E49CE464808DF063F08095F04003029B
:2051E000526F8C03EB14C2D575F00930E704B2D5F404A430D50AF42401C5F0F43400C5F063
:20520000241EFA740F35F0FBE58124FCF8A60208A603087600E58124F9F8E6241EFE08E6CB
:20522000340FFF7B00C005C0047409C0E0E4C0E0E58124F8F8E6C0E008E6C0E008E6C0E06B
:205240008E828F838BF0782379597A00120814E58124FBF581D004D005E58124F9F8E62473
:20526000F7F608E634FFF61CBCFF011D0251D075820A786779C67A03120814AE82900F2653
:20528000EEF075820F78C079C67A03120814AD82AE83AFF0C005C006C007900F1E75F00095
:2052A0007837798C7A04120814158115811581E58124F8F581020826758120125E07E582B0
:2052C000600302006E7968E94401601B7A02907E9578AF75930FE493F2A308B800020593AE
:2052E000D9F4DAF27593FFE478FFF6D8FD7800E84400600A7900759300E4F309D8FC78AB82
:20530000E8440F600C7910900000E4F0A3D8FCD9FA90059FE4F0E4F50FF510E4F511F512C9
:20532000900000E4F0E4A3F0E4A3F0E4A3F0900EF0E4F002006E20F71130F6138883A8823C
:2053400020F509F6A8837583002280FEF280F5F022C013858113C082C083C0F0E581240A48
:20536000F581A81308E513240BF9E6F70809E6F70809E6F7E51324FAF8E5132404F9E6F717
:205380000809E6F70809E6F7097700A8130886040886050886067F00E5132404F8C3E69C61
:2053A00008E69D08E69E08E69F400302544EA813088605088606088607E51324F8F8E62DCC
:2053C000FD08E63EFE1DBDFF011EE51324FAF88602088603088604E51324F8F8E62AFA08D7
:2053E000E63BFB1ABAFF011BE5132408F8A60208A60308A604E51324F8F8E5132404F9E670
:20540000F70809E6F7E5132404F88603088604E5132404F816B6FF020816EB4C7003025471
:20542000C0E5132408F886820886830886F0125A6CFCE5132408F816B6FF0208168D828E81
:20544000838FF0EC1253361DBDFF011E80B7A813088605088606088607E51324FAF8E51317
:205460002404F9E6F70809E6F70809E6F7E51324F8F8E5132408F9E6F70809E6F7E5132442
:2054800008F88603088604E5132408F816B6FF020816EB4C602AE5132404F88682088683F8
:2054A0000886F0125A6CFCA31818A68208A6838D828E838FF0EC125336A3AD82AE8380BD08
:2054C000E513240BF886820886830886F0851381D013020826C013858113C082C083E58113
:2054E0002408F581AF130FE5132403F8A607087600087640E51324FCFCE5132406F8A60461
:20550000087600087640E5132409F9E5132403F886820886830886F0125A6CFCE51324068D
:20552000F886820886830886F0125A6C8CF0A4F709A7F0E513240904F98704E5132403F889
:2055400086820886830886F0125A6CFBE5132406F8740126FAE40836FE0886078A828E8360
:205560008FF0125A6C8BF0A4FBE5132403F8740126FDE40836FE0886078D828E838FF012A5
:205580005A6CFDE5132406F886820886830886F0125A6C8DF0A42B2CF7E5132409F98706A5
:2055A0000987078E828F83851381D01322C013E581F5132406F581AD82AE83AFF0E5132418
:2055C000F8F8E60846700690000002569AE51324F8F886030886041BBBFF011CEB4C7003EC
:2055E00002566AC003C004A81308A60508A60608A607A8130886820886830886F0125A6C59
:20560000FAE51324FAF8E5132404F9E6F70809E6F70809E6F7E5132404F886820886830877
:2056200086F0125A6CFCEAB504028006D004D0038038A81308740126FAE40836FB0886048F
:205640008A058B068C07E5132404F8740126FAE40836FB088604E51324FAF8A60208A603D4
:2056600008A604D004D0030255D78D828E838FF0125A6CFD7F00E51324FAF8860308860487
:205680000886068B828C838EF0125A6CFB7E00EDC39BFDEF9EFF8D828F83851381D0130298
:2056A0000826C013858113AC82AD83AEF0FF05817B00A813087600E51324FAF8080808E68F
:2056C000235401FA704DE51324FAF8E625E0F608E633F608E633F608E633F6E51324FAF859
:2056E000C3EC96ED0896EE0896EF0896501AE51324FAF8080808E6C313F618E613F618E67A
:2057000013F618E613F6800BA8130806A81308860380A4E51324FAF8C3EC96ED0896EE08E1
:2057200096EF08964015E51324FAF8ECC396FCED0896FDEE0896FEEF0896FFE51324FAF8F6
:20574000080808E6C313F618E613F618E613F618E613F68B021BEA70BA8C828D838EF0EF23
:205760001581D01322C013858113058105810581AD82AE83AFF0E51324F8F8E6084670065B
:20578000900000025825E51324FAF88602088603088604E51324F8F8A91309E6F70809E69C
:2057A000F7A8130816B6FF020816A81308E60846604C8D828E838FF0E5132403F8125A6C13
:2057C000F6E5132403F8E66035C005C006C0078A828B838CF0125A6CFFE5132403F8E6B5D0
:2057E00007028008D007D006D0058012D007D006D0050DBD00010E0ABA00A60B80A38D8202
:205800008E838FF0125A6CFD3395E0FF8A828B838CF0125A6CFA3395E0FEEDC39AFDEF9E9A
:20582000FF8D828F83851381D013020826C013858113C082C083C0F0C0E07A007B007E00E8
:205840007F007D20A81308080808E6339200A81308E625E0F608E633F608E633F608E633B3
:20586000F6EA2AFAEB33FBEE33FEEF33FF300003430201E51324FAF8C3EA96EB0896EE0882
:2058800096EF0896401CE51324FAF8EAC396FAEB0896FBEE0896FEEF0896FFA81308E644B7
:2058A00001F6DDA0A8130886820886830886F008E6851381D01322C013858113C082C0839D
:2058C000C0F005810581A813088602088603088604E51324FAF8E5132404F9E6F70809E6A3
:2058E000F7E5132404F88606088607E5132404F816B6FF020816EE4F60168A828B838CF02C
:20590000E51324FCF8E6125336A3AA82AB8380D1A8130886820886830886F0851381D01352
:20592000020826C013E581F5132408F581AD82AE83AFF0E5132406F8A60508A60608A60727
:20594000E51324FAF8A91309E6F70809E6F70809E6F7E51324F8F8E5132404F9E6F70809A8
:20596000E6F7E5132404F88603088604E5132404F816B6FF020816EB4C6028A8130886828A
:205980000886830886F0125A6CFCA31818A68208A6838D828E838FF0EC125336A3AD82AED2
:2059A0008380BFE5132406F886820886830886F0851381D013020826C01385811378EF797C
:2059C0001E7A00120814D013020826C013858113AD82AE83AFF0E51324FCF8E6C0E0C005A8
:2059E000C006C007E4C0E0C0E0C0E09059B875F00078DB796A7A00120814AE82AF83E581AA
:205A000024F9F5818E828F83D013020826C013858113E51324FAFFC007E51324FAF8E6C042
:205A2000E008E6C0E008E6C0E0E4C0E0C0E0C0E09059B875F00078DB796A7A00120814AE14
:205A400082AF83E58124F9F5818E828F83D013020826AA82AB83125A6C6003A380F8C3E50C
:205A6000829AF582E5839BF58302082620F71430F6148883A88220F507E6A8837583002207
:205A8000E280F7E49322E022C013858113C082C083C0F0C0E0E5812408F581E5132409F92B
:205AA0002402F8AF130F8F06C000A8068606E51324FAFDFC0C0CA8048604D0008EF0ECA42D
:205AC000F608A6F08F068E0086068D048C0086048EF0ECA4F709A7F0E51324092403F9876B
:205AE000068F0474032CF886048D038B0086038CF0EBA42EF787068F0474022CF886048D43
:205B000003EB04F886038CF0EBA42EF7E51324092402F98704098706198F0374022BF886B3
:205B2000038D028A0086028BF0EAA4ABF02CFCEB3EFEA70409A706198704098706198F0388
:205B4000EB04F886038D02EA04F886028BF0EAA4ABF02CFCEB3EFEA70409A7068F06740378
:205B60002EF98F06EE04F886068D0474022CF886048EF0ECA4F78F06EE04F98F06EE04F83A
:205B800086068D048C0086048EF0ECA4F709A7F08D0674032EF98F068E0086068D04740345
:205BA0002CF886048EF0ECA4F78D06EE04F98F068E0086068D04EC04F886048EF0ECA4F7FD
:205BC00009A7F08D0177008F017700E5132409F9E5132405F8E7F609E708F609E708F60920
:205BE000E708F6191919A813088602088603088606088607E5132405F8EA26F6EB0836F632
:205C0000EE0836F6EF0836F6E5132405F8E6F70908E6F70908E6F70908E6F7191919E70944
:205C2000E709E709E7E51324FAF88604088605088606088607E5132405F8EC26FCED0836F7
:205C4000FDEE0836FEEF08368C828D838EF0851381D01322C013858113AE82E583FF33E49C
:205C600033FD6009C3E49EFBE49FFC80048E038F04E51324FCF808E630E70FE51324FCF8F0
:205C8000C3E496FE08E496FF800AE51324FCF88606088607C005C006C0078B828C83125CB1
:205CA000C2AE82AF8315811581D005ED600DC3E49EFCE49FFD8C828D8380048E828F83D010
:205CC0001322C013858113AE82AF837D007C00E51324FCF808E6235401FB7032E51324FC1D
:205CE000F808E618C625E0C63308F6E51324FCF8C3EE96EF08965011E51324FCF808E61889
:205D0000C313C613C608F680050C8C0580C1E51324FCF8C3EE96EF0896400DE51324FCF86C
:205D2000EEC396FEEF0896FFE51324FCF808E618C313C613C608F68D041DEC70D18E828F8F
:205D400083D01322C013858113AE82E583FF33E433FD6009C3E49EFBE49FFC80048E038F25
:205D600004E51324FCF808E633E433FF600FE51324FCF8C3E496FA08E496FE800AE51324FC
:205D8000FCF88602088606C007C005C002C0068B828C83125DBAAC82AE8315811581D0053A
:205DA000D007EF6D600DC3E49CFDE49EFF8D828F8380048C828E83D01322C013858113AE1F
:205DC00082AF837C007D007B10EF339200EFCE25E0CE33FFEDCC25E0CC33FD3000034304E1
:205DE00001E51324FCF8C3EC96ED08964010E51324FCF8ECC396FCED0896FD430601DBC9AB
:205E00008E828F83D0132275820022C013858113AF8274302FFF24C6500B74072FFF300035
:205E20000474202FFFE51324F7F8E6C0E008E6C0E008E6C0E0E51324FAF8E6C0E008E6C0AD
:205E4000E008E6C0E08F82D002D001D000120814158115811581D013020826C01385811361
:205E6000E582FFC4540FFEC007C020E51324F7F8E6C0E008E6C0E008E6C0E0E51324FAF835
:205E8000E6C0E008E6C0E008E6C0E0A20092F085F0208E82780B795E7A00120814E581240B
:205EA000FAF581D020D00753070FE51324F7F8E6C0E008E6C0E008E6C0E0E51324FAF8E6A1
:205EC000C0E008E6C0E008E6C0E0A20092F085F0208F82780B795E7A00120814E58124FAB6
:205EE000F581D013020826C0138581130581A982870409870509870609870719191974046C
:205F000029F8C000A813087620D000C001E626FAEF235401FBEA4203A603EC2CFCED33FD45
:205F2000EE33FEEF33FF8603C000E51324FCF8C3EB96D000D0014012C000E51324FCF8EBD6
:205F4000C396FBD000A603430401C000A8130816E6D000600280B4A70409A70509A7060928
:205F6000A7071581D013020826C013858113C082C083C0F0C0E0E581241FF581E513240AC4
:205F8000F87600C204E5132409F87680C020E4C0E0C0E0C0E0C0E0A8130886820886830892
:205FA00086F008E61278D1AB82E58124FCF581D020EB6012D204A81308E6F608E6F608E665
:205FC000F608E6B2E7F6C02074FFC0E0C0E0747FC0E0744BC0E0A81308868208868308865F
:205FE000F008E6127C5BAB82E58124FCF581D020EB70030261667F00C007C020E4C0E0C030
:20600000E07420C0E07441C0E0A8130886820886830886F008E61278D1AB82E58124FCF5CC
:2060200081D020D007EB703BC007C020E4C0E0C0E07420C0E07441C0E0A8130886820886D5
:20604000830886F008E6127A0CA81308A68208A68308A6F008F6E58124FCF581D020D0073E
:206060000F8095C007C020E4C0E0C0E07480C0E0743FC0E0A8130886820886830886F008E8
:20608000E61278D1AB82E58124FCF581D020D007EB603BC007C020A81308E6C0E008E6C0AB
:2060A000E008E6C0E008E6C0E090000075F0207441127ADAA81308A68208A68308A6F008F2
:2060C000F6E58124FCF581D020D0071F8095E5132409F8A60730043FC020E51324F5F8E6C7
:2060E000C0E008E6C0E008E6C0E0E51324F8F8E6C0E008E6C0E008E6C0E075822DD002D070
:2061000001D000120814158115811581D020E513240AF87601804030023DC020E51324F519
:20612000F8E6C0E008E6C0E008E6C0E0E51324F8F8E6C0E008E6C0E008E6C0E075822BD025
:2061400002D001D000120814158115811581D020E513240AF87601E51324FCF87600C200DF
:20616000C201C202C203E51324FBF8B6FF07E51324FBF876067B007D007E007F3FE513242D
:20618000FBF886048C02EA6048C002C020E4C0E0C0E07420C0E07441C0E08B828D838EF078
:2061A000EF127A0CC8E5132405C8A68208A68308A6F008F6E58124FCF581D020D002E513FC
:2061C0002405F886030886050886060886071A80B5C020C003C005C006C007A8130886824A
:2061E0000886830886F008E6127901A81308A68208A68308A6F008F6E58124FCF581D020F2
:20620000A8130886820886830886F008E6C020127C21AB82AD83AEF0FFD020E513241BF88E
:20622000A60308A60508A60608A607E513241BF886820886830886F008E6C020127C48AA85
:2062400082AD83AEF0FFD020C020C002C005C006C007A8130886820886830886F008E612B1
:206260007ACFAB82AD83AEF0FFE58124FCF581D020E513241FF8A60308A60508A60608A6FE
:2062800007E5132405F8E513240BF67C00E513241BF8E6084608460846700302631F8C07BC
:2062A0000CE5132405F8EF26F9C004C001C020740AC0E0E4C0E0C0E0C0E0E513241BF886AF
:2062C000820886830886F008E61256A2AB82E58124FCF581D020D00174302BF7C020740AA7
:2062E000C0E0E4C0E0C0E0C0E0E513241BF886820886830886F008E612582DAB82AD83AEE4
:20630000F0FFE58124FCF581D020D004E513241BF8A60308A60508A60608A60702628DECFD
:20632000FF700DEC04FFE5132405F8EC26F87630E51324FBF88604E5132423F8A6078C051B
:20634000ED70058D04026439C007C005C020E513241FF8E6C0E008E6C0E008E6C0E008E67C
:20636000C0E090000075F0207441127ADAAA82AB83AEF0FFE58124FCF581D020E513241F2F
:20638000F8A60208A60308A60608A607E513241FF886820886830886F008E6C020127C21FC
:2063A000AA82AB83AEF0FFD020E513241BF8A60208A60308A60608A607E5132423F8860741
:2063C000E5132423F806E5132405F8EF26F9E513241BF8860374302BF7E513241BF88682A4
:2063E0000886830886F008E6C020127C48AA82AB83AEF0FFD020C020C002C003C006C00791
:20640000E513241FF886820886830886F008E6127ACFAA82AB83AEF0FFE58124FCF581D0A6
:2064200020D005E513241FF8A60208A60308A60608A6071DD0070263408F06E51324FBF835
:20644000E6600AE51324FBF8E604FD80027D008E03ED2BFDFE2004062002033003010E3092
:206460000003026718E51324FCF8C3EC9640030267182001030265B4300447C007C006C078
:2064800020E51324F5F8E6C0E008E6C0E008E6C0E0E51324F8F8E6C0E008E6C0E008E6C063
:2064A000E075822DD002D001D000120814158115811581D020D006D007E513240AF80602B2
:2064C0006552300246C007C006C020E51324F5F8E6C0E008E6C0E008E6C0E0E51324F8F869
:2064E000E6C0E008E6C0E008E6C0E075822BD002D001D000120814158115811581D020D0B5
:2065000006D007E513240AF8068047300344C007C006C020E51324F5F8E6C0E008E6C0E0B2
:2065200008E6C0E0E51324F8F8E6C0E008E6C0E008E6C0E0758220D002D001D00012081467
:20654000158115811581D020D006D007E513240AF806E513240AF88605E51324FCF8860475
:206560008C031CC3EE9B40030267F4C007C006C005C004C020E51324F5F8E6C0E008E6C051
:20658000E008E6C0E0E51324F8F8E6C0E008E6C0E008E6C0E0758230D002D001D00012082B
:2065A00014158115811581D020D004D005D006D0070D80ACE513240AF88603E51324FCF8CF
:2065C0008602C0078A071AC3EE9FD0075049C007C006C003C002C020E51324F5F8E6C0E080
:2065E00008E6C0E008E6C0E0E51324F8F8E6C0E008E6C0E008E6C0E0758220D002D001D047
:2066000000120814158115811581D020D002D003D006D0070B80ABE513240AF8A603E51353
:2066200024FCF8A60230044DC007C006C003C020E51324F5F8E6C0E008E6C0E008E6C0E03E
:20664000E51324F8F8E6C0E008E6C0E008E6C0E075822DD002D001D000120814158115819B
:206660001581D020D003D006D007E513240AF8EB04F602680230024DC007C006C003C020F6
:20668000E51324F5F8E6C0E008E6C0E008E6C0E0E51324F8F8E6C0E008E6C0E008E6C0E0A1
:2066A00075822BD002D001D000120814158115811581D020D003D006D007E513240AF8EBDC
:2066C00004F6026802200303026802C007C006C003C020E51324F5F8E6C0E008E6C0E0086D
:2066E000E6C0E0E51324F8F8E6C0E008E6C0E008E6C0E0758220D002D001D0001208141599
:206700008115811581D020D003D006D007E513240AF8EB04F6026802300447C007C006C025
:2067200020E51324F5F8E6C0E008E6C0E008E6C0E0E51324F8F8E6C0E008E6C0E008E6C0C0
:20674000E075822DD002D001D000120814158115811581D020D006D007E513240AF806020F
:206760006802300246C007C006C020E51324F5F8E6C0E008E6C0E008E6C0E0E51324F8F813
:20678000E6C0E008E6C0E008E6C0E075822BD002D001D000120814158115811581D020D012
:2067A00006D007E513240AF8068057300354C007C006C020E51324F5F8E6C0E008E6C0E0F0
:2067C00008E6C0E0E51324F8F8E6C0E008E6C0E008E6C0E0758220D002D001D000120814C5
:2067E000158115811581D020D006D007E513240AF806800EE513240AF8A605E51324FCF8AF
:20680000A604EF14FDE513240AF88604E5132405F8ED26F98703C007C006C005C004C02081
:20682000E51324F5F8E6C0E008E6C0E008E6C0E0E51324F8F8E6C0E008E6C0E008E6C0E0FF
:206840008B82D002D001D000120814158115811581D020D004D005D006D0070C8D031DEBDE
:2068600070AAE513240AF8A604E51324FBF8E6700302692EC007C006C004C020E51324F5F3
:20688000F8E6C0E008E6C0E008E6C0E0E51324F8F8E6C0E008E6C0E008E6C0E075822ED0BB
:2068A00002D001D000120814158115811581D020D004D006D007E513240AF8EC04F6E513D8
:2068C000240AF88605E51324FBF886048C031CEB60558F030FE5132405F8EB26F98703C015
:2068E00007C006C005C004C020E51324F5F8E6C0E008E6C0E008E6C0E0E51324F8F8E6C005
:20690000E008E6C0E008E6C0E08B82D002D001D000120814158115811581D020D004D00572
:20692000D006D0070D80A5E513240AF8A605300068E51324FCF8C3EE96505EE513240AF8F4
