:020000040000FA
:0400000002526F3207
:01000B0032C2
:0100130032BA
:01001B0032B2
:0100230032AA
:03002B0002204D63
:01003300329A
:01003B003292
:01004300328A
:03004B0002218906
:01005300327A
:01005B003272
:01006300326A
:20006B000207720202DCC082C083E5812404F5817C007D00C374C89CE464808DF063F080E5
:20008B0095F0500B7490C39CFA74019DFB80048C028D03E58124FBF886078F82C007C005C2
:2000AB00C004C003C002787A79837A04120814D002D003D004D005D007E58124FDF8E4F6D4
:2000CB0008F6E58124FDF8C3E69A08E664808BF063F08095F0501DE58124FDF8A98119E69B
:2000EB00F70809E6F7E58124FDF8740126F6E40836F680CE8F82C005C004C003C002789073
:20010B0079837A04120814D002D003D004D005E58124FDF8E4F608F674C8C39AFEE49BFF72
:20012B00E58124FDF8C3E69E08E664808FF063F08095F0501DE58124FDF8A98119E6F70831
:20014B0009E6F7E58124FDF8740126F6E40836F680CE0CBC00010DC3EC9490ED64809481A9
:20016B00500302007FE58124FAF58122E5812408F5817E0C7F78E58124F9FD7C07EC2DF9E6
:20018B008E828F83E0FBA3AE82AF83A7031CEC30E7EB74072DF987077E0074062DF98704C6
:2001AB008C03E44207EB42068D047B007A40C007C006C0057408C0E0E4C0E0C004C003C046
:2001CB000290031075F00078DA79587A00120814E58124FBF581907DFFE493FAA3E493FBB2
:2001EB00A3E493FCC004C003C00274CDC0E074ABC0E0C002C003C004900002D002D001D0A7
:20020B000012081415811581D002D003D004D005D006D007907DFFE493FAA3E493FBA3E465
:20022B0093FCC005C004C003C002C007C006C002C003C004900003D002D001D0001208140C
:20024B0015811581D002D003D004D005907DFFE493FCA3E493FEA3E493FFC007C006C00517
:20026B00C0047419C0E0E4C0E0C004C006C007900001D002D001D00012081415811581D07F
:20028B0004D005D006D007907E05E493FCA3E493FEA3E493FF7B007A40C007C006C004741C
:2002AB0008C0E0E4C0E0C005C003C002C004C006C007900009D002D001D000120814E581CC
:2002CB0024FBF581D004D006D007E58124F8F58122787E791F7A0012081478E979AC7A04A9
:2002EB0012081478BE79837A04120814782079837A04120814758207789079837A0412080D
:20030B0014900001120071784279A07A0312081478E079217A00120814908C6D75F0047828
:20032B000179087A0012081478A2798E7A04120814900002120071907C5475F08078E87988
:20034B00937A04120814907C6F75F08078E879937A0412081490624AE0FFBF8D028042BFF1
:20036B009502802CBFA5028005BFB5448011907C8075F08078E879937A0412081480319031
:20038B007C8775F08078E879937A041208148020907C8E75F08078E879937A04120814809B
:2003AB000F907C9575F08078E879937A04120814907C9C75F08078E879937A041208149050
:2003CB006277E0FF0F8F82781B79947A04120814907CA475F08078E879937A0412081478C9
:2003EB00DE79827A0412081490000078A779A47A04120814E4C0E0C0E0C0E090105075F0DC
:20040B0000781C799A7A03120814158115811581781579DA7A0312081478BF79947A04125E
:20042B000814120177E4C0E0C0E0C0E09010A475F000781C799A7A0312081415811581150B
:20044B0081907D14E493FDA3E493FEA3E493FFC007C006C0057401C0E0E4C0E0C005C006D4
:20046B00C007900081D002D001D00012081415811581D005D006D007907D04E493FDA3E43E
:20048B0093FEA3E493FFC007C006C0057401C0E0E4C0E0C005C006C007900081D002D001B6
:2004AB00D00012081415811581D005D006D0077408C0E0E4C0E07410C0E07403C0E0E4C006
:2004CB00E09006A175F00078DA79587A00120814E58124FBF58178A5799C7A04120814E40D
:2004EB00C0E0C0E0C0E090103375F000781C799A7A03120814158115811581E4C0E0C0E0A1
:20050B00C0E09010E575F000781C799A7A0312081415811581158178F2791E7A0012081489
:20052B00907CAD75F080789679A27A0212081478E479827A0412081490000412007178EAC3
:20054B0079827A04120814900E80E0FF6057785279AD7A03120814E5828583F045F0604066
:20056B00788E79AD7A03120814AE82AF83C007C0067863791F7A00120814AC82AD83D0065B
:20058B00D007EEC39CFEEF9DFF1EBEFF011FC374FF9E747F9F5009786779AA7A031208143C
:2005AB00900E80E4F078D879A27A03120814AE82AF83EE7089907DF3E493FDA3E493FEA3B0
:2005CB00E493FFC007C006C005C005C006C007D002D001D000120814858208858309D00560
:2005EB00D006D007E50845097003020549789A79B97A03120814907DEAE493FDA3E493FED3
:20060B00A3E493FFC007C006C005787979BD7A03120814AA82AB83ACF0D005D006D007C05A
:20062B0007C006C0057480C0E0E4C0E0C005C006C0078A828B838CF0D002D001D000120890
:20064B001485820885830915811581D005D006D007E508450970030205498508828509838F
:20066B00786B79BD7A03120814907E33E493FDA3E493FEA3E493FFC007C006C005C005C0EE
:20068B0006C007D002D001D000120814D005D006D00702054920812090000A75F040782572
:2006AB0079967A04120814AE82AF83EE4FB40100E433FE7003FF80027F01EF3395E0FE8F73
:2006CB00828E83020826AE82AF83BE8105BF00028006BE8210BF000D740255ABFF7E008FC1
:1506EB00828E838003900000020826AE82AF83BE8005BF0002BE
:200700008008BE8167BF0064801D438F02AF8C74FE5FF58CAFF374FD5FF5F3AFFD74FD5FB4
:20072000F5FD9000018048E58124FCF8E60846602DE5AB20E131E4C0E0C0E090000A75F04A
:2007400040786679957A0412081415811581AF8974FD5FF589C2C543AB02D2BD8009AFAB26
:2007600074FD5FF5ABC2BD9000018003900000020826C020C0E0C0F0C082C083C007C00674
:20078000C005C004C003C002C001C000C0D075D000C2AFE58930E14190000A75F0407825E8
:2007A00079967A04120814E5828583F045F060297410C0E0E4C0E090000A75F04078667923
:2007C000957A0412081415811581907D0E75F08078E4798F7A04120814AF8974FD5FF58916
:2007E000C2C5D2AFD0D0D000D001D002D003D004D005D006D007D083D082D0F0D0E0D020B0
:2008000032AFF0AE83E582900218F0EEA3F0EFA3F0020826C09FC8C0E0E9C0E0EA540F53B2
:200820009FF0429FC822D09F22C082C083E5812405F58124F4F88607088606088603E5811B
:2008400024F2F8E62FFA08E63EFC8B05A8811818EA24FFF6EC34FF08F608A6058F028E0474
:200860008B05A8811818E6C0E008E6C0E008E6C0E08A828C838DF0125241158115811581EE
:2008800050668A828C838DF0125A23FBE58124FCF808A60318760074012AFBE43CFE8D0777
:2008A0008B828E838FF0125A23FB7F00E58124FCF8EB26FBEF0836FF8B06E58124FAF8EEE1
:2008C00026F6EF0836F6E58124FAF8C3E69E08E69F500BE58124FAF806B600020806740270
:2008E0002AFAE43CFC020862A8811818C002C004C00586820886830886F0125241158115C1
:20090000811581600280348A828C838DF0125A23FA7D008A077E00E58124FAF8EE26F6EF88
:200920000836F6E58124FAF8C3E69E08E69F500BE58124FAF806B600020806E58124FAF814
:200940008682088683E58124F9F581020826AD82AE83AFF0E58124FCF8E6C0E008E6C0E0C4
:20096000C005C006C007900000782979087A00120814AE82AF83E58124FBF5818E828F834C
:20098000780B791D7A00120814AE82AF830208267428C0E0E4C0E074ACC0E07406C0E0E486
:2009A000C0E0900000782979087A00120814AE82AF83E58124FBF581EE4FB40100E433FDDA
:2009C00060067CFF7DFF80118E828F83780B791D7A00120814AC82AD838C828D830208269A
:2009E00005810581AF827DAC7E068D828E83A3A3A3A3E0FD7E007BAC7C068B828C83A3A3FB
:200A0000A3A3A3E07B002EFEEB3DFD9010BCE0FC7B00EEC39CFEED9BFDA88118A60608A623
:200A2000057E00A88118EF26FFEE0836FE7CAC7D0674082CFCE43DFD7B007420C0E0E4C0F4
:200A4000E0C004C005C0038F828E83782979087A00120814AC82AD83E58124FBF5818C0792
:200A60008D069010BCE0242824ACFCE43406FD7B00A88118E6C0E008E6C0E0C004C005C05B
:200A8000038F828E83782979087A00120814AC82AD83E58124FBF5818C078D06EF4EB401F6
:200AA00000E433FD60067CFF7DFF80118F828E83780B791D7A00120814AC82AD838C828D58
:200AC000831581158102082675823A78E079097A00120814AE82AF8302082675821178E092
:200AE00079097A00120814AE82AF83020826780079807A02120814788C79D67A0212081422
:200B000078B579C67A021208149007ABE4F07404A3F09007AAE4F09007AAE075F01BA42420
:200B2000B0FE740735F0FF74102EF582E43FF583E4F0E4A3F09007AAE02401F09007AAE002
:200B4000FFBF0A0040D10208269010BCE0FF7003020C0F8F057E0074282DFBE43EFC900736
:200B6000A2E0F9A3E0FAC3E99BEA9C500F9010BCE4F09007A2F0E4A3F0020C0FE924D8F986
:200B8000EA34FFFAE9C39DF9EA9EFAEF24D4FFE43406FE7D00C001C002C007C006C0059096
:200BA00006D475F000780879537A00120814E58124FBF5819010BCE0FF7E009007A2E0FC39
:200BC000A3E0FD9007A2ECC39FF0ED9EA3F07EAC7F0674042EFEE43FFF9007A2E0FCA3E0F3
:200BE000FDEC24D8ED34FFFC8E828F83ECF07EAC7F0674052EFEE43FFF9007A2E0FCA3E0E8
:200C0000FDEC24D8FC8E828F83F09010BCE4F0020826C082C083C0F0E5812406F5819007AF
:200C2000ABE02401F0A3E03400F09007ABE0FBA3E0FCC3947D40099007ABE4F07410A3F087
:200C40009007AAE4F09007AAE075F01BA424B0FB740735F0FC74102BF582E43CF583E0FB36
:200C6000A3E0FC9007ABE0FAA3E0FF8A828F83C004C003780B791D7A00120814AE82AF838F
:200C8000D003D004EBB50606ECB5070280909007AAE02401F09007AAE0FCBC0A0040A6A8A0
:200CA000811818E4F608F60876009007AAE4F09007AAE0FF75F01BA424B0FD740735F0FE65
:200CC00074102DF582E43EF583E0FBA3E0FC4B700EA8811818A60508A606087600801090D9
:200CE00007AAEF04F09007AAE0FFBF0A0040C0A8811818E608467008900000F5F0020E01EC
:200D0000A8811818E58124FBF9741026F7E4083609F70809E6F79007ABE0FBA3E0FC8B071D
:200D20007A008C037C00EB4202EC4207E58124FBF886820886830886F0EA1252EDA3EF12D7
:200D400052EDA8811818741226FDE40836FE0886078D828E838FF0E58124F3F8E61252ED52
:200D6000A308E61252EDE58124F8F8E60846702DA881181886050886060886077410C0E015
:200D8000E4C0E0E4C0E08D828E838FF0786E79587A00120814158115811581803BE5812446
:200DA000F8F88605088606088607A881181886020886030886047410C0E0E4C0E0C005C05E
:200DC00006C0078A828B838CF078DA79587A00120814E58124FBF581A8811818741426FDE6
:200DE000E40836FE08860790032EE0FC8D828E838FF01252EDA881181886820886830886B1
:200E0000F0C8E58124F7F581C8020826E5812404F5819010BD7402F09010BCE0FF242824B9
:200E2000ACFDE43406FE8D828E83A3E0FEE40354F8CEC403CE6ECE54F8CE6EFD74082EFE4D
:200E4000E43DFD9010BDE0FCFA7B00C3EA9EEB64808DF063F08095F04003020FA474282F14
:200E60002C24ACF582E43406F583E0FE600ABE0102800DBE636A80249010BDEC04F080984F
:200E800074282F2C24ACFDE43406FE8D828E83A3E0FE24029010BD2CF0020E188A828B83F0
:200EA000784A79DE7A03120814E5828583F045F06006758201020FA79010BCE02428FE90AE
:200EC00010BDE0FD2E24ACFBE43406FE8B828E83A3E0FE24029010BD2DF0758200020FA765
:200EE00074282F2C24ACF582E43406F583E0FE5306C0BE0003020F82BE4002800CBE800207
:200F00008025BEC00280088079758201020FA77DAC7E0674182DF582E43EF583E0FEBEFF69
:200F200006758201020FA78F03E4FCFDFEE58124FDF874282BF6E43C08F6E43D08F6E43EF3
:200F400008F69010BDE0FAE4FFFEFDE58124FDF8EA26FAEF0836FBEE0836FCED0836FDC0BD
:200F600002C003C004C0057402C0E0758204782579CC7A02120814E58124FBF58175820292
:200F8000802574282FFF9010BDE0FD2F24ACFCE43406FF8C828F83A3E0FF24029010BD2D3E
:200FA000F0020E18758200E58124FCF581020826AF82BF0403021AC990079C74E8F0740621
:200FC000A3F0E4A3F090079F74E8F07406A3F0E4A3F0BF056E9007ADE0FDA3E0FEA3E0FFAB
:200FE00074102DFDE43EFE8D828E838FF0125A23FDA3125A23FE4D7003021CF39007A7E4D5
:20100000F0E4A3F0E4A3F090079C74DCF07406A3F0E4A3F090079F74DCF07406A3F0E4A3F1
:20102000F09007A4E4F0E4A3F09007A2E4F0E4A3F09007A67408F07817798D7A03120814CD
:20104000021AC99006ACE0FF5307F0BF60028003021CF37EAC7F068E828F83A3A3A3A3E04E
:20106000FE7F007CAC7D068C828D83A3A3A3A3A3E07C002FFFEC3EFE9007A2E0FCA3E0FDB4
:20108000C3EC9FED9E5003021CF37EAC7F068E828F83A3A3A3A3E0FE7F007CAC7D068C82A0
:2010A0008D83A3A3A3A3A3E0FD7C002FFFEC3EFE9007A274282FF0E43EA3F07EAC7F067476
:2010C000082EF582E43FF583E0FFBFFF03021CF37EAC7F0674062EFEE43FFF7D009006A9E4
:2010E000EEF0EFA3F0EDA3F09010BCE4F09010BBF08E828F838DF0125A2370539010BB74D5
:2011000001F0780C790E7A00120814AF82BF0002800EBF0103021CF3BF0203021CEC802F5A
:201120009010BCE0FF242824ACFDE43406FE8D038E049006A9EBF0ECA3F0E4A3F08D828E70
:2011400083A3E0C40354F8FE24089010BC2FF07EAC7F0674182EFEE43FFF7D008E828F83A9
:201160008DF07882798A7A02120814AD82AE83AFF0ED4E600302160F7EAC7F0674182EFE20
:20118000E43FFF7D008E828F838DF07855798D7A02120814AD82AE83AFF0ED4E60030216DF
:2011A0000F7EAC7F0674182EF582E43FF583E0FFBFFF030214167EAC7F0674182EF582E415
:2011C0003FF583E0FFBFFE157EAC7F0674192EF582E43FF583E0FFBF80030214167EAC7F35
:2011E0000674082EF582E43FF583E0FFBFFE157EAC7F0674092EF582E43FF583E0FFBF80F2
:20120000030214167EAC7F0674082EF582E43FF583E0FEA3E0FF4E60030212B57EAC7F06AB
:20122000740A2EF582E43FF583E0FEA3E0FF4E60030212B57EAC7F06740C2EF582E43FF52A
:2012400083E0FEA3E0FF4E706C7EAC7F06740E2EF582E43FF583E0FEA3E0FF4E70577EAC71
:201260007F0674102EF582E43FF583E0FEA3E0FF4E70427EAC7F0674122EF582E43FF58350
:20128000E0FEA3E0FF4E702D7EAC7F0674142EF582E43FF583E0FEA3E0FF4E70187EAC7FAD
:2012A0000674162EF582E43FF583E0FEA3E0FF4E70030214167EAC7F0674182EF582E43F0E
:2012C000F583E0FEA3E0FF4E60030213757EAC7F06741A2EF582E43FF583E0FEA3E0FF4ED0
:2012E00060030213757EAC7F06741C2EF582E43FF583E0FEA3E0FF4E707B7EAC7F06741EA8
:201300002EF582E43FF583E0FEA3E0FF4E70667EAC7F0674202EF582E43FF583E0FEA3E025
:20132000FF4E70517EAC7F0674222EF582E43FF583E0FEA3E0FF4E703C7EAC7F0674242E4B
:20134000F582E43FF583E0FEA3E0FF4E70277EAC7F0674262EFEE43FFF8E828F83E0701518
:201360007EAC7F0674272EF582E43FF583E0FFBF01030214169007A2E0FEA3E0FFC3E49E37
:2013800074059F5024E4C0E07405C0E0E4C0E0C0E0E4C0E0758202782579CC7A02120814F7
:2013A000E58124FBF581021CEC7EAC7F0674072EF582E43FF583E0FF24FE4021E4C0E0C018
:2013C000E0C0E0C0E0E4C0E0758203782579CC7A02120814E58124FBF581021CEC788E795F
:2013E000E27A03120814E5828583F045F06003021CF37EAC7F0674072EFEE43FFF7CAC7D3B
:201400000674072CF582E43DF583E0FD1D8E828F83EDF0021CEC7EAC7F0674082EF582E458
:201420003FF583E0FFBFFE028003021CF37EAC7F0674092EF582E43FF583E0FFBF800280B7
:2014400003021CF37EAC7F0674082EF582E43FF583E0FEA3E0FF4E60030214F57EAC7F0642
:20146000740A2EF582E43FF583E0FEA3E0FF4E60030214F57EAC7F06740C2EF582E43FF5A6
:2014800083E0FEA3E0FF4E706C7EAC7F06740E2EF582E43FF583E0FEA3E0FF4E70577EAC2F
:2014A0007F0674102EF582E43FF583E0FEA3E0FF4E70427EAC7F0674122EF582E43FF5830E
:2014C000E0FEA3E0FF4E702D7EAC7F0674142EF582E43FF583E0FEA3E0FF4E70187EAC7F6B
:2014E0000674162EF582E43FF583E0FEA3E0FF4E7003021CF37EAC7F0674182EF582E43FE7
:20150000F583E0FEA3E0FF4E60030215B57EAC7F06741A2EF582E43FF583E0FEA3E0FF4E4B
:2015200060030215B57EAC7F06741C2EF582E43FF583E0FEA3E0FF4E707B7EAC7F06741E23
:201540002EF582E43FF583E0FEA3E0FF4E70667EAC7F0674202EF582E43FF583E0FEA3E0E3
:20156000FF4E70517EAC7F0674222EF582E43FF583E0FEA3E0FF4E703C7EAC7F0674242E09
:20158000F582E43FF583E0FEA3E0FF4E70277EAC7F0674262EFEE43FFF8E828F83E07015D6
:2015A0007EAC7F0674272EF582E43FF583E0FFBF0103021CF37EAC7F0674182EF582E43FEB
:2015C000F583E0FFBFFF03021CF37EAC7F0674182EFEE43FFF7D008E828F838DF0789379B9
:2015E000867A02120814E5826003021CF3E4C0E0C0E0C0E0C0E07402C0E075820178257958
:20160000CC7A02120814E58124FBF581021CEC9006A9E0FDA3E0FEA3E0FF8D828E838FF091
:20162000125A23FF6026BF1103021846BF2B0302171EBF2C03021CF3BF3A030217E3BF3B4E
:2016400003021CF3BF3C0280650217AA9010BBE0FF30E0030217AA9010BB74014FF0780C2E
:20166000790E7A00120814AF82BF0002800EBF0103021CF3BF0203021CEC80939010BCE0CA
:20168000FF242824ACFDE43406FE8D038E049006A9EBF0ECA3F0E4A3F08D828E83A3E0C47D
:2016A0000354F8FE24089010BC2FF002160F9010BBE0FF30E110EF30E6030217AA9010BB8E
:2016C00074404FF080079010BB74024FF0780C790E7A00120814AF82BF0002800FBF010389
:2016E000021CF3BF0203021CEC02160F9010BCE0FF242824ACFDE43406FE8D038E049006BC
:20170000A9EBF0ECA3F0E4A3F08D828E83A3E0C40354F8FE24089010BC2FF002160F90102D
:20172000BBE0FF30E2030217AA9010BB74044FF09010BCE0FF242824ACFDE43406FE74033E
:201740002DFDE43EFE8D828E83E060308F057E00742A2DFDE43EFE3395E0FCFBC005C0068B
:20176000C004C003E4C0E0758204782579CC7A02120814E58124FBF581021CEC74282F24E3
:20178000ACFDE43406FE8D038E049006A9EBF0ECA3F0E4A3F08D828E83A3E0C40354F8FE9E
:2017A00024089010BC2FF002160F9006A9E0FDA3E0FEA3E0EDC394ACFDEE9406FE3395E020
:2017C000FFFCC005C006C007C0047401C0E0758204782579CC7A02120814E58124FBF58161
:2017E000021CEC78C8790A7A00120814AE82AF83BEFF05BFFF028003021CF39010BCE0249C
:201800002824ACFEE43406FF8E048F058C828D83A3E0FD8E828F83E0FEC0058E82788379A8
:20182000C77A02120814AF821581BF01089007A2E4F0E4A3F09007A2E0FEA3E0FF4E7003CA
:20184000021CF3021CEC7849790B7A001208149007A2E0FEA3E0FFEE24D0FEEF34FFFF9056
:2018600007A2EEF0EFA3F090079C74DCF07406A3F0E4A3F07ED47F0674062EF582E43FF55A
:2018800083E0FEA3E0FF4E601878DB790A7A00120814AE82AF83BEFF05BFFF028003021C9C
:2018A000F37ED47F068E828F83A3A3E0FEA3E0FF4E7003021CF39007AD74B0F07407A3F05E
:2018C000E4A3F09007ADE0FDA3E0FEA3E0FF74BEC0E07408C0E0E4C0E08D828E838FF0124A
:2018E00052411581158115814003021CF374102DFAE43EFB8F048A828B838CF0125A23FBC4
:20190000A3125A23FC4B7003021A7E79D47A0689828A83A3A3E0F9A3E0FAE9B50306EAB57A
:2019200004028003021A7E74122DFDE43EFE8D828E838FF0125A23FEA3125A23FF4E601594
:201940009006D4E0FCA3E0FDECB50606EDB507028003021A7E9007ADE0FDA3E0FEA3E0FF28
:201960008D028E038F048A828B838CF0125A23FAA3125A23FB4A6003021A3C74022DFAE4E2
:201980003EFB8F048A828B838CF0125A23FAA3125A23FB4A6003021A3C74042DFAE43EFB6E
:2019A0008F048A828B838CF0125A23FAA3125A23FB4A6003021A3C74062DFAE43EFB8F04F2
:2019C0008A828B838CF0125A23FAA3125A23FB4A706A74082DFAE43EFB8F048A828B838C9E
:2019E000F0125A23FAA3125A23FB4A704F740A2DFAE43EFB8F048A828B838CF0125A23FAC4
:201A0000A3125A23FB4A7034740C2DFAE43EFB8F048A828B838CF0125A23FAA3125A23FB08
:201A20004A7019740E2DFDE43EFE8D828E838FF0125A23FDA3125A23FE4D60519007ADE08A
:201A4000FDA3E0FEA3E0FF7BAC7C0674082BFBE43CFC7A007410C0E0E4C0E0C005C006C0B2
:201A6000078B828C838AF0786479557A00120814AE82AF83E58124FBF581EE4F600F9007D7
:201A8000ADE0241BF0A3E03400F00218C39007A7E4F0E4A3F0E4A3F09007A67402F09007CC
:201AA0009C74DCF07406A3F0E4A3F090079F74DCF07406A3F0E4A3F09007A4E4F0E4A3F046
:201AC0007817798D7A031208149007A4E0FEA3E0FF4E7003021CF39007A274302EF0E43F3B
:201AE000A3F07CAC7D068C828D83A3A3A3A3EE2408E43FF07EAC7F0674052EFEE43FFF90CB
:201B000007A2E0FCA3E0EC24D88E828F83F07EAC7F0674072EFEE43FFF9007ADE0FBA3E0A9
:201B2000FCA3E0FD74142BFBE43CFC8B828C838DF0125A238E828F83F07EAC7F0674062ECE
:201B4000F582E43FF5837411F07ED47F0674042EFEE43FFF9007A4E0FCA3E0FD74082CFC26
:201B6000E43DFD8C037A008D047D00EC4202ED42038E828F83EAF0EBA3F07ED47F06740603
:201B80002EF582E43FF583E4F0E4A3F07ED47F069007ADE0FBA3E0FCA3E0FD74102BFBE437
:201BA0003CFC8B828C838DF0125A23FBA3125A23FC8E828F83EBF0ECA3F07ED47F067402D3
:201BC0002EFEE43FFF9007ADE0FBA3E0FCA3E0FD74122BFBE43CFC8B828C838DF0125A23A9
:201BE000FBA3125A23FC8E828F83EBF0ECA3F09007ADE0FDA3E0FEA3E0FF7BAC7C067418E7
:201C00002BFBE43CFC7A007410C0E0E4C0E0C005C006C0078B828C838AF078DA79587A00DB
:201C2000120814E58124FBF5817EAC7F0674182EFEE43FFF7D007BAC7C0674082BFBE43C0A
:201C4000FC7A00C006C007C0058B828C838AF078D7798E7A021208141581158115819007CD
:201C60009C74E8F07406A3F0E4A3F07ED47F0674062EFEE43FFFC007C00678DB790A7A007C
:201C8000120814AC82AD83D006D007ECF4FCEDF4FD8E828F83ECF0EDA3F07ED47F06740682
:201CA0002EF582E43FF583E0FEA3E0FF4E70147ED47F0674062EF582E43FF58374FFF0744A
:201CC000FFA3F0783B79EA7A031208149006AC7460F07EAC7F068E828F83A3E4F07EAC7FBA
:201CE000068E828F83A3A3E4F0E4A3F09007A6E4F080159007A2E4F0E4A3F09010BCE4F0D1
:201D00009010BBF09007A6F0020826AE82AF838E057C008F067F00EE4204EF42058C828D91
:201D200083020826AC82AD83AEF0FF8C028D038A0178008B027B00EA4200EB42018902885F
:201D400003790078008E048F058C077E008D047D00EC4206ED4207E4FDFCEE4200EF4201A1
:201D6000ED4203EC4202888289838BF0EA020826C082C083C0F0E5812405F58190079FE006
:201D8000FAA3E0FBA3E0FCEA4B7003021E148A058B068C07E58124FCF8A60508A60608A632
:201DA000077EE87F06E58124FCF8E6C39EFE08E69FFF74B4C39EFEE49FFFE58124F4F8C3A0
:201DC000E69E08E664808FF063F08095F05010E58124F4F8A98119E6F70809E6F780308AB8
:201DE000058B068C07E58124FCF8A60508A60608A6077EE87F06E58124FCF8E6C39EFE0872
:201E0000E69FFFA8811874B4C39EF6E49F08F6A881188029E58124F4F8C3E694B408E6645A
:201E2000809480500CE58124F4F8860708860680047FB47E00A88118A60708A606A8811803
:201E4000C3E496E464800886F063F08095F04003021EE6A881189007A4E6F008E6A3F0E5A6
:201E60008124F9F8C002C003C00486820886830886F01252411581158115816069EA4B7017
:201E8000367DE87F06FEA88118E6C0E008E6C0E0E58124F7F8E6C0E008E6C0E008E6C0E0B4
:201EA0008D828F838EF078DA79587A00120814E58124FBF581802FA88118E6C0E008E6C099
:201EC000E0E58124F7F8E6C0E008E6C0E008E6C0E08A828B838CF078DA79587A00120814A6
:201EE000E58124FBF581E58124F8F581020826020826020826900000E4F5F00208260208CC
:201F000026AE82AF83C2AF8E048F051EBEFF011FEC4D60030080F0D2AF020826AE82AF8388
:201F2000C007C0067863791F7A00120814AC82AD83D006D007C007C006C005C00478637984
:201F40001F7A00120814AA82AB83D004D005D006D007EAC39CFAEB9DFBC3EA9EEB9F40D55A
:201F6000020826850F82851083020826AC11AD127E007F008C828D838EF0EF02082675C664
:201F8000C0AFC674BF5FF5C6E59E20E6FB43C630E5C6B59EFB900000E595F0E4A3F0E4A311
:201FA000F0E4A3F0AC967D007E008E078D068C057C00900000E0F8A3E0F9A3E0FAA3E0FB69
:201FC000900000EC28F0ED39A3F0EE3AA3F0EF3BA3F0AC977D008D078C067D007C009000CD
:201FE00000E0F8A3E0F9A3E0FAA3E0FB900000EC28F0ED39A3F0EE3AA3F0EF3BA3F090003D
:2020000000E0FCA3E0FDA3E0FEA3E0FF900000ECF074012DA3F0E43EA3F0E43FA3F09000C5
:2020200000E0A3E0A3E0FEA3E08E97900000E0A3E0FDA3E0A3E08D96900000E0FCA3E0FD0F
:20204000A3E0FEA3E0FF8C95D2AD020826C0E0C082C083C007C006C005C004C003C002C02D
:2020600001C000C0D075D000C2AF900000E595F0E4A3F0E4A3F0E4A3F0AC967D007E008E2F
:20208000078D068C057C00900000E0F8A3E0F9A3E0FAA3E0FB900000EC28F0ED39A3F0EE7F
:2020A0003AA3F0EF3BA3F0AC977D008D078C067D007C00900000E0F8A3E0F9A3E0FAA3E0D3
:2020C000FB900000EC28F0ED39A3F0EE3AA3F0EF3BA3F0900000E0FCA3E0FDA3E0FEA3E050
:2020E000FF900000ECF074012DA3F0E43EA3F0E43FA3F0900000E0A3E0A3E0FEA3E08E97B9
:20210000900000E0A3E0FDA3E0A3E08D96900000E0FCA3E0FDA3E0FEA3E0FF8C95740125FC
:202120000FF50FE43510F510E50F547F6002800B74012511F511E43512F512900E80740134
:20214000F0C2C7D2AFD0D0D000D001D002D003D004D005D006D007D083D082D0E03275E469
:202160000975AF0075E644C2DED2B9020826AE82AF83ADE674FB5DF5E68EDC8FDD43E60499
:2021800075AF0043E640020826C020C0E0C0F0C082C083C007C006C005C004C003C002C072
:2021A00001C000C0D075D000C2B9AFAF74FD5FF5AFAFE674BF5FF5E6788179847A041208AC
:2021C00014D2B9D0D0D000D001D002D003D004D005D006D007D083D082D0F0D0E0D02032ED
:2021E00075C2D875C50BAFF174FE5FF5F143F30CAF8074DF5FF58043FD28AFFD74EB5FF5D5
:20220000FD75C40275868043C480020826AF82C2E98FC110E90280FB020826C082C083C03D
:20222000F0E5812404F5817B007C00A88118E4F608F67D007E00C003C004E58124FBF8EDAE
:20224000243CF6EE340308F6E58124FBF8741126F582E40836F583E0FF7A00E58124FBF8F6
:202260008682088683E0D004D003700302230CEF4A600BBF0105BA0002800302230CC0037E
:20228000C004E58124FDF8E6243CFB08E63403FC8B828C83A3E0FCBCFE028006D004D00315
:2022A0008023E58124FDF8E6243CFB08E63403FC8B828C83A3A3E0FCBC8006D004D00380F3
:2022C0004BD004D003A88118E6243CFA08E63403FF0ABA00010F7E00E58124FAF886050806
:2022E00086040886037410C0E0E4C0E0C002C007C0068D828C838BF078DA79587A0012087C
:2023000014E58124FBF5819000018028A88118741C26F6E40836F6741C2DFDE43EFE0BBBD0
:2023200000010CC3EB9403EC648094805003022236900000E58124F9F581020826C082C0FF
:2023400083C0F0E5812404F58124FAF8E58124F5F9E726FA09E70836FB0886048A828B83DC
:202360008CF0125A23FAE4E58124FDF8080808A6021818187600087600087600E58124F5FC
:20238000F8740126FDE40836FEE58124FAF8ED26FDEE0836FE0886078D828E838FF0125A37
:2023A00023FD7F008F048D06E4FFFDE58124FDF8ED46F6EF0846F6EE0846F6EC0846F6E556
:2023C0008124F5F8740226FAE40836FBE58124FAF8EA26FAEB0836FB0886078A828B838FD0
:2023E000F0125A23FA7F007E008E058F068A077A00E58124FDF8EA46F6EF0846F6EE084620
:20240000F6ED0846F6E58124F5F8740326FBE40836FCE58124FAF8EB26FBEC0836FC08862C
:20242000078B828C838FF0125A23FBE4FFFEFDE58124FDF8E6420308E6420708E642060873
:20244000E642058B828F838EF0EDC8E58124F9F581C8020826C082C083C0F00581058105C6
:2024600081E58124F6F88603088604E58124F6F874012BF6E43C08F6E58124FBF8EB26FB93
:20248000EC0836FC088602E58124F2F808080886078B828C838AF0EF1252EDE58124F6F81F
:2024A0008606088607E58124F6F874012EF6E43F08F6E58124FBF8EE26FEEF0836FF088680
:2024C00005E58124F2F8080886048E828F838DF0EC1252EDE58124F6F88606088607E5810E
:2024E00024F6F874012EF6E43F08F6E58124FBF8EE26FEEF0836FF088605E58124F2F80846
:2025000086048E828F838DF0EC1252EDE58124F6F88606088607E58124FBF8A9811919EEF5
:2025200026F7EF083609F70809E6F7E58124F2F886027B007C007F00A88118188682088602
:20254000830886F0EA1252EDE58124FAF581020826C082C083C0F0A8811818E58124F9F90B
:20256000E726FA09E70836FB0886048A828B838CF0125A23FC7A00E58124F9F8740126FBED
:20258000E40836FFA8811818EB26FBEF0836FF0886068B828F838EF0125A23FB7F0042020B
:2025A000EF42048A828C83158115811581020826C082C083C0F0E58124F9F886030886040E
:2025C000E58124F9F874012BF6E43C08F6A8811818EB26FBEC0836FC088602E58124F7F838
:2025E0000886078B828C838AF0EF1252EDE58124F9F88606088607A8811818EE26FEEF0872
:2026000036FF088605E58124F7F886037C008E828F838DF0EB1252ED1581158115810208CD
:20262000267DB97E057F00749EC0E07406C0E0E4C0E08D828E838FF0125241158115811567
:202640008140030226C9747B2DFAE43EFB8F048A828B838CF0125A23FABA01637BAC7C0619
:2026600074182BF582E43CF583E0FCBCFF1D8D828E838FF0C007C006C005784B79A97A028E
:20268000120814D005D006D00780347BAC7C0674082BFBE43CFC7A00C007C006C005C003E0
:2026A000C004C0028D828E838FF078E579327A00120814158115811581D005D006D007748D
:2026C000E52DFDE43EFE0226279007A2E4F0E4A3F0020826C082C083C0F0E5812410F58183
:2026E0009010BCE0242C24ACFBE43406FC8B058C067F008D028E038F040DBD00010E8D822D
:202700008E838FF0E41252ED8A828B838CF0E41252EDE58124EEF8E60846705FE58124F13B
:20272000F876FF087602E58124F1FF2402F8760008760074042FF8760008760074062FF8EC
:20274000760008760074082FF87600087600740A2FF87600087600740C2FF87600087600BA
:20276000740E2FF8760008761AE58124F1FFE58124EEF8A6070876000876407402C0E0E4D5
:20278000C0E0E4C0E0C0E0749BC0E0E4C0E0E58124E8F886820886830886F0782F79D07AD7
:2027A00002120814E58124FA24EDF581020826E5812483F5812496FFFC7D007E40C0077400
:2027C00057C0E0E4C0E0E4C0E08C828D838EF0786E79587A00120814158115811581D00766
:2027E000E5812489F8741A2FF6E5812489F886007608E5812488F8741B2FF6E5812488F844
:202800008600760CE5812487F8741C2FF6E5812487F88600760A74222FFDA8057600087680
:2028200001E5812481F874202FF6E5812481F88600760008760718E581247EF874102FF696
:2028400090114BE0FAA3E0FBE581247EF88600A60208A60318E5812480F8741D2FF6E5811F
:202860002480F8860076FFE581247FF8741E2FF6E581247FF8860076FF0876FF187AAC7BD7
:202880000674082AFAE43BFBE5812483F8A60208A603087600E5812482F8E58124F1F6E542
:2028A000812482F886027B007C40C007C0057410C0E0E4C0E0E581247FF8E6C0E008E6C0D1
:2028C000E008E6C0E08A828B838CF078DA79587A00120814E58124FBF581D005D007E5811C
:2028E0002482F886047B007A408C828B838AF0C007C00578D679917A03120814AA82AB83FC
:20290000ACF0D005D007EA4B60030229CBC00575820FC007C00578DD79BF7A03120814AAA8
:2029200082AB83ACF0D005D007E5812482F8A60208A60308A604E5812481F886058D037CF6
:20294000007D40C0077401C0E0E4C0E0E581247FF8E6C0E008E6C0E008E6C0E08B828C839B
:202960008DF0780B798F7A03120814AB82AC83ADF0E58124FBF581D007E5812482F8A6032C
:2029800008A60408A605EB4CD005603CE5812483F8741026FAE40836FB088604C007C00546
:2029A0007458C0E07402C0E0E4C0E0C0E08A828B838CF0780079807A04120814E58124FC38
:2029C000F581D005D00780030232DCC0059007A2E0FBA3E09010BCE0242CFCEBC39CFBE534
:2029E000812494F8A603EC24ACFCE43406FAE5812491F8A60408A60208760074182FFDE5A5
:202A0000812491F886820886830886F0125A23FCA805A60474172FFDE5812491F8740126AA
:202A2000FAE40836FB0886048A828B838CF0125A23FAA805A60274122FFDC007C0057402C5
:202A4000C0E0E4C0E0E581248DF886820886830886F0785179257A00120814AB82AC83152C
:202A6000811581D005D007A805A60308A60474142FF9E5812491F8740426FAE40836FB080B
:202A800086048A828B838CF0125A23FD74805DF774152FF98A828B838CF0125A235438C41C
:202AA00023541FF774162FFD8A828B838CF0125A23FA74075AA805F674192FFDE581249168
:202AC000F8740526FAE40836FB0886048A828B838CF0125A23FAA805A602E5812491F874BB
:202AE0000826FBE40836FC088605E5812482F8A60308A60408A6058F027C007D40C007C099
:202B0000057410C0E0E4C0E0E581247EF8E6C0E008E6C0E008E6C0E08A828C838DF078DA7C
:202B200079587A00120814E58124FBF581D005D007E58124ECF87618087600E5812482F8F7
:202B4000743A2FF6E5812485F874502FF6D005E5812495F8E581248AF9E6F7097700E581F6
:202B600024EDF8E581248AF9C3E69708E664800987F063F08095F040030232AAC005E58109
:202B80002491F8E58124ECF9E726FA09E70836FD0886068A828D838EF0125A23FED005EE69
:202BA000700CE58124EFF876010876008039C005E58124ECF8740126FCE40836FDE5812407
:202BC00091F8EC26FCED0836FD0886038C828D838BF0125A23FC7D00E58124EEF874022CF2
:202BE000F6E43D08F6D005E58124EFF8E58124EDF9E726FB09E70836FCE581248AF8C3E623
:202C00009B08E664808CF063F08095F050030232DCBE02028015BE0303022DCEBE04030231
:202C20002F9ABE0803023174023295E58124EFF8C3E6940608E66480948050030232DCC0D5
:202C40000574502FF9E58124ECF8740226FBE40836FCE5812491F8EB26FBEC0836FC08868D
:202C6000058B828C838DF0125A23F774512FF9E58124ECF8740326FCE40836FDE581249102
:202C8000F8EC26FCED0836FD0886038C828D838BF0125A2325E0FCF7E58124ECF874042649
:202CA000FBE40836FDE5812491F8EB26FBED0836FD0886068B828D838EF0125A232354017D
:202CC000FA4CF774522FF98B828D838EF0125A23C4540FFC74035CF774532FF98B828D83A6
:202CE0008EF0125A23FB740F5BF774542FF9E58124ECF8740526FDE40836FEE5812491F8CA
:202D0000ED26FDEE0836FE0886048D828E838CF0125A23F7E5812485F886008606D005EEE9
:202D20007003023295BE074874552FF9E58124EDF8740626FCE40836FEC007C005C001C021
:202D400004C006E581248DF886820886830886F0785179257A00120814AC82AE83158115EA
:202D600081D001D005D007A70409A70619023295BE025874552FF9E58124EDF8740626FCFE
:202D8000E40836FEE5812492F8EC26FCEE0836FE0886038C828E838BF0125A23F774562F1D
:202DA000F9E58124EDF8740726FCE40836FEE5812492F8EC26FCEE0836FE0886038C828E75
:202DC000838BF0125A23FCF70232950232DCE58124EFF8C3E6940908E664809480500302A8
:202DE00032DCC005E581248DF874242FF674382FF9E58124ECF8740226FBE40836FCE581D7
:202E00002491F8EB26FBEC0836FC0886028B828C838AF0125A23F774392FF8C000E5812409
:202E2000EBF8740326FBE40836FCE5812490F8EB26FBEC0836FC088602D0008B828C838AAF
:202E4000F0125A23F674342FF8C000E58124EBF8740426FBE40836FCD000C007C001C00032
:202E6000C003C004C000E581248BF886820886830886F0D000783D79237A00120814AA8272
:202E8000AB83ACF0FD15811581D000D001A60208A60308A60408A60518181887068E037A00
:202EA0000074072BFCE43AFDC006C003C0027408C0E0E4C0E08C828D83125CFBAC82AD8385
:202EC00015811581D002D003D006D00774082CFCE43DFDE58124EEF8C3E69C08E664808D9E
:202EE000F063F08095F0D0055003022F97EE247F5003022F97C00574072BFBE43AFCC007A7
:202F0000C0057408C0E0E4C0E08B828C83125CFBC8E5812487C8A68208A68315811581D0D1
:202F200005D007E58124ECF8740826FAE40836FDE5812491F8EA26FAED0836FD088606E5CE
:202F400081248EF8A60208A60508A606E581248DF886048C037C007E40C007C005E58124BF
:202F600089F8E6C0E008E6C0E0E581248AF8E6C0E008E6C0E008E6C0E08B828C838EF078FC
:202F8000DA79587A00120814E58124FBF581D005D007D0050232950232DCE58124EFF8B662
:202FA000100608B6000280030232DCE58124EDF8740326FCE40836FEE5812492F8EC26FC5E
:202FC000EE0836FE0886038C828E838BF0125A23FCE5812489F88600A604E58124EDF874F3
:202FE0000426FCE40836FEE5812492F8EC26FCEE0836FE0886038C828E838BF0125A23FC89
:20300000E5812488F88600A604E58124EDF8740526FCE40836FEE5812492F8EC26FCEE0834
:2030200036FE0886038C828E838BF0125A23FCE5812487F88600A604E58124EDF87406265E
:20304000FCE40836FEC007C005C004C006E581248EF886820886830886F0785179257A00B6
:20306000120814AC82AE8315811581D005D007E5812481F88600A60408A60618E58124ED75
:20308000F8740826FCE40836FEC007C005C004C006E581248EF886820886830886F07851F4
:2030A00079257A00120814AC82AE8315811581D005D007A805A60408A606E58124EDF874A5
:2030C0000A26FCE40836FEC007C005C004C006E581248EF886820886830886F07851792580
:2030E0007A00120814AC82AE8315811581D005D007E581247EF88600A60408A60618E5818F
:2031000024EDF8740D26FCE40836FEE5812492F8EC26FCEE0836FE0886038C828E838BF06C
:20312000125A23FCE5812480F88600A604E58124EDF8740E26FCE40836FEC007C005C0044F
:20314000C006E581248EF886820886830886F0785179257A00120814AC82AE831581158168
:20316000D005D007E581247FF88600A60408A60618023295E58124EFF8B6200608B60002D0
:2031800080030232DCC005744E2FF9E58124ECF8740226FCE40836FEE5812491F8EC26FCA6
:2031A000EE0836FE0886038C828E838BF0125A23F7744F2FF9E58124ECF8740326FCE40856
:2031C00036FEE5812491F8EC26FCEE0836FE0886038C828E838BF0125A23F7744A2FF9E5F4
:2031E0008124ECF8740826FCE40836FEC007C005C001C004C006E581248CF886820886838A
:203200000886F0783D79237A00120814AA82AB83ACF0FE15811581D001D005D007A70209E8
:20322000A70309A70409A706191919E58124ECF8741026FCE40836FEE5812491F8EC26FCDA
:20324000EE0836FE088603E581248EF8A60408A60608A603E5812482F886027D007E40C00D
:2032600007C0057410C0E0E4C0E0E581248AF8E6C0E008E6C0E008E6C0E08A828D838EF092
:2032800078DA79587A00120814E58124FBF581D005D007D005E58124EDF8E58124EFF9E71F
:2032A00026F609E70836F6022B4F7E007D40E5812482F886047B007A40C007C006C0058C76
:2032C000828B838AF0788D79E47A011208141581158115819007A2E4F0E4A3F0E581247D8C
:2032E000F581020826C082C083C0F0E5812422F58124DCF8740A26FAE40836FB0886048A02
:20330000828B838CF0E58124EEF8125A23F6A3125A2308F6A3125A2308F69010BCE0242CC0
:2033200024ACFBE43406FCE58124E9F8A60308A604087600E58124DCF8747A26FDE40836D3
:20334000FE0886078D828E838FF0125A23FDE58124E9F886820886830886F0ED1252EDE58A
:203360008124E9F8740126FDE40836FE088607E58124EEF8741226FAE40836FB0886048A2B
:20338000828B838CF0125A238D828E838FF01252EDE58124EEF8741A26FDE40836FE0886D3
:2033A000078D828E838FF0125A23FDA3125A23FEC005C0067402C0E0E4C0E0E58124E5F81F
:2033C00086820886830886F078B079257A00120814E58124FCF58124E9F8740426FDE40860
:2033E00036FE0886078D828E838FF0E41252EDE58124EEF8741326FAE40836FB0886048AE0
:20340000828B838CF0125A2360178D828E838FF0125A23FC4304808D828E838FF0EC1252BA
:20342000ED8D828E838FF0E58124DFF8125A23F6E58124DCF8747D26FAE40836FB088604FC
:203440008A828B838CF0125A23C40354F8FAE58124DFF8EA46F68D828E838FF0E58124DFAB
:20346000F8E61252EDE58124EEF8741426FAE40836FB0886048A828B838CF0125A23FA74C3
:20348000075AC8E58124DFC8468D828E838FF01252EDE58124E9F8E58124E0F9740526F738
:2034A000E4083609F70809E6F7E58124DCF8747C26FAE40836FB0886048A828B838CF01237
:2034C0005A23FFE58124E0F886820886830886F0EF1252EDE58124D6F8E60846702A8A8205
:2034E0008B838CF0125A23FF2480500EEF04FE8A828B838CF01252ED800EEF04547FFF8AFD
:20350000828B838CF01252EDE58124E9F8740626FDE40836FE0886078D828E838FF0E412FC
:2035200052EDE58124E9F8740726FDE40836FE0886078D828E838FF0E41252EDE58124EE42
:20354000F88605088606088607E58124E9F8740826FAE40836FB0886047410C0E0E4C0E061
:20356000C005C006C0078A828B838CF078DA79587A00120814E58124FBF58124ECF8761807
:20358000087600E58124DCF886820886830886F0125A237003023918E58124DCF874072664
:2035A000FBE40836FC0886058B828C838DF0125A23FBA3125A23FCA3125A23FD740F2BFB36
:2035C000E43CFC8B828C838DF0125A23FBA3125A23FCA3125A23FDC005C004C003C003C080
:2035E00004C005E58124D6F886820886830886F0D002D001D000120814D003D004D005E511
:203600008124ECF88604088605E58124ECF806B600020806E58124E9F8EC26FCED0836FD29
:203620000886038C828D838BF074021252EDE58124ECF88604088605E58124ECF806B600E4
:20364000020806E58124E9F8EC26FCED0836FD0886038C828D838BF074061252EDE581243A
:20366000ECF88604088605E58124ECF806B600020806E58124E9F8EC26FCED0836FD0886E0
:2036800003E58124DCF886820886830886F0125A23FA8C828D838BF01252EDE58124ECF851
:2036A0008604088605E58124ECF806B600020806E58124E9F8E58124E0F9EC26F7ED0836B1
:2036C00009F70809E6F7E58124DCF8740126FAE40836FE0886078A828E838FF0125A23C366
:2036E00013FDE58124E0F886820886830886F0ED1252EDE58124E9F8E58124ECF9E726FBA1
:2037000009E70836FC0886058A828E838FF0125A235401035480FA8B828C838DF01252EDB1
:20372000E58124ECF88606088607E58124ECF806B600020806E58124E9F8EE26FEEF083616
:20374000FF0886058E828F838DF0E58124E0F8125A23F6E58124DCF8740226FAE40836FB40
:203760000886048A828B838CF0125A23FAE58124DFF8EAC454F0F6E58124DCF8740326FA5A
:20378000E40836FB0886048A828B838CF0125A23FAE58124DFF8EA46C8E58124E0C846FC8E
:2037A0008E828F838DF01252EDE58124DCF886820886830886F0125A23FFBF070280030249
:2037C000384AE58124ECF88605088606E58124ECF806B600020806E58124E9F8ED26FDEE37
:2037E0000836FE0886048D828E838CF074021252EDE58124DCF8740526FCE40836FD0886F2
:20380000068C828D838EF0125A23FCA3125A23FDC004C005E58124EAF8E6C0E008E6C0E043
:20382000E58124E5F886820886830886F078B079257A00120814E58124FCF58124ECF874A4
:203840000226F6E40836F6023918BF02028003023915E58124ECF88606088607E58124EC44
:20386000F806B600020806E58124E9F8EE26FEEF0836FF0886058E828F838DF074021252CF
:20388000EDE58124ECF88606088607E58124ECF806B600020806E58124E9F8E58124E0F9A4
:2038A000EE26F7EF083609F70809E6F7E58124DCF8740526FAE40836FB0886048A828B8322
:2038C0008CF0125A23FFE58124E0F886820886830886F0EF1252EDE58124ECF8860608861D
:2038E00007E58124ECF806B600020806E58124E9F8EE26FEEF0836FF0886050ABA00010B7B
:203900008A828B838CF0125A23FA8E828F838DF01252ED8003023FA5E58124ECF88606082D
:203920008607E58124ECF806B600020806E58124E9F8EE26FEEF0836FF0886058E828F8362
:203940008DF074041252EDE58124ECF88606088607E58124ECF806B600020806E58124E9E5
:20396000F8EE26FEEF0836FF0886058E828F838DF0740E1252EDE58124ECF886060886077D
:20398000E58124ECF806B600020806E58124E9F8EE26FEEF0836FF0886058E828F838DF012
:2039A000E41252EDE58124ECF88606088607E58124ECF806B600020806E58124E9F8EE268A
:2039C000FEEF0836FF088605E58124DCF8747E26FAE40836FB0886048A828B838CF0125A09
:2039E00023FA8E828F838DF01252EDE58124ECF88606088607E58124ECF806B600020806F1
:203A0000E58124E9F8EE26FEEF0836FF088605E58124DCF8747F26FAE40836FB0886048AC0
:203A2000828B838CF0125A23FA8E828F838DF01252EDE58124ECF88606088607E58124ECFC
:203A4000F806B600020806E58124E9F8EE26FEEF0836FF088605E58124DCF8748026FAE410
:203A60000836FB0886048A828B838CF0125A238E828F838DF01252EDE58124DCF8748526E9
:203A8000FDE40836FE0886078D828E838FF0125A23FDA3125A23FEC005C006E58124EAF822
:203AA000E6C0E008E6C0E0E58124E5F886820886830886F078B079257A00120814E58124FC
:203AC000FCF58124ECF8740226F6E40836F6E58124DCF8748726FDE40836FE0886078D8282
:203AE0008E838FF0125A23FDA3125A23FEC005C006E58124EAF8E6C0E008E6C0E0E58124E5
:203B0000E5F886820886830886F078B079257A00120814E58124FCF58124ECF8740226F62D
:203B2000E40836F6E58124DCF8740726FDE40836FE0886078D828E838FF0125A23FDA312DC
:203B40005A23FEA3125A23FF74122DFDE43EFE8D828E838FF0125A23FDA3125A23FEC005C9
:203B6000C006E58124EAF8E6C0E008E6C0E0E58124E5F886820886830886F078B079257AC1
:203B800000120814E58124FCF58124ECF8740226F6E40836F6E58124ECF88606088607E5D5
:203BA0008124ECF806B600020806E58124E9F8EE26FEEF0836FF0886058E828F838DF0E4F1
:203BC0001252EDE58124ECF88606088607E58124ECF806B600020806E58124E9F8EE26FE4E
:203BE000EF0836FF088605E58124DCF8748126FAE40836FB0886048A828B838CF0125A23BF
:203C00008E828F838DF01252EDE58124DCF8748926FDE40836FE0886078D828E838FF012D0
:203C20005A23FDA3125A23FEC005C006E58124EAF8E6C0E008E6C0E0E58124E5F886820858
:203C400086830886F078B079257A00120814E58124FCF58124ECF8740226F6E40836F6E5DC
:203C60008124EEF8E58124E6F9741F26F7E4083609F70809E6F7E58124E6F8741426FFE497
:203C80000836FE0886058F828E838DF0125A237003023EDBE58124ECF88603088604E581AA
:203CA00024ECF806B600020806E58124E9F8EB26FBEC0836FC0886028B828C838AF07408F1
:203CC0001252EDE58124ECF88603088604E58124ECF806B600020806E58124E9F8EB26FB59
:203CE000EC0836FC0886028B828C838AF0741E1252EDE58124ECF88603088604E58124EC96
:203D0000F806B600020806E58124E9F8E58124E3F9EB26F7EC083609F70809E6F78F828E4F
:203D2000838DF0125A23FCE58124E3F886820886830886F0EC1252EDE58124ECF8860308C0
:203D40008604E58124ECF806B600020806E58124E9F8EB26FFEC0836FE088605E58124E6F9
:203D6000F8741526FAE40836FB0886048A828B838CF0125A238F828E838DF01252EDE58178
:203D800024E6F8E58124E3F9741026F7E4083609F70809E6F7E58124E3F886820886830884
:203DA00086F0125A23FAA3125A23FBA3125A23FCA3125A23FFC002C003C004C007E58124DE
:203DC000E8F8E6C0E008E6C0E0E58124E3F886820886830886F0785579247A00120814E5FC
:203DE0008124FAF58124ECF8740426F6E40836F6E58124E3F886820886830886F0125A236F
:203E0000FCA3125A23FDA3125A23FEA3125A23FFC004C005C006C007E58124E8F8E6C0E010
:203E200008E6C0E0E58124E3F886820886830886F0785579247A00120814E58124FAF581EC
:203E400024ECF8740426F6E40836F6E58124E9F8E58124ECF9E726FD09E70836FE08860709
:203E60007404C0E0E4C0E0E4C0E08D828E838FF0786E79587A00120814158115811581E57D
:203E80008124ECF8740426F6E40836F6E58124E6F88605088606088607E58124E9F8E58100
:203EA00024ECF9E726FA09E70836FB0886047410C0E0E4C0E0C005C006C0078A828B838C97
:203EC000F078DA79587A00120814E58124FBF58124ECF8741026F6E40836F6E58124D6F814
:203EE000E608466003023F6FE58124F1F876FF087602E58124F1FF2402F876000876007413
:203F0000042FF8760008760074062FF8760008760074082FF87600087600740A2FF876003B
:203F2000087600740C2FF87600087600740E2FF8760008761AE58124F1FF7E007D40E58196
:203F400024ECF8E6C0E008E6C0E07401C0E0E4C0E0749BC0E0E4C0E08F828E838DF0782F33
:203F600079D07A02120814E58124FAF5818036E58124ECF8E6C0E008E6C0E07401C0E0E423
:203F8000C0E0749BC0E0E4C0E0E58124D0F886820886830886F0782F79D07A02120814E5E6
:203FA0008124FAF581E58124DBF581020826E581244DF581A881187600E58124E1F8E4F6A0
:203FC00008F60876007AAC7B0674082AFAE43BFB7F00E58124E4F9FC7D007E40C0017410A2
:203FE000C0E0E4C0E0C002C003C0078C828D838EF078DA79587A00120814E58124FBF581EF
:20400000D0019010BCE0242CFF24ACFDE43406FEE58124FAF8A60508A6060876009007A2C9
:20402000E0FAA3E0EAC39FFFE58124DAF8A607E58124FAF886820886830886F0125A23F538
:2040400082C00178CE79CA7A01120814AF82AE83ADF0D001E58124F7F8A60708A60608A693
:2040600005E58124F7F8E608467003024B85C001E58124F6F8748126FAE40836FB08860749
:204080008A828B838FF0E58124B3F8125A23F6E58124F9F8740126FAE40836FB0886078A81
:2040A000828B838FF0A88118125A23F6E58124DAF87604087600E58124F9F8740326FAE4E1
:2040C0000836FB0886078A828B838FF0125A23FAE58124FCF8A602087600E58124F6F87460
:2040E0000A26FAE40836FB0886078A828B838FF0E58124F3F8125A23F6A3125A2308F6A37E
:20410000125A2308F6A88118E6D00130E65CC001E58124F9F8740426FAE40836FB08860722
:20412000E58124F3F88604088605088606C0017410C0E0E4C0E0C002C003C0078C828D8386
:204140008EF0786479557A00120814AE82AF83E58124FBF581D001D001EE4F6003024B851E
:20416000E58124DBF876140876008707BFFF047F0280027F01E58124DFF8A607087600E596
:204180008124DFF8E4B6010508B6000104FD700302439D89047B007A40C005C001C004C022
:2041A00003C002E58124EFF886820886830886F0784B79B77A01120814AA82AB83ACF0158B
:2041C0008115811581D001D005E58124E1F8A60208A60308A604E58124E1F8E60846700314
:2041E000024303C005E58124E0F8740626FAE40836FB0886048A828B838CF0E58124B4F83B
:20420000125A23F6A3125A2308F6E58124F6F8748726FDE40836FE0886078D828E838FF0FF
:20422000E58124B6F8125A23F6A3125A2308F6C005C004C003C002C001E58124B1F8E6C0E9
:20424000E008E6C0E0E58124ADF88682088683125D71C8E58124ADC8A68208A683158115FD
:2042600081D001D002D003D004D005E58124F3F8741A26FDE40836FE0886078D828E838F14
:20428000F0125A23FDA3125A23FEC005C004C003C002C001E58124B1F8E6C0E008E6C0E05C
:2042A0008D828E83125D71AE82AF8315811581D001D002D003D004D005E58124B4F8C3E672
:2042C0009E08E69FD005503B8A828B838CF074FF1252EDA374FF1252EDE58124E1F8740BB0
:2042E00026FCE40836FE0886078C828E838FF0125A23FB4303018C828E838FF0EB1252ED9E
:20430000024B85E58124E1F8E60846700302439DE58124F4F8741726FCE40836FE08860707
:204320008C828E838FF0125A23FCA3125A23FEA3125A23FFE58124E1F8C004C006C00786B9
:20434000820886830886F0125241158115811581704BE58124E1F8740626FCE40836FE0803
:2043600086078C828E838FF074FF1252EDA374FF1252EDE58124E1F8740B26FCE40836FEC3
:204380000886078C828E838FF0125A23FB4303018C828E838FF0EB1252ED024B85E58124E3
:2043A000DBF8C001E58124DCF9E6F70809E6F7D001E58124C7FCE58124B5F8A604E58124B6
:2043C000DAF8C001E58124B6F9E6F7097700D001E58124DDF8C001E58124B6F9C3E6970842
:2043E000E664800987F063F08095F0D00140030245C1C005E58124F9F8C001E58124DBF9A0
:20440000E726FA09E70836FD088607D0018A828D838FF0125A23FFD005EF700CE58124BB56
:20442000F876010876008039C005E58124DCF8740126FAE40836FDE58124F9F8EA26FAED8D
:204440000836FB0886058A828B838DF0125A23FA7D00E58124BAF874022AF6E43D08F6D032
:2044600005BF05028009BF060302457D0245A8C005E58124DCF8740326FAE40836FBE58130
:2044800024F9F8EA26FAEB0836FB0886058A828B838DF0A8811818125A23F68C027B007D4B
:2044A00040C005C004C0017410C0E0E4C0E0E4C0E08A828B838DF0786E79587A0012081450
:2044C000158115811581D001D004D005A881181886037D0074072BFBE43DFDC005C004C039
:2044E000017408C0E0E4C0E08B828D83125CFBC8E58124B3C8A68208A68315811581D00172
:20450000D004D005E58124F9F8C001E58124DBF9E726FA09E70836FB088605D00174042A22
:20452000FAE43BFBE58124BCF8A60208A60308A605E58124B4F886057E007F40C005C00496
:20454000C001E58124B5F8E6C0E008E6C0E0E58124B7F8E6C0E008E6C0E008E6C0E08D8265
:204560008E838FF078DA79587A00120814E58124FBF581D001D004D005D005802BE5812461
:20458000DDF8740526FEE40836FFE58124FAF8EE26FEEF0836FF0886038E828F838BF0E5BB
:2045A0008124B4F8125A23F6E58124DDF8C001E58124BAF9E726F609E70836F6D00102438B
:2045C000BD8C077E007B408F828E838BF0C005C004C001787B79837A01120814AB82AE8375
:2045E000AFF0D001D004D005E58124D7F8A60308A60608A607E58124B4F8E660030248224C
:20460000E58124D7F8E60846700302481FC001E58124D6F8C001E58124BBF9741626F7E48E
:20462000083609F70809E6F7D001E58124D6F8741E26FAE40836FE0886078A828E838FF022
:20464000125A23D001600302481FE58124D7F8741F26FBE40836FE0886078B828E838FF0CF
:20466000125A23FBA88118E6B50302800302481FE58124D7F886820886830886F0C00178BA
:20468000EC79827A01120814AB82AE83AFF0D001EB4E700302481F89078F057C007B40E567
:2046A0008124D7F886820886830886F0C005C004C003C00178EC79827A01120814AA82AE00
:2046C00083AFF0D001D003D004D005C0017410C0E0E4C0E0C005C004C0038A828E838FF01A
:2046E000786479557A00120814AE82AF83E58124FBF581D001EE4F600302481FE58124BDEA
:20470000F8740826FBE40836FE0886078B828E838FF074011252EDE58124BDF88682088617
:20472000830886F0743C1252EDA3E41252EDA3E41252EDA3E41252EDE58124F4F8741726C8
:20474000FDE40836FC0886038D828C838BF0125A23FFA3125A23FEA3125A23FAEF4E70037A
:204760000247E88F828E838AF0C005C004C003C00178AC799A7A01120814AA82AE83AFF083
:20478000D001D003D004D005EA4E605C8D828C838BF0125A23FBA3125A23FEA3125A23FF54
:2047A0008B828E838FF0C00178AC799A7A01120814AB82AE83AFF0E58124B6F8E6C0E008F8
:2047C000E6C0E07402C0E0E4C0E0749BC0E0E4C0E08B828E838FF0782F79D07A021208144F
:2047E000E58124FAF581D001A881E630E731E58124FDF8860789067B007A40C007C006C07A
:2048000003C002E58124F3F886820886830886F07845794F7A00120814E58124FCF581029C
:204820004B8589077E007B408F828E838BF0C005C004C00178D679917A03120814AB82AE1A
:2048400083AFF0D001D004D005EB4E6003024913C00575820FC005C004C00178DD79BF7AA6
:2048600003120814AB82AE83AFF0D001D004D005E58124BFF8A60308A60608A60789027D35
:20488000007F40C004C0017401C0E0E4C0E0E58124BBF8E6C0E008E6C0E008E6C0E08A8250
:2048A0008D838FF0780B798F7A03120814AD82AE83AFF0E58124FBF581D001D004E581240A
:2048C000BFF8A60508A60608A607ED4ED0056040E58124C0F8741026FBE40836FE088607C1
:2048E000C005C004C0017458C0E07402C0E0E4C0E0C0E08B828E838FF0780079807A04122A
:204900000814E58124FCF581D001D004D0058003024B85C005E58124E0F886820886830868
:2049200086F0C005C004C001788279EE7A01120814D001D004D00589077E007B40A8811829
:2049400018C001E58124BEF9E6F70977008C027C007D40C007C006C003E58124BBF8E6C0E6
:20496000E008E6C0E0C002C004C005E58124EAF886820886830886F0782D79B47A03120812
:2049800014AD82AE83AFF0E58124F8F581D001E58124D6F8A60508A60608A607D005E58194
:2049A00024D7F8E608467003024B85C001E58124D6F8C001E58124BEF9741626F7E40836A7
:2049C00009F70809E6F7D001E58124F6F8748926FAE40836FB0886078A828B838FF0125ACC
:2049E00023FAA3125A23FBE58124C2F8A60208A603087600087600E58124B3F886037C009A
:204A00007E007F00C005C001C003C004C006C007E58124BCF886820886830886F008E6122A
:204A20005A3FAB82AC83AEF0FFE58124FCF581D001D005E58124BFF886820886830886F06A
:204A4000EB1252EDA3EC1252EDA3EE1252EDA3EF1252EDE58124D6F8741D26FCE40836FE4A
:204A6000088607E58124DEF886038C828E838FF0EB1252EDE58124D6F8741E26FCE40836B0
:204A8000FE0886078C828E838FF0E41252EDD001ED7003024B7DE58124F4F8741726FDE4AD
:204AA0000836FE0886078D828E838FF0125A23FAA3125A23FBA3125A23FCEA4B7003024BAD
:204AC000468A828B838CF0C007C006C005C00178AC799A7A01120814AA82AB83ACF0D00140
:204AE000D005D006D007EA4B605C8D828E838FF0125A23FDA3125A23FEA3125A23FF8D82A8
:204B00008E838FF0C00178AC799A7A01120814AD82AE83AFF0E58124B6F8E6C0E008E6C0F9
:204B2000E07402C0E0E4C0E0749BC0E0E4C0E08D828E838FF0782F79D07A02120814E58129
:204B400024FAF581D001A881E630E731E58124FDF8860789067D007C40C007C006C005C0B3
:204B600004E58124F3F886820886830886F07845794F7A00120814E58124FCF5819007A2C3
:204B8000E4F0E4A3F0E58124B3F581020826C082C083C0F0E5812410F58124F1FCFA7B001C
:204BA0007F408A828B838FF0C004781B79227A00120814E5828583F0D00445F07002802E7B
:204BC0007F007E40E58124EAF8E6C0E0C004C007C006E58124EAF886820886830886F078DA
:204BE000F7794B7A00120814E58124FCF581E58124EDF581020826C082C083C0F0E581247A
:204C000006F581780F79AF7A03120814AC82BC0103024F31E58124F8F8E608467003024FDC
:204C200031E58124F8F8740326FAE40836FB0886048A828B838CF0E58124FBF8125A23F6EB
:204C4000A3125A2308F6A3125A2308F6E58124FBF8E608467003024F31E58124FBF8741C41
:204C600026FDE40836FE0886078D828E838FF0125A23FDA3125A23FEA3125A23FFED4E7025
:204C800003024F31E58124F2F8E608467003024F319010BCE0242C24ACFBE43406FCA88158
:204CA0001818A60308A6040876009010F8E0FC248050089010F8EC04F08008EC049010F8F3
:204CC000547FF0747A2DFAE43EFB8F048A828B838CF0125A23FAA8811818868208868308B3
:204CE00086F0EA1252EDA8811818740126FAE40836FB0886048A828B838CF0E41252ED8A11
:204D0000828B838CF0125A23FF4307408A828B838CF0EF1252EDA8811818740226FDE408BB
:204D200036FE0886078D828E838FF0E41252EDA8811818740326FDE40836FE08860790108E
:204D4000F8E08D828E838FF01252EDE58124FBF88605088606088607A8811818740426FA69
:204D6000E40836FB0886047410C0E0E4C0E0C005C006C0078A828B838CF078DA79587A0057
:204D8000120814E58124FBF581A8811818741426FDE40836FE0886078D828E838FF0740519
:204DA0001252EDA8811818741526FDE40836FE0886078D828E838FF074121252EDA8811831
:204DC00018741626FDE40836FE0886078D828E838FF0E41252EDA8811818741726FDE40892
:204DE00036FE0886078D828E838FF074801252EDE58124F2F88605088606088607A881189D
:204E000018741826FAE40836FB0886047410C0E0E4C0E0C005C006C0078A828B838CF07817
:204E2000DA79587A00120814E58124FBF581A8811818742826FDE40836FE0886078D828EBA
:204E4000838FF074061252EDA8811818742926FDE40836FE0886078D828E838FF07404128E
:204E600052EDA8811818742A26FDE40836FE0886078D828E838FF0E41252EDA88118187483
:204E80002B26FDE40836FE0886078D828E838FF0E41252EDA8811818742C26FDE40836FEFF
:204EA0000886078D828E838FF0E41252EDA8811818742D26FDE40836FE0886078D828E8397
:204EC0008FF0E58124F1F8E61252EDE58124F8F886820886830886F078AC799A7A011208CC
:204EE00014AD82AE83AFF0ED4E6046E58124F8F886820886830886F078AC799A7A011208E1
:204F000014AD82AE83AFF0742EC0E0E4C0E07402C0E0E4C0E0749BC0E0E4C0E08D828E83CB
:204F20008FF0782F79D07A02120814E58124FAF581E58124F7F5810208269007A2E4F0E446
:204F4000A3F0020826AD82AE83AFF09010BCE0242C24ACFBE43406FC7A00747A2DFDE43E6A
:204F6000FE8D828E838FF0125A238B828C838AF01252ED74012BFDE43CFE8A078D828E83B2
:204F80008FF0E41252ED74022BFDE43CFE8A078D828E838FF0E58124FAF8E61252ED740347
:204FA0002BFBE43CFC8B828C838AF0E41252ED7404C0E0E4C0E07403C0E0E4C0E0749BC0DE
:204FC000E0E4C0E0E58124F5F886820886830886F0782F79D07A02120814E58124FAF581CB
:204FE0000208269010F975F00078EE79C77A0212081490110175F00078EE79C77A021208F0
:205000001490110975F00078EE79C77A0212081490111175F00078EE79C77A0212081402B4
:205020000826AD82AE83AFF0E58124FBF8E6084670030250B09007ADEDF0EEA3F0EFA3F0F9
:20504000E58124F9F886060886079007A4EEF0EFA3F0E58124F9F8C374C096E464800886BB
:20506000F063F08095F050067CC07D0080048E048F05C004C005E58124F9F8E6C0E008E6B7
:20508000C0E008E6C0E09006DC75F00078DA79587A00120814E58124FBF58175820478B022
:2050A000790F7A00120814783479887A031208149007A4E4F0E4A3F0020826C082C083C06D
:2050C000F0E5812416F58124DDF8E608467003025238E58124E8F886020886030886048CFD
:2050E00007E58124EEF8E58124EFF6E58124EEF886047D007E407410C0E0E4C0E0C002C06B
:2051000003C0078C828D838EF078DA79587A00120814E58124FBF58124E8F8741226FCE4D3
:205120000836FD0886068C828D838EF0A88118125A23F6A3125A2308F6E58124DDF8E58149
:2051400024EBF9E6F70809E6F70809E6F7E58124E8F88602088603088607C006C005C00427
:205160007410C0E0E4C0E0E58124E6F8E6C0E008E6C0E008E6C0E08A828B838FF078DA7919
:20518000587A00120814E58124FBF581D004D005D0068C828D838EF0E58124DBF8E6125252
:2051A000EDA308E61252EDE58124E0F8E6C0E008E6C0E0E58124E0F8E6C0E008E6C0E0082C
:2051C000E6C0E0E58124E3F886820886830886F0782279507A00120814E58124FBF5812423
:2051E000EEF886077E007D40E58124E8F886020886030886047410C0E0E4C0E0C007C006B7
:20520000C0058A828B838CF078DA79587A00120814E58124FBF58124E8F8741226FDE408D4
:2052200036FE0886078D828E838FF0A88118E61252EDA308E61252EDE58124E7F5810208BB
:2052400026E58124FCC3C8C0E0C082E608467006E5824583601218E58296F58208E5839658
:20526000428208E5F0964582D082C8D0E0C822758120125DBEE582600302006E7968E944F1
:2052800001601B7A02907E977829759310E493F2A308B800020593D9F4DAF27593FFE47856
:2052A000FFF6D8FD7800E84400600A7900759300E4F309D8FC7825E84410600C7911900082
:2052C00000E4F0A3D8FCD9FA900500E4F0E4F50FF510E4F511F512900000E4F0E4A3F0E4AA
:2052E000A3F0E4A3F0900F6AE4F002006E20F71130F6138883A88220F509F6A8837583008A
:205300002280FEF280F5F022C013858113C082C083C0F0E581240AF581A81308E513240B5F
:20532000F9E6F70809E6F70809E6F7E51324FAF8E5132404F9E6F70809E6F70809E6F709D2
:205340007700A8130886040886050886067F00E5132404F8C3E69C08E69D08E69E08E69FE2
:205360004003025405A813088605088606088607E51324F8F8E62DFD08E63EFE1DBDFF01F8
:205380001EE51324FAF88602088603088604E51324F8F8E62AFA08E63BFB1ABAFF011BE528
:2053A000132408F8A60208A60308A604E51324F8F8E5132404F9E6F70809E6F7E51324049B
:2053C000F88603088604E5132404F816B6FF020816EB4C7003025477E5132408F886820814
:2053E00086830886F0125A23FCE5132408F816B6FF0208168D828E838FF0EC1252ED1DBDDE
:20540000FF011E80B7A813088605088606088607E51324FAF8E5132404F9E6F70809E6F7CE
:205420000809E6F7E51324F8F8E5132408F9E6F70809E6F7E5132408F88603088604E5135B
:205440002408F816B6FF020816EB4C602AE5132404F886820886830886F0125A23FCA31887
:2054600018A68208A6838D828E838FF0EC1252EDA3AD82AE8380BDE513240BF886820886EA
:20548000830886F0851381D013020826C013858113C082C083E5812408F581AF130FE5139D
:2054A0002403F8A607087600087640E51324FCFCE5132406F8A604087600087640E51324B4
:2054C00009F9E5132403F886820886830886F0125A23FCE5132406F886820886830886F0E0
:2054E000125A238CF0A4F709A7F0E513240904F98704E5132403F886820886830886F012F9
:205500005A23FBE5132406F8740126FAE40836FE0886078A828E838FF0125A238BF0A4FB6A
:20552000E5132403F8740126FDE40836FE0886078D828E838FF0125A23FDE5132406F8863C
:20554000820886830886F0125A238DF0A42B2CF7E5132409F987060987078E828F83851340
:2055600081D01322C013E581F5132406F581AD82AE83AFF0E51324F8F8E60846700690007F
:2055800000025651E51324F8F886030886041BBBFF011CEB4C7003025621C003C004A813E4
:2055A00008A60508A60608A607A8130886820886830886F0125A23FAE51324FAF8E51324C2
:2055C00004F9E6F70809E6F70809E6F7E5132404F886820886830886F0125A23FCEAB50438
:2055E000028006D004D0038038A81308740126FAE40836FB0886048A058B068C07E51324EE
:2056000004F8740126FAE40836FB088604E51324FAF8A60208A60308A604D004D003025533
:205620008E8D828E838FF0125A23FD7F00E51324FAF886030886040886068B828C838EF0DB
:20564000125A23FB7E00EDC39BFDEF9EFF8D828F83851381D013020826C013858113AC8207
:20566000AD83AEF0FF05817B00A813087600E51324FAF8080808E6235401FA704DE51324CC
:20568000FAF8E625E0F608E633F608E633F608E633F6E51324FAF8C3EC96ED0896EE089688
:2056A000EF0896501AE51324FAF8080808E6C313F618E613F618E613F618E613F6800BA8D3
:2056C000130806A81308860380A4E51324FAF8C3EC96ED0896EE0896EF08964015E51324D1
:2056E000FAF8ECC396FCED0896FDEE0896FEEF0896FFE51324FAF8080808E6C313F618E603
:2057000013F618E613F618E613F68B021BEA70BA8C828D838EF0EF1581D01322C0138581B7
:2057200013058105810581AD82AE83AFF0E51324F8F8E6084670069000000257DCE513242E
:20574000FAF88602088603088604E51324F8F8A91309E6F70809E6F7A8130816B6FF020878
:2057600016A81308E60846604C8D828E838FF0E5132403F8125A23F6E5132403F8E66035A3
:20578000C005C006C0078A828B838CF0125A23FFE5132403F8E6B507028008D007D006D0D3
:2057A000058012D007D006D0050DBD00010E0ABA00A60B80A38D828E838FF0125A23FD3301
:2057C00095E0FF8A828B838CF0125A23FA3395E0FEEDC39AFDEF9EFF8D828F83851381D0B3
:2057E00013020826C013858113C082C083C0F0C0E07A007B007E007F007D20A81308080843
:2058000008E6339200A81308E625E0F608E633F608E633F608E633F6EA2AFAEB33FBEE33A4
:20582000FEEF33FF300003430201E51324FAF8C3EA96EB0896EE0896EF0896401CE5132465
:20584000FAF8EAC396FAEB0896FBEE0896FEEF0896FFA81308E64401F6DDA0A81308868253
:205860000886830886F008E6851381D01322C013858113C082C083C0F005810581A813089D
:205880008602088603088604E51324FAF8E5132404F9E6F70809E6F7E5132404F8860608BF
:2058A0008607E5132404F816B6FF020816EE4F60168A828B838CF0E51324FCF8E61252EDC8
:2058C000A3AA82AB8380D1A8130886820886830886F0851381D013020826C013E581F513B3
:2058E0002408F581AD82AE83AFF0E5132406F8A60508A60608A607E51324FAF8A91309E620
:20590000F70809E6F70809E6F7E51324F8F8E5132404F9E6F70809E6F7E5132404F8860323
:20592000088604E5132404F816B6FF020816EB4C6028A8130886820886830886F0125A232A
:20594000FCA31818A68208A6838D828E838FF0EC1252EDA3AD82AE8380BFE5132406F88661
:20596000820886830886F0851381D013020826C013858113789379A37A02120814D0130248
:205980000826C013858113AD82AE83AFF0E51324FCF8E6C0E0C005C006C007E4C0E0C0E0E2
:2059A000C0E090596F75F0007892796A7A00120814AE82AF83E58124F9F5818E828F83D0A8
:2059C00013020826C013858113E51324FAFFC007E51324FAF8E6C0E008E6C0E008E6C0E00C
:2059E000E4C0E0C0E0C0E090596F75F0007892796A7A00120814AE82AF83E58124F9F58136
:205A00008E828F83D013020826AA82AB83125A236003A380F8C3E5829AF582E5839BF58334
:205A200002082620F71430F6148883A88220F507E6A88375830022E280F7E49322E022C0A1
:205A400013858113C082C083C0F0C0E0E5812408F581E5132409F92402F8AF130F8F06C0DB
:205A600000A8068606E51324FAFDFC0C0CA8048604D0008EF0ECA4F608A6F08F068E008674
:205A8000068D048C0086048EF0ECA4F709A7F0E51324092403F987068F0474032CF886042A
:205AA0008D038B0086038CF0EBA42EF787068F0474022CF886048D03EB04F886038CF0EB67
:205AC000A42EF7E51324092402F98704098706198F0374022BF886038D028A0086028BF0AF
:205AE000EAA4ABF02CFCEB3EFEA70409A706198704098706198F03EB04F886038D02EA04FB
:205B0000F886028BF0EAA4ABF02CFCEB3EFEA70409A7068F0674032EF98F06EE04F8860673
:205B20008D0474022CF886048EF0ECA4F78F06EE04F98F06EE04F886068D048C0086048EEB
:205B4000F0ECA4F709A7F08D0674032EF98F068E0086068D0474032CF886048EF0ECA4F793
:205B60008D06EE04F98F068E0086068D04EC04F886048EF0ECA4F709A7F08D0177008F01BB
:205B80007700E5132409F9E5132405F8E7F609E708F609E708F609E708F6191919A81308A2
:205BA0008602088603088606088607E5132405F8EA26F6EB0836F6EE0836F6EF0836F6E53B
:205BC000132405F8E6F70908E6F70908E6F70908E6F7191919E709E709E709E7E51324FAD2
:205BE000F88604088605088606088607E5132405F8EC26FCED0836FDEE0836FEEF08368C35
:205C0000828D838EF0851381D01322C013858113AE82E583FF33E433FD6009C3E49EFBE4FF
:205C20009FFC80048E038F04E51324FCF808E630E70FE51324FCF8C3E496FE08E496FF80B1
:205C40000AE51324FCF88606088607C005C006C0078B828C83125C79AE82AF831581158126
:205C6000D005ED600DC3E49EFCE49FFD8C828D8380048E828F83D01322C013858113AE824F
:205C8000AF837D007C00E51324FCF808E6235401FB7032E51324FCF808E618C625E0C633EC
:205CA00008F6E51324FCF8C3EE96EF08965011E51324FCF808E618C313C613C608F6800593
:205CC0000C8C0580C1E51324FCF8C3EE96EF0896400DE51324FCF8EEC396FEEF0896FFE5EF
:205CE0001324FCF808E618C313C613C608F68D041DEC70D18E828F83D01322C01385811312
:205D0000AE82E583FF33E433FD6009C3E49EFBE49FFC80048E038F04E51324FCF808E633A4
:205D2000E433FF600FE51324FCF8C3E496FA08E496FE800AE51324FCF88602088606C0079A
:205D4000C005C002C0068B828C83125D71AC82AE8315811581D005D007EF6D600DC3E49CB7
:205D6000FDE49EFF8D828F8380048C828E83D01322C013858113AE82AF837C007D007B100A
:205D8000EF339200EFCE25E0CE33FFEDCC25E0CC33FD300003430401E51324FCF8C3EC9603
:205DA000ED08964010E51324FCF8ECC396FCED0896FD430601DBC98E828F83D01322758223
:205DC0000022C013858113AF8274302FFF24C6500B74072FFF30000474202FFFE51324F7BB
:205DE000F8E6C0E008E6C0E008E6C0E0E51324FAF8E6C0E008E6C0E008E6C0E08F82D00276
:205E0000D001D000120814158115811581D013020826C013858113E582FFC4540FFEC007A0
:205E2000C020E51324F7F8E6C0E008E6C0E008E6C0E0E51324FAF8E6C0E008E6C0E008E6C5
:205E4000C0E0A20092F085F0208E8278C2795D7A00120814E58124FAF581D020D007530706
:205E60000FE51324F7F8E6C0E008E6C0E008E6C0E0E51324FAF8E6C0E008E6C0E008E6C096
:205E8000E0A20092F085F0208F8278C2795D7A00120814E58124FAF581D013020826C013C0
:205EA0008581130581A9828704098705098706098707191919740429F8C000A813087620CE
:205EC000D000C001E626FAEF235401FBEA4203A603EC2CFCED33FDEE33FEEF33FF8603C037
:205EE00000E51324FCF8C3EB96D000D0014012C000E51324FCF8EBC396FBD000A60343048C
:205F000001C000A8130816E6D000600280B4A70409A70509A70609A7071581D01302082625
:205F2000C013858113C082C083C0F0C0E0E581241FF581E513240AF87600C204E513240902
:205F4000F87680C020E4C0E0C0E0C0E0C0E0A8130886820886830886F008E6127888AB8288
:205F6000E58124FCF581D020EB6012D204A81308E6F608E6F608E6F608E6B2E7F6C02074CA
:205F8000FFC0E0C0E0747FC0E0744BC0E0A8130886820886830886F008E6127C12AB82E5D6
:205FA0008124FCF581D020EB700302611D7F00C007C020E4C0E0C0E07420C0E07441C0E029
:205FC000A8130886820886830886F008E6127888AB82E58124FCF581D020D007EB703BC021
:205FE00007C020E4C0E0C0E07420C0E07441C0E0A8130886820886830886F008E61279C377
:20600000A81308A68208A68308A6F008F6E58124FCF581D020D0070F8095C007C020E4C096
:20602000E0C0E07480C0E0743FC0E0A8130886820886830886F008E6127888AB82E58124E8
:20604000FCF581D020D007EB603BC007C020A81308E6C0E008E6C0E008E6C0E008E6C0E0E7
:2060600090000075F0207441127A91A81308A68208A68308A6F008F6E58124FCF581D02095
:20608000D0071F8095E5132409F8A60730043FC020E51324F5F8E6C0E008E6C0E008E6C00D
:2060A000E0E51324F8F8E6C0E008E6C0E008E6C0E075822DD002D001D000120814158115E2
:2060C000811581D020E513240AF87601804030023DC020E51324F5F8E6C0E008E6C0E008F0
:2060E000E6C0E0E51324F8F8E6C0E008E6C0E008E6C0E075822BD002D001D0001208141594
:206100008115811581D020E513240AF87601E51324FCF87600C200C201C202C203E513249D
:20612000FBF8B6FF07E51324FBF876067B007D007E007F3FE51324FBF886048C02EA604838
:20614000C002C020E4C0E0C0E07420C0E07441C0E08B828D838EF0EF1279C3C8E51324052F
:20616000C8A68208A68308A6F008F6E58124FCF581D020D002E5132405F886030886050867
:2061800086060886071A80B5C020C003C005C006C007A8130886820886830886F008E61240
:2061A00078B8A81308A68208A68308A6F008F6E58124FCF581D020A8130886820886830827
:2061C00086F008E6C020127BD8AB82AD83AEF0FFD020E513241BF8A60308A60508A60608E5
:2061E000A607E513241BF886820886830886F008E6C020127BFFAA82AD83AEF0FFD020C029
:2062000020C002C005C006C007A8130886820886830886F008E6127A86AB82AD83AEF0FFF6
:20622000E58124FCF581D020E513241FF8A60308A60508A60608A607E5132405F8E5132445
:206240000BF67C00E513241BF8E608460846084670030262D68C070CE5132405F8EF26F94F
:20626000C004C001C020740AC0E0E4C0E0C0E0C0E0E513241BF886820886830886F008E623
:20628000125659AB82E58124FCF581D020D00174302BF7C020740AC0E0E4C0E0C0E0C0E0CB
:2062A000E513241BF886820886830886F008E61257E4AB82AD83AEF0FFE58124FCF581D017
:2062C00020D004E513241BF8A60308A60508A60608A607026244ECFF700DEC04FFE51324BB
:2062E00005F8EC26F87630E51324FBF88604E5132423F8A6078C05ED70058D040263F0C0DB
:2063000007C005C020E513241FF8E6C0E008E6C0E008E6C0E008E6C0E090000075F02074E5
:2063200041127A91AA82AB83AEF0FFE58124FCF581D020E513241FF8A60208A60308A606DC
:2063400008A607E513241FF886820886830886F008E6C020127BD8AA82AB83AEF0FFD020A4
:20636000E513241BF8A60208A60308A60608A607E5132423F88607E5132423F806E513240F
:2063800005F8EF26F9E513241BF8860374302BF7E513241BF886820886830886F008E6C000
:2063A00020127BFFAA82AB83AEF0FFD020C020C002C003C006C007E513241FF8868208868F
:2063C000830886F008E6127A86AA82AB83AEF0FFE58124FCF581D020D005E513241FF8A62B
:2063E0000208A60308A60608A6071DD0070262F78F06E51324FBF8E6600AE51324FBF8E649
:2064000004FD80027D008E03ED2BFDFE2004062002033003010E3000030266CFE51324FCC5
:20642000F8C3EC9640030266CF20010302656B300447C007C006C020E51324F5F8E6C0E038
:2064400008E6C0E008E6C0E0E51324F8F8E6C0E008E6C0E008E6C0E075822DD002D001D0DB
:2064600000120814158115811581D020D006D007E513240AF806026509300246C007C006F6
:20648000C020E51324F5F8E6C0E008E6C0E008E6C0E0E51324F8F8E6C0E008E6C0E008E663
:2064A000C0E075822BD002D001D000120814158115811581D020D006D007E513240AF806F6
:2064C0008047300344C007C006C020E51324F5F8E6C0E008E6C0E008E6C0E0E51324F8F85A
:2064E000E6C0E008E6C0E008E6C0E0758220D002D001D000120814158115811581D020D0C0
:2065000006D007E513240AF806E513240AF88605E51324FCF886048C031CC3EE9B400302FB
:2065200067ABC007C006C005C004C020E51324F5F8E6C0E008E6C0E008E6C0E0E51324F894
:20654000F8E6C0E008E6C0E008E6C0E0758230D002D001D000120814158115811581D02027
:20656000D004D005D006D0070D80ACE513240AF88603E51324FCF88602C0078A071AC3EE2A
:206580009FD0075049C007C006C003C002C020E51324F5F8E6C0E008E6C0E008E6C0E0E56A
:2065A0001324F8F8E6C0E008E6C0E008E6C0E0758220D002D001D000120814158115811519
:2065C00081D020D002D003D006D0070B80ABE513240AF8A603E51324FCF8A60230044DC002
:2065E00007C006C003C020E51324F5F8E6C0E008E6C0E008E6C0E0E51324F8F8E6C0E008E6
:20660000E6C0E008E6C0E075822DD002D001D000120814158115811581D020D003D006D076
:2066200007E513240AF8EB04F60267B930024DC007C006C003C020E51324F5F8E6C0E008E8
:20664000E6C0E008E6C0E0E51324F8F8E6C0E008E6C0E008E6C0E075822BD002D001D000E3
:20666000120814158115811581D020D003D006D007E513240AF8EB04F60267B9200303026D
:2066800067B9C007C006C003C020E51324F5F8E6C0E008E6C0E008E6C0E0E51324F8F8E60D
:2066A000C0E008E6C0E008E6C0E0758220D002D001D000120814158115811581D020D003E1
:2066C000D006D007E513240AF8EB04F60267B9300447C007C006C020E51324F5F8E6C0E071
:2066E00008E6C0E008E6C0E0E51324F8F8E6C0E008E6C0E008E6C0E075822DD002D001D039
:2067000000120814158115811581D020D006D007E513240AF8060267B9300246C007C006A1
:20672000C020E51324F5F8E6C0E008E6C0E008E6C0E0E51324F8F8E6C0E008E6C0E008E6C0
:20674000C0E075822BD002D001D000120814158115811581D020D006D007E513240AF80653
:206760008057300354C007C006C020E51324F5F8E6C0E008E6C0E008E6C0E0E51324F8F897
:20678000E6C0E008E6C0E008E6C0E0758220D002D001D000120814158115811581D020D01D
:2067A00006D007E513240AF806800EE513240AF8A605E51324FCF8A604EF14FDE513240AA1
:2067C000F88604E5132405F8ED26F98703C007C006C005C004C020E51324F5F8E6C0E008FB
:2067E000E6C0E008E6C0E0E51324F8F8E6C0E008E6C0E008E6C0E08B82D002D001D0001245
:206800000814158115811581D020D004D005D006D0070C8D031DEB70AAE513240AF8A604CE
:20682000E51324FBF8E670030268E5C007C006C004C020E51324F5F8E6C0E008E6C0E0084B
:20684000E6C0E0E51324F8F8E6C0E008E6C0E008E6C0E075822ED002D001D0001208141529
:206860008115811581D020D004D006D007E513240AF8EC04F6E513240AF88605E51324FB36
:20688000F886048C031CEB60558F030FE5132405F8EB26F98703C007C006C005C004C020E7
:2068A000E51324F5F8E6C0E008E6C0E008E6C0E0E51324F8F8E6C0E008E6C0E008E6C0E07F
:2068C0008B82D002D001D000120814158115811581D020D004D005D006D0070D80A5E513D8
:2068E000240AF8A605300068E51324FCF8C3EE96505EE513240AF88607E51324FCF88605E4
:206900008D041DC3EE9C5041C007C006C005E51324F5F8E6C0E008E6C0E008E6C0E0E513F6
:2069200024F8F8E6C0E008E6C0E008E6C0E0758220D002D001D00012081415811581158127
